{
  "@opengsn/contracts/src/utils/GsnEip712Library.sol": {
    "GsnEip712Library": {
      "abi": [
        {
          "inputs": [],
          "name": "EIP712DOMAIN_TYPEHASH",
          "outputs": [
            {
              "internalType": "bytes32",
              "name": "",
              "type": "bytes32"
            }
          ],
          "stateMutability": "view",
          "type": "function"
        },
        {
          "inputs": [],
          "name": "GENERIC_PARAMS",
          "outputs": [
            {
              "internalType": "string",
              "name": "",
              "type": "string"
            }
          ],
          "stateMutability": "view",
          "type": "function"
        },
        {
          "inputs": [],
          "name": "RELAYDATA_TYPE",
          "outputs": [
            {
              "internalType": "bytes",
              "name": "",
              "type": "bytes"
            }
          ],
          "stateMutability": "view",
          "type": "function"
        },
        {
          "inputs": [],
          "name": "RELAYDATA_TYPEHASH",
          "outputs": [
            {
              "internalType": "bytes32",
              "name": "",
              "type": "bytes32"
            }
          ],
          "stateMutability": "view",
          "type": "function"
        },
        {
          "inputs": [],
          "name": "RELAY_REQUEST_NAME",
          "outputs": [
            {
              "internalType": "string",
              "name": "",
              "type": "string"
            }
          ],
          "stateMutability": "view",
          "type": "function"
        },
        {
          "inputs": [],
          "name": "RELAY_REQUEST_SUFFIX",
          "outputs": [
            {
              "internalType": "string",
              "name": "",
              "type": "string"
            }
          ],
          "stateMutability": "view",
          "type": "function"
        },
        {
          "inputs": [],
          "name": "RELAY_REQUEST_TYPE",
          "outputs": [
            {
              "internalType": "bytes",
              "name": "",
              "type": "bytes"
            }
          ],
          "stateMutability": "view",
          "type": "function"
        },
        {
          "inputs": [],
          "name": "RELAY_REQUEST_TYPEHASH",
          "outputs": [
            {
              "internalType": "bytes32",
              "name": "",
              "type": "bytes32"
            }
          ],
          "stateMutability": "view",
          "type": "function"
        }
      ],
      "devdoc": {
        "kind": "dev",
        "methods": {},
        "version": 1
      },
      "evm": {
        "bytecode": {
          "linkReferences": {},
          "object": "610812610026600b82828239805160001a60731461001957fe5b30600052607381538281f3fe73000000000000000000000000000000000000000030146080604052600436106100925760003560e01c8063abf0d3f411610065578063abf0d3f41461010f578063c46cf83f1461012d578063c49f91d31461014b578063cc0c62b21461016957610092565b8063066a310c146100975780636225e61b146100b5578063931cd38f146100d3578063987673f7146100f1575b600080fd5b61009f610187565b6040516100ac9190610620565b60405180910390f35b6100bd6101a3565b6040516100ca91906105fe565b60405180910390f35b6100db61024e565b6040516100e89190610620565b60405180910390f35b6100f9610289565b6040516101069190610620565b60405180910390f35b6101176102c2565b60405161012491906105e3565b60405180910390f35b610135610374565b60405161014291906105fe565b60405180910390f35b610153610390565b60405161016091906105e3565b60405180910390f35b6101716103b4565b60405161017e91906105e3565b60405180910390f35b6040518060800160405280605d81526020016106df605d913981565b6040518060400160405280600c81526020017f52656c61795265717565737400000000000000000000000000000000000000008152506040518060800160405280605d81526020016106df605d91396040518060e0016040528060a1815260200161073c60a1913960405160200161021b91906105c1565b60405160208183030381529060405260405160200161023c9392919061057a565b60405160208183030381529060405281565b6040518060e0016040528060a1815260200161073c60a1913960405160200161027791906105c1565b60405160208183030381529060405281565b6040518060400160405280600c81526020017f52656c617952657175657374000000000000000000000000000000000000000081525081565b6040518060400160405280600c81526020017f52656c61795265717565737400000000000000000000000000000000000000008152506040518060800160405280605d81526020016106df605d91396040518060e0016040528060a1815260200161073c60a1913960405160200161033a91906105c1565b60405160208183030381529060405260405160200161035b9392919061057a565b6040516020818303038152906040528051906020012081565b6040518060e0016040528060a1815260200161073c60a1913981565b7f8b73c3c69bb8fe3d512ecc4cf759cc79239f7b179b0ffacaa9a75d522b39400f81565b6040518060e0016040528060a1815260200161073c60a191398051906020012081565b6103e081610690565b82525050565b60006103f182610642565b6103fb8185610658565b935061040b81856020860161069a565b610414816106cd565b840191505092915050565b600061042a82610642565b6104348185610669565b935061044481856020860161069a565b80840191505092915050565b600061045b8261064d565b6104658185610674565b935061047581856020860161069a565b61047e816106cd565b840191505092915050565b60006104948261064d565b61049e8185610685565b93506104ae81856020860161069a565b80840191505092915050565b60006104c7600183610685565b91507f2c000000000000000000000000000000000000000000000000000000000000006000830152600182019050919050565b6000610507601483610685565b91507f52656c6179446174612072656c617944617461290000000000000000000000006000830152601482019050919050565b6000610547600183610685565b91507f28000000000000000000000000000000000000000000000000000000000000006000830152600182019050919050565b60006105868286610489565b91506105918261053a565b915061059d8285610489565b91506105a8826104ba565b91506105b48284610489565b9150819050949350505050565b60006105cc826104fa565b91506105d8828461041f565b915081905092915050565b60006020820190506105f860008301846103d7565b92915050565b6000602082019050818103600083015261061881846103e6565b905092915050565b6000602082019050818103600083015261063a8184610450565b905092915050565b600081519050919050565b600081519050919050565b600082825260208201905092915050565b600081905092915050565b600082825260208201905092915050565b600081905092915050565b6000819050919050565b60005b838110156106b857808201518184015260208101905061069d565b838111156106c7576000848401525b50505050565b6000601f19601f830116905091905056fe616464726573732066726f6d2c6164647265737320746f2c75696e743235362076616c75652c75696e74323536206761732c75696e74323536206e6f6e63652c627974657320646174612c75696e743235362076616c6964556e74696c52656c6179446174612875696e743235362067617350726963652c75696e743235362070637452656c61794665652c75696e74323536206261736552656c61794665652c616464726573732072656c6179576f726b65722c61646472657373207061796d61737465722c6164647265737320666f727761726465722c6279746573207061796d6173746572446174612c75696e7432353620636c69656e74496429a2646970667358221220075ddb6ec85b7506da03c3f49a8715c5ec1fe7a9fb924763a076072e988d065a64736f6c63430007060033",
          "opcodes": "PUSH2 0x812 PUSH2 0x26 PUSH1 0xB DUP3 DUP3 DUP3 CODECOPY DUP1 MLOAD PUSH1 0x0 BYTE PUSH1 0x73 EQ PUSH2 0x19 JUMPI INVALID JUMPDEST ADDRESS PUSH1 0x0 MSTORE PUSH1 0x73 DUP2 MSTORE8 DUP3 DUP2 RETURN INVALID PUSH20 0x0 ADDRESS EQ PUSH1 0x80 PUSH1 0x40 MSTORE PUSH1 0x4 CALLDATASIZE LT PUSH2 0x92 JUMPI PUSH1 0x0 CALLDATALOAD PUSH1 0xE0 SHR DUP1 PUSH4 0xABF0D3F4 GT PUSH2 0x65 JUMPI DUP1 PUSH4 0xABF0D3F4 EQ PUSH2 0x10F JUMPI DUP1 PUSH4 0xC46CF83F EQ PUSH2 0x12D JUMPI DUP1 PUSH4 0xC49F91D3 EQ PUSH2 0x14B JUMPI DUP1 PUSH4 0xCC0C62B2 EQ PUSH2 0x169 JUMPI PUSH2 0x92 JUMP JUMPDEST DUP1 PUSH4 0x66A310C EQ PUSH2 0x97 JUMPI DUP1 PUSH4 0x6225E61B EQ PUSH2 0xB5 JUMPI DUP1 PUSH4 0x931CD38F EQ PUSH2 0xD3 JUMPI DUP1 PUSH4 0x987673F7 EQ PUSH2 0xF1 JUMPI JUMPDEST PUSH1 0x0 DUP1 REVERT JUMPDEST PUSH2 0x9F PUSH2 0x187 JUMP JUMPDEST PUSH1 0x40 MLOAD PUSH2 0xAC SWAP2 SWAP1 PUSH2 0x620 JUMP JUMPDEST PUSH1 0x40 MLOAD DUP1 SWAP2 SUB SWAP1 RETURN JUMPDEST PUSH2 0xBD PUSH2 0x1A3 JUMP JUMPDEST PUSH1 0x40 MLOAD PUSH2 0xCA SWAP2 SWAP1 PUSH2 0x5FE JUMP JUMPDEST PUSH1 0x40 MLOAD DUP1 SWAP2 SUB SWAP1 RETURN JUMPDEST PUSH2 0xDB PUSH2 0x24E JUMP JUMPDEST PUSH1 0x40 MLOAD PUSH2 0xE8 SWAP2 SWAP1 PUSH2 0x620 JUMP JUMPDEST PUSH1 0x40 MLOAD DUP1 SWAP2 SUB SWAP1 RETURN JUMPDEST PUSH2 0xF9 PUSH2 0x289 JUMP JUMPDEST PUSH1 0x40 MLOAD PUSH2 0x106 SWAP2 SWAP1 PUSH2 0x620 JUMP JUMPDEST PUSH1 0x40 MLOAD DUP1 SWAP2 SUB SWAP1 RETURN JUMPDEST PUSH2 0x117 PUSH2 0x2C2 JUMP JUMPDEST PUSH1 0x40 MLOAD PUSH2 0x124 SWAP2 SWAP1 PUSH2 0x5E3 JUMP JUMPDEST PUSH1 0x40 MLOAD DUP1 SWAP2 SUB SWAP1 RETURN JUMPDEST PUSH2 0x135 PUSH2 0x374 JUMP JUMPDEST PUSH1 0x40 MLOAD PUSH2 0x142 SWAP2 SWAP1 PUSH2 0x5FE JUMP JUMPDEST PUSH1 0x40 MLOAD DUP1 SWAP2 SUB SWAP1 RETURN JUMPDEST PUSH2 0x153 PUSH2 0x390 JUMP JUMPDEST PUSH1 0x40 MLOAD PUSH2 0x160 SWAP2 SWAP1 PUSH2 0x5E3 JUMP JUMPDEST PUSH1 0x40 MLOAD DUP1 SWAP2 SUB SWAP1 RETURN JUMPDEST PUSH2 0x171 PUSH2 0x3B4 JUMP JUMPDEST PUSH1 0x40 MLOAD PUSH2 0x17E SWAP2 SWAP1 PUSH2 0x5E3 JUMP JUMPDEST PUSH1 0x40 MLOAD DUP1 SWAP2 SUB SWAP1 RETURN JUMPDEST PUSH1 0x40 MLOAD DUP1 PUSH1 0x80 ADD PUSH1 0x40 MSTORE DUP1 PUSH1 0x5D DUP2 MSTORE PUSH1 0x20 ADD PUSH2 0x6DF PUSH1 0x5D SWAP2 CODECOPY DUP2 JUMP JUMPDEST PUSH1 0x40 MLOAD DUP1 PUSH1 0x40 ADD PUSH1 0x40 MSTORE DUP1 PUSH1 0xC DUP2 MSTORE PUSH1 0x20 ADD PUSH32 0x52656C6179526571756573740000000000000000000000000000000000000000 DUP2 MSTORE POP PUSH1 0x40 MLOAD DUP1 PUSH1 0x80 ADD PUSH1 0x40 MSTORE DUP1 PUSH1 0x5D DUP2 MSTORE PUSH1 0x20 ADD PUSH2 0x6DF PUSH1 0x5D SWAP2 CODECOPY PUSH1 0x40 MLOAD DUP1 PUSH1 0xE0 ADD PUSH1 0x40 MSTORE DUP1 PUSH1 0xA1 DUP2 MSTORE PUSH1 0x20 ADD PUSH2 0x73C PUSH1 0xA1 SWAP2 CODECOPY PUSH1 0x40 MLOAD PUSH1 0x20 ADD PUSH2 0x21B SWAP2 SWAP1 PUSH2 0x5C1 JUMP JUMPDEST PUSH1 0x40 MLOAD PUSH1 0x20 DUP2 DUP4 SUB SUB DUP2 MSTORE SWAP1 PUSH1 0x40 MSTORE PUSH1 0x40 MLOAD PUSH1 0x20 ADD PUSH2 0x23C SWAP4 SWAP3 SWAP2 SWAP1 PUSH2 0x57A JUMP JUMPDEST PUSH1 0x40 MLOAD PUSH1 0x20 DUP2 DUP4 SUB SUB DUP2 MSTORE SWAP1 PUSH1 0x40 MSTORE DUP2 JUMP JUMPDEST PUSH1 0x40 MLOAD DUP1 PUSH1 0xE0 ADD PUSH1 0x40 MSTORE DUP1 PUSH1 0xA1 DUP2 MSTORE PUSH1 0x20 ADD PUSH2 0x73C PUSH1 0xA1 SWAP2 CODECOPY PUSH1 0x40 MLOAD PUSH1 0x20 ADD PUSH2 0x277 SWAP2 SWAP1 PUSH2 0x5C1 JUMP JUMPDEST PUSH1 0x40 MLOAD PUSH1 0x20 DUP2 DUP4 SUB SUB DUP2 MSTORE SWAP1 PUSH1 0x40 MSTORE DUP2 JUMP JUMPDEST PUSH1 0x40 MLOAD DUP1 PUSH1 0x40 ADD PUSH1 0x40 MSTORE DUP1 PUSH1 0xC DUP2 MSTORE PUSH1 0x20 ADD PUSH32 0x52656C6179526571756573740000000000000000000000000000000000000000 DUP2 MSTORE POP DUP2 JUMP JUMPDEST PUSH1 0x40 MLOAD DUP1 PUSH1 0x40 ADD PUSH1 0x40 MSTORE DUP1 PUSH1 0xC DUP2 MSTORE PUSH1 0x20 ADD PUSH32 0x52656C6179526571756573740000000000000000000000000000000000000000 DUP2 MSTORE POP PUSH1 0x40 MLOAD DUP1 PUSH1 0x80 ADD PUSH1 0x40 MSTORE DUP1 PUSH1 0x5D DUP2 MSTORE PUSH1 0x20 ADD PUSH2 0x6DF PUSH1 0x5D SWAP2 CODECOPY PUSH1 0x40 MLOAD DUP1 PUSH1 0xE0 ADD PUSH1 0x40 MSTORE DUP1 PUSH1 0xA1 DUP2 MSTORE PUSH1 0x20 ADD PUSH2 0x73C PUSH1 0xA1 SWAP2 CODECOPY PUSH1 0x40 MLOAD PUSH1 0x20 ADD PUSH2 0x33A SWAP2 SWAP1 PUSH2 0x5C1 JUMP JUMPDEST PUSH1 0x40 MLOAD PUSH1 0x20 DUP2 DUP4 SUB SUB DUP2 MSTORE SWAP1 PUSH1 0x40 MSTORE PUSH1 0x40 MLOAD PUSH1 0x20 ADD PUSH2 0x35B SWAP4 SWAP3 SWAP2 SWAP1 PUSH2 0x57A JUMP JUMPDEST PUSH1 0x40 MLOAD PUSH1 0x20 DUP2 DUP4 SUB SUB DUP2 MSTORE SWAP1 PUSH1 0x40 MSTORE DUP1 MLOAD SWAP1 PUSH1 0x20 ADD KECCAK256 DUP2 JUMP JUMPDEST PUSH1 0x40 MLOAD DUP1 PUSH1 0xE0 ADD PUSH1 0x40 MSTORE DUP1 PUSH1 0xA1 DUP2 MSTORE PUSH1 0x20 ADD PUSH2 0x73C PUSH1 0xA1 SWAP2 CODECOPY DUP2 JUMP JUMPDEST PUSH32 0x8B73C3C69BB8FE3D512ECC4CF759CC79239F7B179B0FFACAA9A75D522B39400F DUP2 JUMP JUMPDEST PUSH1 0x40 MLOAD DUP1 PUSH1 0xE0 ADD PUSH1 0x40 MSTORE DUP1 PUSH1 0xA1 DUP2 MSTORE PUSH1 0x20 ADD PUSH2 0x73C PUSH1 0xA1 SWAP2 CODECOPY DUP1 MLOAD SWAP1 PUSH1 0x20 ADD KECCAK256 DUP2 JUMP JUMPDEST PUSH2 0x3E0 DUP2 PUSH2 0x690 JUMP JUMPDEST DUP3 MSTORE POP POP JUMP JUMPDEST PUSH1 0x0 PUSH2 0x3F1 DUP3 PUSH2 0x642 JUMP JUMPDEST PUSH2 0x3FB DUP2 DUP6 PUSH2 0x658 JUMP JUMPDEST SWAP4 POP PUSH2 0x40B DUP2 DUP6 PUSH1 0x20 DUP7 ADD PUSH2 0x69A JUMP JUMPDEST PUSH2 0x414 DUP2 PUSH2 0x6CD JUMP JUMPDEST DUP5 ADD SWAP2 POP POP SWAP3 SWAP2 POP POP JUMP JUMPDEST PUSH1 0x0 PUSH2 0x42A DUP3 PUSH2 0x642 JUMP JUMPDEST PUSH2 0x434 DUP2 DUP6 PUSH2 0x669 JUMP JUMPDEST SWAP4 POP PUSH2 0x444 DUP2 DUP6 PUSH1 0x20 DUP7 ADD PUSH2 0x69A JUMP JUMPDEST DUP1 DUP5 ADD SWAP2 POP POP SWAP3 SWAP2 POP POP JUMP JUMPDEST PUSH1 0x0 PUSH2 0x45B DUP3 PUSH2 0x64D JUMP JUMPDEST PUSH2 0x465 DUP2 DUP6 PUSH2 0x674 JUMP JUMPDEST SWAP4 POP PUSH2 0x475 DUP2 DUP6 PUSH1 0x20 DUP7 ADD PUSH2 0x69A JUMP JUMPDEST PUSH2 0x47E DUP2 PUSH2 0x6CD JUMP JUMPDEST DUP5 ADD SWAP2 POP POP SWAP3 SWAP2 POP POP JUMP JUMPDEST PUSH1 0x0 PUSH2 0x494 DUP3 PUSH2 0x64D JUMP JUMPDEST PUSH2 0x49E DUP2 DUP6 PUSH2 0x685 JUMP JUMPDEST SWAP4 POP PUSH2 0x4AE DUP2 DUP6 PUSH1 0x20 DUP7 ADD PUSH2 0x69A JUMP JUMPDEST DUP1 DUP5 ADD SWAP2 POP POP SWAP3 SWAP2 POP POP JUMP JUMPDEST PUSH1 0x0 PUSH2 0x4C7 PUSH1 0x1 DUP4 PUSH2 0x685 JUMP JUMPDEST SWAP2 POP PUSH32 0x2C00000000000000000000000000000000000000000000000000000000000000 PUSH1 0x0 DUP4 ADD MSTORE PUSH1 0x1 DUP3 ADD SWAP1 POP SWAP2 SWAP1 POP JUMP JUMPDEST PUSH1 0x0 PUSH2 0x507 PUSH1 0x14 DUP4 PUSH2 0x685 JUMP JUMPDEST SWAP2 POP PUSH32 0x52656C6179446174612072656C61794461746129000000000000000000000000 PUSH1 0x0 DUP4 ADD MSTORE PUSH1 0x14 DUP3 ADD SWAP1 POP SWAP2 SWAP1 POP JUMP JUMPDEST PUSH1 0x0 PUSH2 0x547 PUSH1 0x1 DUP4 PUSH2 0x685 JUMP JUMPDEST SWAP2 POP PUSH32 0x2800000000000000000000000000000000000000000000000000000000000000 PUSH1 0x0 DUP4 ADD MSTORE PUSH1 0x1 DUP3 ADD SWAP1 POP SWAP2 SWAP1 POP JUMP JUMPDEST PUSH1 0x0 PUSH2 0x586 DUP3 DUP7 PUSH2 0x489 JUMP JUMPDEST SWAP2 POP PUSH2 0x591 DUP3 PUSH2 0x53A JUMP JUMPDEST SWAP2 POP PUSH2 0x59D DUP3 DUP6 PUSH2 0x489 JUMP JUMPDEST SWAP2 POP PUSH2 0x5A8 DUP3 PUSH2 0x4BA JUMP JUMPDEST SWAP2 POP PUSH2 0x5B4 DUP3 DUP5 PUSH2 0x489 JUMP JUMPDEST SWAP2 POP DUP2 SWAP1 POP SWAP5 SWAP4 POP POP POP POP JUMP JUMPDEST PUSH1 0x0 PUSH2 0x5CC DUP3 PUSH2 0x4FA JUMP JUMPDEST SWAP2 POP PUSH2 0x5D8 DUP3 DUP5 PUSH2 0x41F JUMP JUMPDEST SWAP2 POP DUP2 SWAP1 POP SWAP3 SWAP2 POP POP JUMP JUMPDEST PUSH1 0x0 PUSH1 0x20 DUP3 ADD SWAP1 POP PUSH2 0x5F8 PUSH1 0x0 DUP4 ADD DUP5 PUSH2 0x3D7 JUMP JUMPDEST SWAP3 SWAP2 POP POP JUMP JUMPDEST PUSH1 0x0 PUSH1 0x20 DUP3 ADD SWAP1 POP DUP2 DUP2 SUB PUSH1 0x0 DUP4 ADD MSTORE PUSH2 0x618 DUP2 DUP5 PUSH2 0x3E6 JUMP JUMPDEST SWAP1 POP SWAP3 SWAP2 POP POP JUMP JUMPDEST PUSH1 0x0 PUSH1 0x20 DUP3 ADD SWAP1 POP DUP2 DUP2 SUB PUSH1 0x0 DUP4 ADD MSTORE PUSH2 0x63A DUP2 DUP5 PUSH2 0x450 JUMP JUMPDEST SWAP1 POP SWAP3 SWAP2 POP POP JUMP JUMPDEST PUSH1 0x0 DUP2 MLOAD SWAP1 POP SWAP2 SWAP1 POP JUMP JUMPDEST PUSH1 0x0 DUP2 MLOAD SWAP1 POP SWAP2 SWAP1 POP JUMP JUMPDEST PUSH1 0x0 DUP3 DUP3 MSTORE PUSH1 0x20 DUP3 ADD SWAP1 POP SWAP3 SWAP2 POP POP JUMP JUMPDEST PUSH1 0x0 DUP2 SWAP1 POP SWAP3 SWAP2 POP POP JUMP JUMPDEST PUSH1 0x0 DUP3 DUP3 MSTORE PUSH1 0x20 DUP3 ADD SWAP1 POP SWAP3 SWAP2 POP POP JUMP JUMPDEST PUSH1 0x0 DUP2 SWAP1 POP SWAP3 SWAP2 POP POP JUMP JUMPDEST PUSH1 0x0 DUP2 SWAP1 POP SWAP2 SWAP1 POP JUMP JUMPDEST PUSH1 0x0 JUMPDEST DUP4 DUP2 LT ISZERO PUSH2 0x6B8 JUMPI DUP1 DUP3 ADD MLOAD DUP2 DUP5 ADD MSTORE PUSH1 0x20 DUP2 ADD SWAP1 POP PUSH2 0x69D JUMP JUMPDEST DUP4 DUP2 GT ISZERO PUSH2 0x6C7 JUMPI PUSH1 0x0 DUP5 DUP5 ADD MSTORE JUMPDEST POP POP POP POP JUMP JUMPDEST PUSH1 0x0 PUSH1 0x1F NOT PUSH1 0x1F DUP4 ADD AND SWAP1 POP SWAP2 SWAP1 POP JUMP INVALID PUSH2 0x6464 PUSH19 0x6573732066726F6D2C6164647265737320746F 0x2C PUSH22 0x696E743235362076616C75652C75696E743235362067 PUSH2 0x732C PUSH22 0x696E74323536206E6F6E63652C627974657320646174 PUSH2 0x2C75 PUSH10 0x6E743235362076616C69 PUSH5 0x556E74696C MSTORE PUSH6 0x6C6179446174 PUSH2 0x2875 PUSH10 0x6E743235362067617350 PUSH19 0x6963652C75696E743235362070637452656C61 PUSH26 0x4665652C75696E74323536206261736552656C61794665652C61 PUSH5 0x6472657373 KECCAK256 PUSH19 0x656C6179576F726B65722C6164647265737320 PUSH17 0x61796D61737465722C6164647265737320 PUSH7 0x6F727761726465 PUSH19 0x2C6279746573207061796D6173746572446174 PUSH2 0x2C75 PUSH10 0x6E7432353620636C6965 PUSH15 0x74496429A264697066735822122007 0x5D 0xDB PUSH15 0xC85B7506DA03C3F49A8715C5EC1FE7 0xA9 0xFB SWAP3 SELFBALANCE PUSH4 0xA076072E SWAP9 DUP14 MOD GAS PUSH5 0x736F6C6343 STOP SMOD MOD STOP CALLER "
        },
        "gasEstimates": {
          "creation": {
            "codeDepositCost": "413200",
            "executionCost": "474",
            "totalCost": "413674"
          },
          "external": {
            "EIP712DOMAIN_TYPEHASH()": "357",
            "GENERIC_PARAMS()": "infinite",
            "RELAYDATA_TYPE()": "infinite",
            "RELAYDATA_TYPEHASH()": "infinite",
            "RELAY_REQUEST_NAME()": "infinite",
            "RELAY_REQUEST_SUFFIX()": "infinite",
            "RELAY_REQUEST_TYPE()": "infinite",
            "RELAY_REQUEST_TYPEHASH()": "infinite"
          },
          "internal": {
            "domainSeparator(address)": "infinite",
            "execute(struct GsnTypes.RelayRequest calldata,bytes calldata)": "infinite",
            "getChainID()": "infinite",
            "hashDomain(struct GsnEip712Library.EIP712Domain memory)": "infinite",
            "hashRelayData(struct GsnTypes.RelayData calldata)": "infinite",
            "splitRequest(struct GsnTypes.RelayRequest calldata)": "infinite",
            "truncateInPlace(bytes memory)": "infinite",
            "verify(struct GsnTypes.RelayRequest calldata,bytes calldata)": "infinite",
            "verifyForwarderTrusted(struct GsnTypes.RelayRequest calldata)": "infinite",
            "verifySignature(struct GsnTypes.RelayRequest calldata,bytes calldata)": "infinite"
          }
        },
        "methodIdentifiers": {
          "EIP712DOMAIN_TYPEHASH()": "c49f91d3",
          "GENERIC_PARAMS()": "066a310c",
          "RELAYDATA_TYPE()": "c46cf83f",
          "RELAYDATA_TYPEHASH()": "cc0c62b2",
          "RELAY_REQUEST_NAME()": "987673f7",
          "RELAY_REQUEST_SUFFIX()": "931cd38f",
          "RELAY_REQUEST_TYPE()": "6225e61b",
          "RELAY_REQUEST_TYPEHASH()": "abf0d3f4"
        }
      },
      "storageLayout": {
        "storage": [],
        "types": null
      },
      "userdoc": {
        "kind": "user",
        "methods": {},
        "notice": "Bridge Library to map GSN RelayRequest into a call of a Forwarder",
        "version": 1
      }
    }
  }
}