{
	"data": {
		"bytecode": {
			"linkReferences": {},
			"object": "60806040523480156200001157600080fd5b5060405162002b4b38038062002b4b83398181016040528101906200003791906200014f565b6000620000496200013060201b60201c565b9050806000806101000a81548173ffffffffffffffffffffffffffffffffffffffff021916908373ffffffffffffffffffffffffffffffffffffffff1602179055508073ffffffffffffffffffffffffffffffffffffffff16600073ffffffffffffffffffffffffffffffffffffffff167f8be0079c531659141344cd1fd0a4f28419497f9722a3daafe3b4186f6b6457e060405160405180910390a35080600360006101000a81548173ffffffffffffffffffffffffffffffffffffffff021916908373ffffffffffffffffffffffffffffffffffffffff1602179055505050620001de565b600033905090565b6000815190506200014981620001c4565b92915050565b600080604083850312156200016357600080fd5b6000620001738582860162000138565b9250506020620001868582860162000138565b9150509250929050565b60006200019d82620001a4565b9050919050565b600073ffffffffffffffffffffffffffffffffffffffff82169050919050565b620001cf8162000190565b8114620001db57600080fd5b50565b61295d80620001ee6000396000f3fe60806040526004361061014f5760003560e01c80639e281a98116100b6578063df463a661161006f578063df463a661461055f578063e3712d661461058a578063e5c12446146105c7578063ecd0c0c314610605578063f2fde38b14610630578063f9c002f71461065957610276565b80639e281a98146104635780639ea092111461048c578063ad12e50e146104b5578063b90b41cf146104e0578063bbdaa3c91461050b578063da7422281461053657610276565b80637bb05264116101085780637bb05264146103655780637da0a8771461038e57806382b2e257146103b95780638da5cb5b146103e45780638e9483b01461040f578063921276ea1461043857610276565b80632afe31c11461027b5780632d14c4b7146102a65780635ea54eee146102cf5780636d7c3e2b146102fa578063715018a61461032357806374e861d61461033a57610276565b3661027657600073ffffffffffffffffffffffffffffffffffffffff16600160009054906101000a900473ffffffffffffffffffffffffffffffffffffffff1673ffffffffffffffffffffffffffffffffffffffff1614156101e6576040517f08c379a00000000000000000000000000000000000000000000000000000000081526004016101dd906123ea565b60405180910390fd5b600160009054906101000a900473ffffffffffffffffffffffffffffffffffffffff1673ffffffffffffffffffffffffffffffffffffffff1663aa67c91934306040518363ffffffff1660e01b8152600401610242919061224f565b6000604051808303818588803b15801561025b57600080fd5b505af115801561026f573d6000803e3d6000fd5b5050505050005b600080fd5b34801561028757600080fd5b50610290610684565b60405161029d9190612515565b60405180910390f35b3480156102b257600080fd5b506102cd60048036038101906102c89190611b4a565b610736565b005b3480156102db57600080fd5b506102e4610844565b6040516102f191906124aa565b60405180910390f35b34801561030657600080fd5b50610321600480360381019061031c9190611af8565b610879565b005b34801561032f57600080fd5b506103386108ff565b005b34801561034657600080fd5b5061034f610a39565b60405161035c9190612234565b60405180910390f35b34801561037157600080fd5b5061038c600480360381019061038791906119db565b610a63565b005b34801561039a57600080fd5b506103a3610b23565b6040516103b0919061234d565b60405180910390f35b3480156103c557600080fd5b506103ce610b49565b6040516103db9190612515565b60405180910390f35b3480156103f057600080fd5b506103f9610bfb565b6040516104069190612234565b60405180910390f35b34801561041b57600080fd5b506104366004803603810190610431919061191a565b610c24565b005b34801561044457600080fd5b5061044d610cf3565b60405161045a9190612368565b60405180910390f35b34801561046f57600080fd5b5061048a600480360381019061048591906118b5565b610d30565b005b34801561049857600080fd5b506104b360048036038101906104ae9190611a04565b610f53565b005b3480156104c157600080fd5b506104ca611010565b6040516104d79190612515565b60405180910390f35b3480156104ec57600080fd5b506104f5611016565b6040516105029190612515565b60405180910390f35b34801561051757600080fd5b5061052061101c565b60405161052d9190612515565b60405180910390f35b34801561054257600080fd5b5061055d600480360381019061055891906119b2565b611023565b005b34801561056b57600080fd5b506105746110e3565b6040516105819190612515565b60405180910390f35b34801561059657600080fd5b506105b160048036038101906105ac9190611a04565b6110ee565b6040516105be9190612234565b60405180910390f35b3480156105d357600080fd5b506105ee60048036038101906105e99190611a45565b611119565b6040516105fc929190612302565b60405180910390f35b34801561061157600080fd5b5061061a6112b0565b6040516106279190612332565b60405180910390f35b34801561063c57600080fd5b5061065760048036038101906106529190611803565b6112d6565b005b34801561066557600080fd5b5061066e61147f565b60405161067b9190612515565b60405180910390f35b6000600160009054906101000a900473ffffffffffffffffffffffffffffffffffffffff1673ffffffffffffffffffffffffffffffffffffffff166370a08231306040518263ffffffff1660e01b81526004016106e1919061224f565b60206040518083038186803b1580156106f957600080fd5b505afa15801561070d573d6000803e3d6000fd5b505050506040513d601f19601f820116820180604052508101906107319190611b21565b905090565b61073e611486565b73ffffffffffffffffffffffffffffffffffffffff1661075c610bfb565b73ffffffffffffffffffffffffffffffffffffffff16146107b2576040517f08c379a00000000000000000000000000000000000000000000000000000000081526004016107a99061248a565b60405180910390fd5b600160009054906101000a900473ffffffffffffffffffffffffffffffffffffffff1673ffffffffffffffffffffffffffffffffffffffff1662f714ce83836040518363ffffffff1660e01b815260040161080e929190612530565b600060405180830381600087803b15801561082857600080fd5b505af115801561083c573d6000803e3d6000fd5b505050505050565b61084c61168f565b604051806060016040528061c350620186a0018152602001620186a081526020016201adb0815250905090565b610881611486565b73ffffffffffffffffffffffffffffffffffffffff1661089f610bfb565b73ffffffffffffffffffffffffffffffffffffffff16146108f5576040517f08c379a00000000000000000000000000000000000000000000000000000000081526004016108ec9061248a565b60405180910390fd5b8060048190555050565b610907611486565b73ffffffffffffffffffffffffffffffffffffffff16610925610bfb565b73ffffffffffffffffffffffffffffffffffffffff161461097b576040517f08c379a00000000000000000000000000000000000000000000000000000000081526004016109729061248a565b60405180910390fd5b600073ffffffffffffffffffffffffffffffffffffffff1660008054906101000a900473ffffffffffffffffffffffffffffffffffffffff1673ffffffffffffffffffffffffffffffffffffffff167f8be0079c531659141344cd1fd0a4f28419497f9722a3daafe3b4186f6b6457e060405160405180910390a360008060006101000a81548173ffffffffffffffffffffffffffffffffffffffff021916908373ffffffffffffffffffffffffffffffffffffffff160217905550565b6000600160009054906101000a900473ffffffffffffffffffffffffffffffffffffffff16905090565b610a6b611486565b73ffffffffffffffffffffffffffffffffffffffff16610a89610bfb565b73ffffffffffffffffffffffffffffffffffffffff1614610adf576040517f08c379a0000000000000000000000000000000000000000000000000000000008152600401610ad69061248a565b60405180910390fd5b80600160006101000a81548173ffffffffffffffffffffffffffffffffffffffff021916908373ffffffffffffffffffffffffffffffffffffffff16021790555050565b600260009054906101000a900473ffffffffffffffffffffffffffffffffffffffff1681565b6000600360009054906101000a900473ffffffffffffffffffffffffffffffffffffffff1673ffffffffffffffffffffffffffffffffffffffff166370a08231306040518263ffffffff1660e01b8152600401610ba6919061224f565b60206040518083038186803b158015610bbe57600080fd5b505afa158015610bd2573d6000803e3d6000fd5b505050506040513d601f19601f82011682018060405250810190610bf69190611b21565b905090565b60008060009054906101000a900473ffffffffffffffffffffffffffffffffffffffff16905090565b610c2c610a39565b73ffffffffffffffffffffffffffffffffffffffff163373ffffffffffffffffffffffffffffffffffffffff1614610c99576040517f08c379a0000000000000000000000000000000000000000000000000000000008152600401610c909061246a565b60405180910390fd5b60006313de4355905060006304a2cb7190507fb3d69ff8981e297b4ab7fb9ba8e8a080ffebbee9f273bfa2d10116a823683045846004548484604051610ce29493929190612559565b60405180910390a150505050505050565b60606040518060400160405280600581526020017f322e302e31000000000000000000000000000000000000000000000000000000815250905090565b610d38611486565b73ffffffffffffffffffffffffffffffffffffffff16610d56610bfb565b73ffffffffffffffffffffffffffffffffffffffff1614610dac576040517f08c379a0000000000000000000000000000000000000000000000000000000008152600401610da39061248a565b60405180910390fd5b6000600360009054906101000a900473ffffffffffffffffffffffffffffffffffffffff1673ffffffffffffffffffffffffffffffffffffffff166370a08231306040518263ffffffff1660e01b8152600401610e09919061224f565b60206040518083038186803b158015610e2157600080fd5b505afa158015610e35573d6000803e3d6000fd5b505050506040513d601f19601f82011682018060405250810190610e599190611b21565b905080821115610e9e576040517f08c379a0000000000000000000000000000000000000000000000000000000008152600401610e95906123ca565b60405180910390fd5b600360009054906101000a900473ffffffffffffffffffffffffffffffffffffffff1673ffffffffffffffffffffffffffffffffffffffff1663a9059cbb84846040518363ffffffff1660e01b8152600401610efb9291906122d9565b602060405180830381600087803b158015610f1557600080fd5b505af1158015610f29573d6000803e3d6000fd5b505050506040513d601f19601f82011682018060405250810190610f4d91906118f1565b50505050565b808060200190610f6391906125c2565b60e0016020810190610f759190611803565b73ffffffffffffffffffffffffffffffffffffffff16600260009054906101000a900473ffffffffffffffffffffffffffffffffffffffff1673ffffffffffffffffffffffffffffffffffffffff1614611004576040517f08c379a0000000000000000000000000000000000000000000000000000000008152600401610ffb9061240a565b60405180910390fd5b61100d8161148e565b50565b60045481565b61c35081565b6201adb081565b61102b611486565b73ffffffffffffffffffffffffffffffffffffffff16611049610bfb565b73ffffffffffffffffffffffffffffffffffffffff161461109f576040517f08c379a00000000000000000000000000000000000000000000000000000000081526004016110969061248a565b60405180910390fd5b80600260006101000a81548173ffffffffffffffffffffffffffffffffffffffff021916908373ffffffffffffffffffffffffffffffffffffffff16021790555050565b61c350620186a00181565b6000818060000190611100919061259e565b60000160208101906111129190611803565b9050919050565b60606000611125610a39565b73ffffffffffffffffffffffffffffffffffffffff163373ffffffffffffffffffffffffffffffffffffffff1614611192576040517f08c379a00000000000000000000000000000000000000000000000000000000081526004016111899061246a565b60405180910390fd5b6000806000806000808a8a8101906111aa919061182c565b955095509550955095509550600360009054906101000a900473ffffffffffffffffffffffffffffffffffffffff1673ffffffffffffffffffffffffffffffffffffffff1663d505accf87600160009054906101000a900473ffffffffffffffffffffffffffffffffffffffff1688888888886040518863ffffffff1660e01b815260040161123f979695949392919061226a565b600060405180830381600087803b15801561125957600080fd5b505af115801561126d573d6000803e3d6000fd5b505050508d8d8d8d8d60405160200161128a9594939291906124c5565b604051602081830303815290604052600097509750505050505050965096945050505050565b600360009054906101000a900473ffffffffffffffffffffffffffffffffffffffff1681565b6112de611486565b73ffffffffffffffffffffffffffffffffffffffff166112fc610bfb565b73ffffffffffffffffffffffffffffffffffffffff1614611352576040517f08c379a00000000000000000000000000000000000000000000000000000000081526004016113499061248a565b60405180910390fd5b600073ffffffffffffffffffffffffffffffffffffffff168173ffffffffffffffffffffffffffffffffffffffff1614156113c2576040517f08c379a00000000000000000000000000000000000000000000000000000000081526004016113b9906123aa565b60405180910390fd5b8073ffffffffffffffffffffffffffffffffffffffff1660008054906101000a900473ffffffffffffffffffffffffffffffffffffffff1673ffffffffffffffffffffffffffffffffffffffff167f8be0079c531659141344cd1fd0a4f28419497f9722a3daafe3b4186f6b6457e060405160405180910390a3806000806101000a81548173ffffffffffffffffffffffffffffffffffffffff021916908373ffffffffffffffffffffffffffffffffffffffff16021790555050565b620186a081565b600033905090565b600060608280600001906114a2919061259e565b60200160208101906114b49190611803565b73ffffffffffffffffffffffffffffffffffffffff1663572b6c0560e01b8480602001906114e291906125c2565b60e00160208101906114f49190611803565b6040516024016115049190612234565b604051602081830303815290604052907bffffffffffffffffffffffffffffffffffffffffffffffffffffffff19166020820180517bffffffffffffffffffffffffffffffffffffffffffffffffffffffff838183161783525050505060405161156e919061221d565b600060405180830381855afa9150503d80600081146115a9576040519150601f19603f3d011682016040523d82523d6000602084013e6115ae565b606091505b5091509150816115f3576040517f08c379a00000000000000000000000000000000000000000000000000000000081526004016115ea9061244a565b60405180910390fd5b6020815114611637576040517f08c379a000000000000000000000000000000000000000000000000000000000815260040161162e9061242a565b60405180910390fd5b8080602001905181019061164b91906118f1565b61168a576040517f08c379a00000000000000000000000000000000000000000000000000000000081526004016116819061238a565b60405180910390fd5b505050565b60405180606001604052806000815260200160008152602001600081525090565b6000813590506116bf8161286f565b92915050565b6000813590506116d481612886565b92915050565b6000813590506116e98161289d565b92915050565b6000815190506116fe8161289d565b92915050565b600081359050611713816128b4565b92915050565b60008083601f84011261172b57600080fd5b8235905067ffffffffffffffff81111561174457600080fd5b60208301915083600182028301111561175c57600080fd5b9250929050565b600081359050611772816128cb565b92915050565b600081359050611787816128e2565b92915050565b600061010082840312156117a057600080fd5b81905092915050565b6000604082840312156117bb57600080fd5b81905092915050565b6000813590506117d3816128f9565b92915050565b6000815190506117e8816128f9565b92915050565b6000813590506117fd81612910565b92915050565b60006020828403121561181557600080fd5b6000611823848285016116b0565b91505092915050565b60008060008060008060c0878903121561184557600080fd5b600061185389828a016116c5565b965050602061186489828a016117c4565b955050604061187589828a016117c4565b945050606061188689828a016117ee565b935050608061189789828a01611704565b92505060a06118a889828a01611704565b9150509295509295509295565b600080604083850312156118c857600080fd5b60006118d6858286016116b0565b92505060206118e7858286016117c4565b9150509250929050565b60006020828403121561190357600080fd5b6000611911848285016116ef565b91505092915050565b60008060008060006080868803121561193257600080fd5b600086013567ffffffffffffffff81111561194c57600080fd5b61195888828901611719565b9550955050602061196b888289016116da565b935050604061197c888289016117c4565b925050606086013567ffffffffffffffff81111561199957600080fd5b6119a58882890161178d565b9150509295509295909350565b6000602082840312156119c457600080fd5b60006119d284828501611763565b91505092915050565b6000602082840312156119ed57600080fd5b60006119fb84828501611778565b91505092915050565b600060208284031215611a1657600080fd5b600082013567ffffffffffffffff811115611a3057600080fd5b611a3c848285016117a9565b91505092915050565b60008060008060008060808789031215611a5e57600080fd5b600087013567ffffffffffffffff811115611a7857600080fd5b611a8489828a016117a9565b965050602087013567ffffffffffffffff811115611aa157600080fd5b611aad89828a01611719565b9550955050604087013567ffffffffffffffff811115611acc57600080fd5b611ad889828a01611719565b93509350506060611aeb89828a016117c4565b9150509295509295509295565b600060208284031215611b0a57600080fd5b6000611b18848285016117c4565b91505092915050565b600060208284031215611b3357600080fd5b6000611b41848285016117d9565b91505092915050565b60008060408385031215611b5d57600080fd5b6000611b6b858286016117c4565b9250506020611b7c858286016116c5565b9150509250929050565b611b8f8161279e565b82525050565b611b9e8161271b565b82525050565b611bad81612709565b82525050565b611bbc81612709565b82525050565b611bcb8161272d565b82525050565b611bda81612739565b82525050565b6000611bec83856125fd565b9350611bf983858461281c565b611c028361285e565b840190509392505050565b6000611c19838561260e565b9350611c2683858461281c565b611c2f8361285e565b840190509392505050565b6000611c45826125e7565b611c4f818561260e565b9350611c5f81856020860161282b565b611c688161285e565b840191505092915050565b6000611c7e826125e7565b611c88818561261f565b9350611c9881856020860161282b565b80840191505092915050565b611cad816127b0565b82525050565b611cbc816127d4565b82525050565b6000611ccd826125f2565b611cd7818561262a565b9350611ce781856020860161282b565b611cf08161285e565b840191505092915050565b6000611d08601f8361262a565b91507f696e76616c696420666f7277617264657220666f7220726563697069656e74006000830152602082019050919050565b6000611d4860268361262a565b91507f4f776e61626c653a206e6577206f776e657220697320746865207a65726f206160008301527f64647265737300000000000000000000000000000000000000000000000000006020830152604082019050919050565b6000611dae601e8361262a565b91507f546f6b656e5061796d61737465722f42616c616e636520746f206c6f772e00006000830152602082019050919050565b6000611dee60198361262a565b91507f72656c6179206875622061646472657373206e6f7420736574000000000000006000830152602082019050919050565b6000611e2e60188361262a565b91507f466f72776172646572206973206e6f74207472757374656400000000000000006000830152602082019050919050565b6000611e6e602c8361262a565b91507f697354727573746564466f727761726465722072657475726e656420696e766160008301527f6c696420726573706f6e736500000000000000000000000000000000000000006020830152604082019050919050565b6000611ed4601b8361262a565b91507f697354727573746564466f7277617264657220726576657274656400000000006000830152602082019050919050565b6000611f1460278361262a565b91507f46756e6374696f6e2063616e206f6e6c792062652063616c6c6564206279205260008301527f656c6179487562000000000000000000000000000000000000000000000000006020830152604082019050919050565b6000611f7a60208361262a565b91507f4f776e61626c653a2063616c6c6572206973206e6f7420746865206f776e65726000830152602082019050919050565b600060c08301611fc0600084018461263b565b611fcd6000860182611ba4565b50611fdb602084018461263b565b611fe86020860182611ba4565b50611ff660408401846126f2565b61200360408601826121f0565b5061201160608401846126f2565b61201e60608601826121f0565b5061202c60808401846126f2565b61203960808601826121f0565b5061204760a0840184612652565b85830360a087015261205a838284611be0565b925050508091505092915050565b60608201600082015161207e60008501826121f0565b50602082015161209160208501826121f0565b5060408201516120a460408501826121f0565b50505050565b600061010083016120be60008401846126f2565b6120cb60008601826121f0565b506120d960208401846126f2565b6120e660208601826121f0565b506120f460408401846126f2565b61210160408601826121f0565b5061210f606084018461263b565b61211c6060860182611ba4565b5061212a608084018461263b565b6121376080860182611ba4565b5061214560a0840184612652565b85830360a0870152612158838284611be0565b9250505061216960c08401846126f2565b61217660c08601826121f0565b5061218460e084018461263b565b61219160e0860182611ba4565b508091505092915050565b6000604083016121af60008401846126a9565b84820360008601526121c18282611fad565b9150506121d160208401846126cd565b84820360208601526121e382826120aa565b9150508091505092915050565b6121f981612787565b82525050565b61220881612787565b82525050565b61221781612791565b82525050565b60006122298284611c73565b915081905092915050565b60006020820190506122496000830184611bb3565b92915050565b60006020820190506122646000830184611b86565b92915050565b600060e08201905061227f600083018a611bb3565b61228c6020830189611bb3565b61229960408301886121ff565b6122a660608301876121ff565b6122b3608083018661220e565b6122c060a0830185611bd1565b6122cd60c0830184611bd1565b98975050505050505050565b60006040820190506122ee6000830185611bb3565b6122fb60208301846121ff565b9392505050565b6000604082019050818103600083015261231c8185611c3a565b905061232b6020830184611bc2565b9392505050565b60006020820190506123476000830184611ca4565b92915050565b60006020820190506123626000830184611cb3565b92915050565b600060208201905081810360008301526123828184611cc2565b905092915050565b600060208201905081810360008301526123a381611cfb565b9050919050565b600060208201905081810360008301526123c381611d3b565b9050919050565b600060208201905081810360008301526123e381611da1565b9050919050565b6000602082019050818103600083015261240381611de1565b9050919050565b6000602082019050818103600083015261242381611e21565b9050919050565b6000602082019050818103600083015261244381611e61565b9050919050565b6000602082019050818103600083015261246381611ec7565b9050919050565b6000602082019050818103600083015261248381611f07565b9050919050565b600060208201905081810360008301526124a381611f6d565b9050919050565b60006060820190506124bf6000830184612068565b92915050565b600060608201905081810360008301526124df818861219c565b905081810360208301526124f4818688611c0d565b90508181036040830152612509818486611c0d565b90509695505050505050565b600060208201905061252a60008301846121ff565b92915050565b600060408201905061254560008301856121ff565b6125526020830184611b95565b9392505050565b600060808201905061256e60008301876121ff565b61257b60208301866121ff565b61258860408301856121ff565b61259560608301846121ff565b95945050505050565b60008235600160c0038336030381126125b657600080fd5b80830191505092915050565b600082356001610100038336030381126125db57600080fd5b80830191505092915050565b600081519050919050565b600081519050919050565b600082825260208201905092915050565b600082825260208201905092915050565b600081905092915050565b600082825260208201905092915050565b600061264a60208401846116b0565b905092915050565b6000808335600160200384360303811261266b57600080fd5b83810192508235915060208301925067ffffffffffffffff82111561268f57600080fd5b6001820236038413156126a157600080fd5b509250929050565b60008235600160c0038336030381126126c157600080fd5b82810191505092915050565b600082356001610100038336030381126126e657600080fd5b82810191505092915050565b600061270160208401846117c4565b905092915050565b600061271482612767565b9050919050565b600061272682612767565b9050919050565b60008115159050919050565b6000819050919050565b600061274e82612709565b9050919050565b600061276082612709565b9050919050565b600073ffffffffffffffffffffffffffffffffffffffff82169050919050565b6000819050919050565b600060ff82169050919050565b60006127a9826127f8565b9050919050565b60006127bb826127c2565b9050919050565b60006127cd82612767565b9050919050565b60006127df826127e6565b9050919050565b60006127f182612767565b9050919050565b60006128038261280a565b9050919050565b600061281582612767565b9050919050565b82818337600083830152505050565b60005b8381101561284957808201518184015260208101905061282e565b83811115612858576000848401525b50505050565b6000601f19601f8301169050919050565b61287881612709565b811461288357600080fd5b50565b61288f8161271b565b811461289a57600080fd5b50565b6128a68161272d565b81146128b157600080fd5b50565b6128bd81612739565b81146128c857600080fd5b50565b6128d481612743565b81146128df57600080fd5b50565b6128eb81612755565b81146128f657600080fd5b50565b61290281612787565b811461290d57600080fd5b50565b61291981612791565b811461292457600080fd5b5056fea2646970667358221220970535f19c47f3008ed2f7707a0399b8f9cc200a37531ee9c12d1f9143b53ae764736f6c634300060c0033",
			"opcodes": "PUSH1 0x80 PUSH1 0x40 MSTORE CALLVALUE DUP1 ISZERO PUSH3 0x11 JUMPI PUSH1 0x0 DUP1 REVERT JUMPDEST POP PUSH1 0x40 MLOAD PUSH3 0x2B4B CODESIZE SUB DUP1 PUSH3 0x2B4B DUP4 CODECOPY DUP2 DUP2 ADD PUSH1 0x40 MSTORE DUP2 ADD SWAP1 PUSH3 0x37 SWAP2 SWAP1 PUSH3 0x14F JUMP JUMPDEST PUSH1 0x0 PUSH3 0x49 PUSH3 0x130 PUSH1 0x20 SHL PUSH1 0x20 SHR JUMP JUMPDEST SWAP1 POP DUP1 PUSH1 0x0 DUP1 PUSH2 0x100 EXP DUP2 SLOAD DUP2 PUSH20 0xFFFFFFFFFFFFFFFFFFFFFFFFFFFFFFFFFFFFFFFF MUL NOT AND SWAP1 DUP4 PUSH20 0xFFFFFFFFFFFFFFFFFFFFFFFFFFFFFFFFFFFFFFFF AND MUL OR SWAP1 SSTORE POP DUP1 PUSH20 0xFFFFFFFFFFFFFFFFFFFFFFFFFFFFFFFFFFFFFFFF AND PUSH1 0x0 PUSH20 0xFFFFFFFFFFFFFFFFFFFFFFFFFFFFFFFFFFFFFFFF AND PUSH32 0x8BE0079C531659141344CD1FD0A4F28419497F9722A3DAAFE3B4186F6B6457E0 PUSH1 0x40 MLOAD PUSH1 0x40 MLOAD DUP1 SWAP2 SUB SWAP1 LOG3 POP DUP1 PUSH1 0x3 PUSH1 0x0 PUSH2 0x100 EXP DUP2 SLOAD DUP2 PUSH20 0xFFFFFFFFFFFFFFFFFFFFFFFFFFFFFFFFFFFFFFFF MUL NOT AND SWAP1 DUP4 PUSH20 0xFFFFFFFFFFFFFFFFFFFFFFFFFFFFFFFFFFFFFFFF AND MUL OR SWAP1 SSTORE POP POP POP PUSH3 0x1DE JUMP JUMPDEST PUSH1 0x0 CALLER SWAP1 POP SWAP1 JUMP JUMPDEST PUSH1 0x0 DUP2 MLOAD SWAP1 POP PUSH3 0x149 DUP2 PUSH3 0x1C4 JUMP JUMPDEST SWAP3 SWAP2 POP POP JUMP JUMPDEST PUSH1 0x0 DUP1 PUSH1 0x40 DUP4 DUP6 SUB SLT ISZERO PUSH3 0x163 JUMPI PUSH1 0x0 DUP1 REVERT JUMPDEST PUSH1 0x0 PUSH3 0x173 DUP6 DUP3 DUP7 ADD PUSH3 0x138 JUMP JUMPDEST SWAP3 POP POP PUSH1 0x20 PUSH3 0x186 DUP6 DUP3 DUP7 ADD PUSH3 0x138 JUMP JUMPDEST SWAP2 POP POP SWAP3 POP SWAP3 SWAP1 POP JUMP JUMPDEST PUSH1 0x0 PUSH3 0x19D DUP3 PUSH3 0x1A4 JUMP JUMPDEST SWAP1 POP SWAP2 SWAP1 POP JUMP JUMPDEST PUSH1 0x0 PUSH20 0xFFFFFFFFFFFFFFFFFFFFFFFFFFFFFFFFFFFFFFFF DUP3 AND SWAP1 POP SWAP2 SWAP1 POP JUMP JUMPDEST PUSH3 0x1CF DUP2 PUSH3 0x190 JUMP JUMPDEST DUP2 EQ PUSH3 0x1DB JUMPI PUSH1 0x0 DUP1 REVERT JUMPDEST POP JUMP JUMPDEST PUSH2 0x295D DUP1 PUSH3 0x1EE PUSH1 0x0 CODECOPY PUSH1 0x0 RETURN INVALID PUSH1 0x80 PUSH1 0x40 MSTORE PUSH1 0x4 CALLDATASIZE LT PUSH2 0x14F JUMPI PUSH1 0x0 CALLDATALOAD PUSH1 0xE0 SHR DUP1 PUSH4 0x9E281A98 GT PUSH2 0xB6 JUMPI DUP1 PUSH4 0xDF463A66 GT PUSH2 0x6F JUMPI DUP1 PUSH4 0xDF463A66 EQ PUSH2 0x55F JUMPI DUP1 PUSH4 0xE3712D66 EQ PUSH2 0x58A JUMPI DUP1 PUSH4 0xE5C12446 EQ PUSH2 0x5C7 JUMPI DUP1 PUSH4 0xECD0C0C3 EQ PUSH2 0x605 JUMPI DUP1 PUSH4 0xF2FDE38B EQ PUSH2 0x630 JUMPI DUP1 PUSH4 0xF9C002F7 EQ PUSH2 0x659 JUMPI PUSH2 0x276 JUMP JUMPDEST DUP1 PUSH4 0x9E281A98 EQ PUSH2 0x463 JUMPI DUP1 PUSH4 0x9EA09211 EQ PUSH2 0x48C JUMPI DUP1 PUSH4 0xAD12E50E EQ PUSH2 0x4B5 JUMPI DUP1 PUSH4 0xB90B41CF EQ PUSH2 0x4E0 JUMPI DUP1 PUSH4 0xBBDAA3C9 EQ PUSH2 0x50B JUMPI DUP1 PUSH4 0xDA742228 EQ PUSH2 0x536 JUMPI PUSH2 0x276 JUMP JUMPDEST DUP1 PUSH4 0x7BB05264 GT PUSH2 0x108 JUMPI DUP1 PUSH4 0x7BB05264 EQ PUSH2 0x365 JUMPI DUP1 PUSH4 0x7DA0A877 EQ PUSH2 0x38E JUMPI DUP1 PUSH4 0x82B2E257 EQ PUSH2 0x3B9 JUMPI DUP1 PUSH4 0x8DA5CB5B EQ PUSH2 0x3E4 JUMPI DUP1 PUSH4 0x8E9483B0 EQ PUSH2 0x40F JUMPI DUP1 PUSH4 0x921276EA EQ PUSH2 0x438 JUMPI PUSH2 0x276 JUMP JUMPDEST DUP1 PUSH4 0x2AFE31C1 EQ PUSH2 0x27B JUMPI DUP1 PUSH4 0x2D14C4B7 EQ PUSH2 0x2A6 JUMPI DUP1 PUSH4 0x5EA54EEE EQ PUSH2 0x2CF JUMPI DUP1 PUSH4 0x6D7C3E2B EQ PUSH2 0x2FA JUMPI DUP1 PUSH4 0x715018A6 EQ PUSH2 0x323 JUMPI DUP1 PUSH4 0x74E861D6 EQ PUSH2 0x33A JUMPI PUSH2 0x276 JUMP JUMPDEST CALLDATASIZE PUSH2 0x276 JUMPI PUSH1 0x0 PUSH20 0xFFFFFFFFFFFFFFFFFFFFFFFFFFFFFFFFFFFFFFFF AND PUSH1 0x1 PUSH1 0x0 SWAP1 SLOAD SWAP1 PUSH2 0x100 EXP SWAP1 DIV PUSH20 0xFFFFFFFFFFFFFFFFFFFFFFFFFFFFFFFFFFFFFFFF AND PUSH20 0xFFFFFFFFFFFFFFFFFFFFFFFFFFFFFFFFFFFFFFFF AND EQ ISZERO PUSH2 0x1E6 JUMPI PUSH1 0x40 MLOAD PUSH32 0x8C379A000000000000000000000000000000000000000000000000000000000 DUP2 MSTORE PUSH1 0x4 ADD PUSH2 0x1DD SWAP1 PUSH2 0x23EA JUMP JUMPDEST PUSH1 0x40 MLOAD DUP1 SWAP2 SUB SWAP1 REVERT JUMPDEST PUSH1 0x1 PUSH1 0x0 SWAP1 SLOAD SWAP1 PUSH2 0x100 EXP SWAP1 DIV PUSH20 0xFFFFFFFFFFFFFFFFFFFFFFFFFFFFFFFFFFFFFFFF AND PUSH20 0xFFFFFFFFFFFFFFFFFFFFFFFFFFFFFFFFFFFFFFFF AND PUSH4 0xAA67C919 CALLVALUE ADDRESS PUSH1 0x40 MLOAD DUP4 PUSH4 0xFFFFFFFF AND PUSH1 0xE0 SHL DUP2 MSTORE PUSH1 0x4 ADD PUSH2 0x242 SWAP2 SWAP1 PUSH2 0x224F JUMP JUMPDEST PUSH1 0x0 PUSH1 0x40 MLOAD DUP1 DUP4 SUB DUP2 DUP6 DUP9 DUP1 EXTCODESIZE ISZERO DUP1 ISZERO PUSH2 0x25B JUMPI PUSH1 0x0 DUP1 REVERT JUMPDEST POP GAS CALL ISZERO DUP1 ISZERO PUSH2 0x26F JUMPI RETURNDATASIZE PUSH1 0x0 DUP1 RETURNDATACOPY RETURNDATASIZE PUSH1 0x0 REVERT JUMPDEST POP POP POP POP POP STOP JUMPDEST PUSH1 0x0 DUP1 REVERT JUMPDEST CALLVALUE DUP1 ISZERO PUSH2 0x287 JUMPI PUSH1 0x0 DUP1 REVERT JUMPDEST POP PUSH2 0x290 PUSH2 0x684 JUMP JUMPDEST PUSH1 0x40 MLOAD PUSH2 0x29D SWAP2 SWAP1 PUSH2 0x2515 JUMP JUMPDEST PUSH1 0x40 MLOAD DUP1 SWAP2 SUB SWAP1 RETURN JUMPDEST CALLVALUE DUP1 ISZERO PUSH2 0x2B2 JUMPI PUSH1 0x0 DUP1 REVERT JUMPDEST POP PUSH2 0x2CD PUSH1 0x4 DUP1 CALLDATASIZE SUB DUP2 ADD SWAP1 PUSH2 0x2C8 SWAP2 SWAP1 PUSH2 0x1B4A JUMP JUMPDEST PUSH2 0x736 JUMP JUMPDEST STOP JUMPDEST CALLVALUE DUP1 ISZERO PUSH2 0x2DB JUMPI PUSH1 0x0 DUP1 REVERT JUMPDEST POP PUSH2 0x2E4 PUSH2 0x844 JUMP JUMPDEST PUSH1 0x40 MLOAD PUSH2 0x2F1 SWAP2 SWAP1 PUSH2 0x24AA JUMP JUMPDEST PUSH1 0x40 MLOAD DUP1 SWAP2 SUB SWAP1 RETURN JUMPDEST CALLVALUE DUP1 ISZERO PUSH2 0x306 JUMPI PUSH1 0x0 DUP1 REVERT JUMPDEST POP PUSH2 0x321 PUSH1 0x4 DUP1 CALLDATASIZE SUB DUP2 ADD SWAP1 PUSH2 0x31C SWAP2 SWAP1 PUSH2 0x1AF8 JUMP JUMPDEST PUSH2 0x879 JUMP JUMPDEST STOP JUMPDEST CALLVALUE DUP1 ISZERO PUSH2 0x32F JUMPI PUSH1 0x0 DUP1 REVERT JUMPDEST POP PUSH2 0x338 PUSH2 0x8FF JUMP JUMPDEST STOP JUMPDEST CALLVALUE DUP1 ISZERO PUSH2 0x346 JUMPI PUSH1 0x0 DUP1 REVERT JUMPDEST POP PUSH2 0x34F PUSH2 0xA39 JUMP JUMPDEST PUSH1 0x40 MLOAD PUSH2 0x35C SWAP2 SWAP1 PUSH2 0x2234 JUMP JUMPDEST PUSH1 0x40 MLOAD DUP1 SWAP2 SUB SWAP1 RETURN JUMPDEST CALLVALUE DUP1 ISZERO PUSH2 0x371 JUMPI PUSH1 0x0 DUP1 REVERT JUMPDEST POP PUSH2 0x38C PUSH1 0x4 DUP1 CALLDATASIZE SUB DUP2 ADD SWAP1 PUSH2 0x387 SWAP2 SWAP1 PUSH2 0x19DB JUMP JUMPDEST PUSH2 0xA63 JUMP JUMPDEST STOP JUMPDEST CALLVALUE DUP1 ISZERO PUSH2 0x39A JUMPI PUSH1 0x0 DUP1 REVERT JUMPDEST POP PUSH2 0x3A3 PUSH2 0xB23 JUMP JUMPDEST PUSH1 0x40 MLOAD PUSH2 0x3B0 SWAP2 SWAP1 PUSH2 0x234D JUMP JUMPDEST PUSH1 0x40 MLOAD DUP1 SWAP2 SUB SWAP1 RETURN JUMPDEST CALLVALUE DUP1 ISZERO PUSH2 0x3C5 JUMPI PUSH1 0x0 DUP1 REVERT JUMPDEST POP PUSH2 0x3CE PUSH2 0xB49 JUMP JUMPDEST PUSH1 0x40 MLOAD PUSH2 0x3DB SWAP2 SWAP1 PUSH2 0x2515 JUMP JUMPDEST PUSH1 0x40 MLOAD DUP1 SWAP2 SUB SWAP1 RETURN JUMPDEST CALLVALUE DUP1 ISZERO PUSH2 0x3F0 JUMPI PUSH1 0x0 DUP1 REVERT JUMPDEST POP PUSH2 0x3F9 PUSH2 0xBFB JUMP JUMPDEST PUSH1 0x40 MLOAD PUSH2 0x406 SWAP2 SWAP1 PUSH2 0x2234 JUMP JUMPDEST PUSH1 0x40 MLOAD DUP1 SWAP2 SUB SWAP1 RETURN JUMPDEST CALLVALUE DUP1 ISZERO PUSH2 0x41B JUMPI PUSH1 0x0 DUP1 REVERT JUMPDEST POP PUSH2 0x436 PUSH1 0x4 DUP1 CALLDATASIZE SUB DUP2 ADD SWAP1 PUSH2 0x431 SWAP2 SWAP1 PUSH2 0x191A JUMP JUMPDEST PUSH2 0xC24 JUMP JUMPDEST STOP JUMPDEST CALLVALUE DUP1 ISZERO PUSH2 0x444 JUMPI PUSH1 0x0 DUP1 REVERT JUMPDEST POP PUSH2 0x44D PUSH2 0xCF3 JUMP JUMPDEST PUSH1 0x40 MLOAD PUSH2 0x45A SWAP2 SWAP1 PUSH2 0x2368 JUMP JUMPDEST PUSH1 0x40 MLOAD DUP1 SWAP2 SUB SWAP1 RETURN JUMPDEST CALLVALUE DUP1 ISZERO PUSH2 0x46F JUMPI PUSH1 0x0 DUP1 REVERT JUMPDEST POP PUSH2 0x48A PUSH1 0x4 DUP1 CALLDATASIZE SUB DUP2 ADD SWAP1 PUSH2 0x485 SWAP2 SWAP1 PUSH2 0x18B5 JUMP JUMPDEST PUSH2 0xD30 JUMP JUMPDEST STOP JUMPDEST CALLVALUE DUP1 ISZERO PUSH2 0x498 JUMPI PUSH1 0x0 DUP1 REVERT JUMPDEST POP PUSH2 0x4B3 PUSH1 0x4 DUP1 CALLDATASIZE SUB DUP2 ADD SWAP1 PUSH2 0x4AE SWAP2 SWAP1 PUSH2 0x1A04 JUMP JUMPDEST PUSH2 0xF53 JUMP JUMPDEST STOP JUMPDEST CALLVALUE DUP1 ISZERO PUSH2 0x4C1 JUMPI PUSH1 0x0 DUP1 REVERT JUMPDEST POP PUSH2 0x4CA PUSH2 0x1010 JUMP JUMPDEST PUSH1 0x40 MLOAD PUSH2 0x4D7 SWAP2 SWAP1 PUSH2 0x2515 JUMP JUMPDEST PUSH1 0x40 MLOAD DUP1 SWAP2 SUB SWAP1 RETURN JUMPDEST CALLVALUE DUP1 ISZERO PUSH2 0x4EC JUMPI PUSH1 0x0 DUP1 REVERT JUMPDEST POP PUSH2 0x4F5 PUSH2 0x1016 JUMP JUMPDEST PUSH1 0x40 MLOAD PUSH2 0x502 SWAP2 SWAP1 PUSH2 0x2515 JUMP JUMPDEST PUSH1 0x40 MLOAD DUP1 SWAP2 SUB SWAP1 RETURN JUMPDEST CALLVALUE DUP1 ISZERO PUSH2 0x517 JUMPI PUSH1 0x0 DUP1 REVERT JUMPDEST POP PUSH2 0x520 PUSH2 0x101C JUMP JUMPDEST PUSH1 0x40 MLOAD PUSH2 0x52D SWAP2 SWAP1 PUSH2 0x2515 JUMP JUMPDEST PUSH1 0x40 MLOAD DUP1 SWAP2 SUB SWAP1 RETURN JUMPDEST CALLVALUE DUP1 ISZERO PUSH2 0x542 JUMPI PUSH1 0x0 DUP1 REVERT JUMPDEST POP PUSH2 0x55D PUSH1 0x4 DUP1 CALLDATASIZE SUB DUP2 ADD SWAP1 PUSH2 0x558 SWAP2 SWAP1 PUSH2 0x19B2 JUMP JUMPDEST PUSH2 0x1023 JUMP JUMPDEST STOP JUMPDEST CALLVALUE DUP1 ISZERO PUSH2 0x56B JUMPI PUSH1 0x0 DUP1 REVERT JUMPDEST POP PUSH2 0x574 PUSH2 0x10E3 JUMP JUMPDEST PUSH1 0x40 MLOAD PUSH2 0x581 SWAP2 SWAP1 PUSH2 0x2515 JUMP JUMPDEST PUSH1 0x40 MLOAD DUP1 SWAP2 SUB SWAP1 RETURN JUMPDEST CALLVALUE DUP1 ISZERO PUSH2 0x596 JUMPI PUSH1 0x0 DUP1 REVERT JUMPDEST POP PUSH2 0x5B1 PUSH1 0x4 DUP1 CALLDATASIZE SUB DUP2 ADD SWAP1 PUSH2 0x5AC SWAP2 SWAP1 PUSH2 0x1A04 JUMP JUMPDEST PUSH2 0x10EE JUMP JUMPDEST PUSH1 0x40 MLOAD PUSH2 0x5BE SWAP2 SWAP1 PUSH2 0x2234 JUMP JUMPDEST PUSH1 0x40 MLOAD DUP1 SWAP2 SUB SWAP1 RETURN JUMPDEST CALLVALUE DUP1 ISZERO PUSH2 0x5D3 JUMPI PUSH1 0x0 DUP1 REVERT JUMPDEST POP PUSH2 0x5EE PUSH1 0x4 DUP1 CALLDATASIZE SUB DUP2 ADD SWAP1 PUSH2 0x5E9 SWAP2 SWAP1 PUSH2 0x1A45 JUMP JUMPDEST PUSH2 0x1119 JUMP JUMPDEST PUSH1 0x40 MLOAD PUSH2 0x5FC SWAP3 SWAP2 SWAP1 PUSH2 0x2302 JUMP JUMPDEST PUSH1 0x40 MLOAD DUP1 SWAP2 SUB SWAP1 RETURN JUMPDEST CALLVALUE DUP1 ISZERO PUSH2 0x611 JUMPI PUSH1 0x0 DUP1 REVERT JUMPDEST POP PUSH2 0x61A PUSH2 0x12B0 JUMP JUMPDEST PUSH1 0x40 MLOAD PUSH2 0x627 SWAP2 SWAP1 PUSH2 0x2332 JUMP JUMPDEST PUSH1 0x40 MLOAD DUP1 SWAP2 SUB SWAP1 RETURN JUMPDEST CALLVALUE DUP1 ISZERO PUSH2 0x63C JUMPI PUSH1 0x0 DUP1 REVERT JUMPDEST POP PUSH2 0x657 PUSH1 0x4 DUP1 CALLDATASIZE SUB DUP2 ADD SWAP1 PUSH2 0x652 SWAP2 SWAP1 PUSH2 0x1803 JUMP JUMPDEST PUSH2 0x12D6 JUMP JUMPDEST STOP JUMPDEST CALLVALUE DUP1 ISZERO PUSH2 0x665 JUMPI PUSH1 0x0 DUP1 REVERT JUMPDEST POP PUSH2 0x66E PUSH2 0x147F JUMP JUMPDEST PUSH1 0x40 MLOAD PUSH2 0x67B SWAP2 SWAP1 PUSH2 0x2515 JUMP JUMPDEST PUSH1 0x40 MLOAD DUP1 SWAP2 SUB SWAP1 RETURN JUMPDEST PUSH1 0x0 PUSH1 0x1 PUSH1 0x0 SWAP1 SLOAD SWAP1 PUSH2 0x100 EXP SWAP1 DIV PUSH20 0xFFFFFFFFFFFFFFFFFFFFFFFFFFFFFFFFFFFFFFFF AND PUSH20 0xFFFFFFFFFFFFFFFFFFFFFFFFFFFFFFFFFFFFFFFF AND PUSH4 0x70A08231 ADDRESS PUSH1 0x40 MLOAD DUP3 PUSH4 0xFFFFFFFF AND PUSH1 0xE0 SHL DUP2 MSTORE PUSH1 0x4 ADD PUSH2 0x6E1 SWAP2 SWAP1 PUSH2 0x224F JUMP JUMPDEST PUSH1 0x20 PUSH1 0x40 MLOAD DUP1 DUP4 SUB DUP2 DUP7 DUP1 EXTCODESIZE ISZERO DUP1 ISZERO PUSH2 0x6F9 JUMPI PUSH1 0x0 DUP1 REVERT JUMPDEST POP GAS STATICCALL ISZERO DUP1 ISZERO PUSH2 0x70D JUMPI RETURNDATASIZE PUSH1 0x0 DUP1 RETURNDATACOPY RETURNDATASIZE PUSH1 0x0 REVERT JUMPDEST POP POP POP POP PUSH1 0x40 MLOAD RETURNDATASIZE PUSH1 0x1F NOT PUSH1 0x1F DUP3 ADD AND DUP3 ADD DUP1 PUSH1 0x40 MSTORE POP DUP2 ADD SWAP1 PUSH2 0x731 SWAP2 SWAP1 PUSH2 0x1B21 JUMP JUMPDEST SWAP1 POP SWAP1 JUMP JUMPDEST PUSH2 0x73E PUSH2 0x1486 JUMP JUMPDEST PUSH20 0xFFFFFFFFFFFFFFFFFFFFFFFFFFFFFFFFFFFFFFFF AND PUSH2 0x75C PUSH2 0xBFB JUMP JUMPDEST PUSH20 0xFFFFFFFFFFFFFFFFFFFFFFFFFFFFFFFFFFFFFFFF AND EQ PUSH2 0x7B2 JUMPI PUSH1 0x40 MLOAD PUSH32 0x8C379A000000000000000000000000000000000000000000000000000000000 DUP2 MSTORE PUSH1 0x4 ADD PUSH2 0x7A9 SWAP1 PUSH2 0x248A JUMP JUMPDEST PUSH1 0x40 MLOAD DUP1 SWAP2 SUB SWAP1 REVERT JUMPDEST PUSH1 0x1 PUSH1 0x0 SWAP1 SLOAD SWAP1 PUSH2 0x100 EXP SWAP1 DIV PUSH20 0xFFFFFFFFFFFFFFFFFFFFFFFFFFFFFFFFFFFFFFFF AND PUSH20 0xFFFFFFFFFFFFFFFFFFFFFFFFFFFFFFFFFFFFFFFF AND PUSH3 0xF714CE DUP4 DUP4 PUSH1 0x40 MLOAD DUP4 PUSH4 0xFFFFFFFF AND PUSH1 0xE0 SHL DUP2 MSTORE PUSH1 0x4 ADD PUSH2 0x80E SWAP3 SWAP2 SWAP1 PUSH2 0x2530 JUMP JUMPDEST PUSH1 0x0 PUSH1 0x40 MLOAD DUP1 DUP4 SUB DUP2 PUSH1 0x0 DUP8 DUP1 EXTCODESIZE ISZERO DUP1 ISZERO PUSH2 0x828 JUMPI PUSH1 0x0 DUP1 REVERT JUMPDEST POP GAS CALL ISZERO DUP1 ISZERO PUSH2 0x83C JUMPI RETURNDATASIZE PUSH1 0x0 DUP1 RETURNDATACOPY RETURNDATASIZE PUSH1 0x0 REVERT JUMPDEST POP POP POP POP POP POP JUMP JUMPDEST PUSH2 0x84C PUSH2 0x168F JUMP JUMPDEST PUSH1 0x40 MLOAD DUP1 PUSH1 0x60 ADD PUSH1 0x40 MSTORE DUP1 PUSH2 0xC350 PUSH3 0x186A0 ADD DUP2 MSTORE PUSH1 0x20 ADD PUSH3 0x186A0 DUP2 MSTORE PUSH1 0x20 ADD PUSH3 0x1ADB0 DUP2 MSTORE POP SWAP1 POP SWAP1 JUMP JUMPDEST PUSH2 0x881 PUSH2 0x1486 JUMP JUMPDEST PUSH20 0xFFFFFFFFFFFFFFFFFFFFFFFFFFFFFFFFFFFFFFFF AND PUSH2 0x89F PUSH2 0xBFB JUMP JUMPDEST PUSH20 0xFFFFFFFFFFFFFFFFFFFFFFFFFFFFFFFFFFFFFFFF AND EQ PUSH2 0x8F5 JUMPI PUSH1 0x40 MLOAD PUSH32 0x8C379A000000000000000000000000000000000000000000000000000000000 DUP2 MSTORE PUSH1 0x4 ADD PUSH2 0x8EC SWAP1 PUSH2 0x248A JUMP JUMPDEST PUSH1 0x40 MLOAD DUP1 SWAP2 SUB SWAP1 REVERT JUMPDEST DUP1 PUSH1 0x4 DUP2 SWAP1 SSTORE POP POP JUMP JUMPDEST PUSH2 0x907 PUSH2 0x1486 JUMP JUMPDEST PUSH20 0xFFFFFFFFFFFFFFFFFFFFFFFFFFFFFFFFFFFFFFFF AND PUSH2 0x925 PUSH2 0xBFB JUMP JUMPDEST PUSH20 0xFFFFFFFFFFFFFFFFFFFFFFFFFFFFFFFFFFFFFFFF AND EQ PUSH2 0x97B JUMPI PUSH1 0x40 MLOAD PUSH32 0x8C379A000000000000000000000000000000000000000000000000000000000 DUP2 MSTORE PUSH1 0x4 ADD PUSH2 0x972 SWAP1 PUSH2 0x248A JUMP JUMPDEST PUSH1 0x40 MLOAD DUP1 SWAP2 SUB SWAP1 REVERT JUMPDEST PUSH1 0x0 PUSH20 0xFFFFFFFFFFFFFFFFFFFFFFFFFFFFFFFFFFFFFFFF AND PUSH1 0x0 DUP1 SLOAD SWAP1 PUSH2 0x100 EXP SWAP1 DIV PUSH20 0xFFFFFFFFFFFFFFFFFFFFFFFFFFFFFFFFFFFFFFFF AND PUSH20 0xFFFFFFFFFFFFFFFFFFFFFFFFFFFFFFFFFFFFFFFF AND PUSH32 0x8BE0079C531659141344CD1FD0A4F28419497F9722A3DAAFE3B4186F6B6457E0 PUSH1 0x40 MLOAD PUSH1 0x40 MLOAD DUP1 SWAP2 SUB SWAP1 LOG3 PUSH1 0x0 DUP1 PUSH1 0x0 PUSH2 0x100 EXP DUP2 SLOAD DUP2 PUSH20 0xFFFFFFFFFFFFFFFFFFFFFFFFFFFFFFFFFFFFFFFF MUL NOT AND SWAP1 DUP4 PUSH20 0xFFFFFFFFFFFFFFFFFFFFFFFFFFFFFFFFFFFFFFFF AND MUL OR SWAP1 SSTORE POP JUMP JUMPDEST PUSH1 0x0 PUSH1 0x1 PUSH1 0x0 SWAP1 SLOAD SWAP1 PUSH2 0x100 EXP SWAP1 DIV PUSH20 0xFFFFFFFFFFFFFFFFFFFFFFFFFFFFFFFFFFFFFFFF AND SWAP1 POP SWAP1 JUMP JUMPDEST PUSH2 0xA6B PUSH2 0x1486 JUMP JUMPDEST PUSH20 0xFFFFFFFFFFFFFFFFFFFFFFFFFFFFFFFFFFFFFFFF AND PUSH2 0xA89 PUSH2 0xBFB JUMP JUMPDEST PUSH20 0xFFFFFFFFFFFFFFFFFFFFFFFFFFFFFFFFFFFFFFFF AND EQ PUSH2 0xADF JUMPI PUSH1 0x40 MLOAD PUSH32 0x8C379A000000000000000000000000000000000000000000000000000000000 DUP2 MSTORE PUSH1 0x4 ADD PUSH2 0xAD6 SWAP1 PUSH2 0x248A JUMP JUMPDEST PUSH1 0x40 MLOAD DUP1 SWAP2 SUB SWAP1 REVERT JUMPDEST DUP1 PUSH1 0x1 PUSH1 0x0 PUSH2 0x100 EXP DUP2 SLOAD DUP2 PUSH20 0xFFFFFFFFFFFFFFFFFFFFFFFFFFFFFFFFFFFFFFFF MUL NOT AND SWAP1 DUP4 PUSH20 0xFFFFFFFFFFFFFFFFFFFFFFFFFFFFFFFFFFFFFFFF AND MUL OR SWAP1 SSTORE POP POP JUMP JUMPDEST PUSH1 0x2 PUSH1 0x0 SWAP1 SLOAD SWAP1 PUSH2 0x100 EXP SWAP1 DIV PUSH20 0xFFFFFFFFFFFFFFFFFFFFFFFFFFFFFFFFFFFFFFFF AND DUP2 JUMP JUMPDEST PUSH1 0x0 PUSH1 0x3 PUSH1 0x0 SWAP1 SLOAD SWAP1 PUSH2 0x100 EXP SWAP1 DIV PUSH20 0xFFFFFFFFFFFFFFFFFFFFFFFFFFFFFFFFFFFFFFFF AND PUSH20 0xFFFFFFFFFFFFFFFFFFFFFFFFFFFFFFFFFFFFFFFF AND PUSH4 0x70A08231 ADDRESS PUSH1 0x40 MLOAD DUP3 PUSH4 0xFFFFFFFF AND PUSH1 0xE0 SHL DUP2 MSTORE PUSH1 0x4 ADD PUSH2 0xBA6 SWAP2 SWAP1 PUSH2 0x224F JUMP JUMPDEST PUSH1 0x20 PUSH1 0x40 MLOAD DUP1 DUP4 SUB DUP2 DUP7 DUP1 EXTCODESIZE ISZERO DUP1 ISZERO PUSH2 0xBBE JUMPI PUSH1 0x0 DUP1 REVERT JUMPDEST POP GAS STATICCALL ISZERO DUP1 ISZERO PUSH2 0xBD2 JUMPI RETURNDATASIZE PUSH1 0x0 DUP1 RETURNDATACOPY RETURNDATASIZE PUSH1 0x0 REVERT JUMPDEST POP POP POP POP PUSH1 0x40 MLOAD RETURNDATASIZE PUSH1 0x1F NOT PUSH1 0x1F DUP3 ADD AND DUP3 ADD DUP1 PUSH1 0x40 MSTORE POP DUP2 ADD SWAP1 PUSH2 0xBF6 SWAP2 SWAP1 PUSH2 0x1B21 JUMP JUMPDEST SWAP1 POP SWAP1 JUMP JUMPDEST PUSH1 0x0 DUP1 PUSH1 0x0 SWAP1 SLOAD SWAP1 PUSH2 0x100 EXP SWAP1 DIV PUSH20 0xFFFFFFFFFFFFFFFFFFFFFFFFFFFFFFFFFFFFFFFF AND SWAP1 POP SWAP1 JUMP JUMPDEST PUSH2 0xC2C PUSH2 0xA39 JUMP JUMPDEST PUSH20 0xFFFFFFFFFFFFFFFFFFFFFFFFFFFFFFFFFFFFFFFF AND CALLER PUSH20 0xFFFFFFFFFFFFFFFFFFFFFFFFFFFFFFFFFFFFFFFF AND EQ PUSH2 0xC99 JUMPI PUSH1 0x40 MLOAD PUSH32 0x8C379A000000000000000000000000000000000000000000000000000000000 DUP2 MSTORE PUSH1 0x4 ADD PUSH2 0xC90 SWAP1 PUSH2 0x246A JUMP JUMPDEST PUSH1 0x40 MLOAD DUP1 SWAP2 SUB SWAP1 REVERT JUMPDEST PUSH1 0x0 PUSH4 0x13DE4355 SWAP1 POP PUSH1 0x0 PUSH4 0x4A2CB71 SWAP1 POP PUSH32 0xB3D69FF8981E297B4AB7FB9BA8E8A080FFEBBEE9F273BFA2D10116A823683045 DUP5 PUSH1 0x4 SLOAD DUP5 DUP5 PUSH1 0x40 MLOAD PUSH2 0xCE2 SWAP5 SWAP4 SWAP3 SWAP2 SWAP1 PUSH2 0x2559 JUMP JUMPDEST PUSH1 0x40 MLOAD DUP1 SWAP2 SUB SWAP1 LOG1 POP POP POP POP POP POP POP JUMP JUMPDEST PUSH1 0x60 PUSH1 0x40 MLOAD DUP1 PUSH1 0x40 ADD PUSH1 0x40 MSTORE DUP1 PUSH1 0x5 DUP2 MSTORE PUSH1 0x20 ADD PUSH32 0x322E302E31000000000000000000000000000000000000000000000000000000 DUP2 MSTORE POP SWAP1 POP SWAP1 JUMP JUMPDEST PUSH2 0xD38 PUSH2 0x1486 JUMP JUMPDEST PUSH20 0xFFFFFFFFFFFFFFFFFFFFFFFFFFFFFFFFFFFFFFFF AND PUSH2 0xD56 PUSH2 0xBFB JUMP JUMPDEST PUSH20 0xFFFFFFFFFFFFFFFFFFFFFFFFFFFFFFFFFFFFFFFF AND EQ PUSH2 0xDAC JUMPI PUSH1 0x40 MLOAD PUSH32 0x8C379A000000000000000000000000000000000000000000000000000000000 DUP2 MSTORE PUSH1 0x4 ADD PUSH2 0xDA3 SWAP1 PUSH2 0x248A JUMP JUMPDEST PUSH1 0x40 MLOAD DUP1 SWAP2 SUB SWAP1 REVERT JUMPDEST PUSH1 0x0 PUSH1 0x3 PUSH1 0x0 SWAP1 SLOAD SWAP1 PUSH2 0x100 EXP SWAP1 DIV PUSH20 0xFFFFFFFFFFFFFFFFFFFFFFFFFFFFFFFFFFFFFFFF AND PUSH20 0xFFFFFFFFFFFFFFFFFFFFFFFFFFFFFFFFFFFFFFFF AND PUSH4 0x70A08231 ADDRESS PUSH1 0x40 MLOAD DUP3 PUSH4 0xFFFFFFFF AND PUSH1 0xE0 SHL DUP2 MSTORE PUSH1 0x4 ADD PUSH2 0xE09 SWAP2 SWAP1 PUSH2 0x224F JUMP JUMPDEST PUSH1 0x20 PUSH1 0x40 MLOAD DUP1 DUP4 SUB DUP2 DUP7 DUP1 EXTCODESIZE ISZERO DUP1 ISZERO PUSH2 0xE21 JUMPI PUSH1 0x0 DUP1 REVERT JUMPDEST POP GAS STATICCALL ISZERO DUP1 ISZERO PUSH2 0xE35 JUMPI RETURNDATASIZE PUSH1 0x0 DUP1 RETURNDATACOPY RETURNDATASIZE PUSH1 0x0 REVERT JUMPDEST POP POP POP POP PUSH1 0x40 MLOAD RETURNDATASIZE PUSH1 0x1F NOT PUSH1 0x1F DUP3 ADD AND DUP3 ADD DUP1 PUSH1 0x40 MSTORE POP DUP2 ADD SWAP1 PUSH2 0xE59 SWAP2 SWAP1 PUSH2 0x1B21 JUMP JUMPDEST SWAP1 POP DUP1 DUP3 GT ISZERO PUSH2 0xE9E JUMPI PUSH1 0x40 MLOAD PUSH32 0x8C379A000000000000000000000000000000000000000000000000000000000 DUP2 MSTORE PUSH1 0x4 ADD PUSH2 0xE95 SWAP1 PUSH2 0x23CA JUMP JUMPDEST PUSH1 0x40 MLOAD DUP1 SWAP2 SUB SWAP1 REVERT JUMPDEST PUSH1 0x3 PUSH1 0x0 SWAP1 SLOAD SWAP1 PUSH2 0x100 EXP SWAP1 DIV PUSH20 0xFFFFFFFFFFFFFFFFFFFFFFFFFFFFFFFFFFFFFFFF AND PUSH20 0xFFFFFFFFFFFFFFFFFFFFFFFFFFFFFFFFFFFFFFFF AND PUSH4 0xA9059CBB DUP5 DUP5 PUSH1 0x40 MLOAD DUP4 PUSH4 0xFFFFFFFF AND PUSH1 0xE0 SHL DUP2 MSTORE PUSH1 0x4 ADD PUSH2 0xEFB SWAP3 SWAP2 SWAP1 PUSH2 0x22D9 JUMP JUMPDEST PUSH1 0x20 PUSH1 0x40 MLOAD DUP1 DUP4 SUB DUP2 PUSH1 0x0 DUP8 DUP1 EXTCODESIZE ISZERO DUP1 ISZERO PUSH2 0xF15 JUMPI PUSH1 0x0 DUP1 REVERT JUMPDEST POP GAS CALL ISZERO DUP1 ISZERO PUSH2 0xF29 JUMPI RETURNDATASIZE PUSH1 0x0 DUP1 RETURNDATACOPY RETURNDATASIZE PUSH1 0x0 REVERT JUMPDEST POP POP POP POP PUSH1 0x40 MLOAD RETURNDATASIZE PUSH1 0x1F NOT PUSH1 0x1F DUP3 ADD AND DUP3 ADD DUP1 PUSH1 0x40 MSTORE POP DUP2 ADD SWAP1 PUSH2 0xF4D SWAP2 SWAP1 PUSH2 0x18F1 JUMP JUMPDEST POP POP POP POP JUMP JUMPDEST DUP1 DUP1 PUSH1 0x20 ADD SWAP1 PUSH2 0xF63 SWAP2 SWAP1 PUSH2 0x25C2 JUMP JUMPDEST PUSH1 0xE0 ADD PUSH1 0x20 DUP2 ADD SWAP1 PUSH2 0xF75 SWAP2 SWAP1 PUSH2 0x1803 JUMP JUMPDEST PUSH20 0xFFFFFFFFFFFFFFFFFFFFFFFFFFFFFFFFFFFFFFFF AND PUSH1 0x2 PUSH1 0x0 SWAP1 SLOAD SWAP1 PUSH2 0x100 EXP SWAP1 DIV PUSH20 0xFFFFFFFFFFFFFFFFFFFFFFFFFFFFFFFFFFFFFFFF AND PUSH20 0xFFFFFFFFFFFFFFFFFFFFFFFFFFFFFFFFFFFFFFFF AND EQ PUSH2 0x1004 JUMPI PUSH1 0x40 MLOAD PUSH32 0x8C379A000000000000000000000000000000000000000000000000000000000 DUP2 MSTORE PUSH1 0x4 ADD PUSH2 0xFFB SWAP1 PUSH2 0x240A JUMP JUMPDEST PUSH1 0x40 MLOAD DUP1 SWAP2 SUB SWAP1 REVERT JUMPDEST PUSH2 0x100D DUP2 PUSH2 0x148E JUMP JUMPDEST POP JUMP JUMPDEST PUSH1 0x4 SLOAD DUP2 JUMP JUMPDEST PUSH2 0xC350 DUP2 JUMP JUMPDEST PUSH3 0x1ADB0 DUP2 JUMP JUMPDEST PUSH2 0x102B PUSH2 0x1486 JUMP JUMPDEST PUSH20 0xFFFFFFFFFFFFFFFFFFFFFFFFFFFFFFFFFFFFFFFF AND PUSH2 0x1049 PUSH2 0xBFB JUMP JUMPDEST PUSH20 0xFFFFFFFFFFFFFFFFFFFFFFFFFFFFFFFFFFFFFFFF AND EQ PUSH2 0x109F JUMPI PUSH1 0x40 MLOAD PUSH32 0x8C379A000000000000000000000000000000000000000000000000000000000 DUP2 MSTORE PUSH1 0x4 ADD PUSH2 0x1096 SWAP1 PUSH2 0x248A JUMP JUMPDEST PUSH1 0x40 MLOAD DUP1 SWAP2 SUB SWAP1 REVERT JUMPDEST DUP1 PUSH1 0x2 PUSH1 0x0 PUSH2 0x100 EXP DUP2 SLOAD DUP2 PUSH20 0xFFFFFFFFFFFFFFFFFFFFFFFFFFFFFFFFFFFFFFFF MUL NOT AND SWAP1 DUP4 PUSH20 0xFFFFFFFFFFFFFFFFFFFFFFFFFFFFFFFFFFFFFFFF AND MUL OR SWAP1 SSTORE POP POP JUMP JUMPDEST PUSH2 0xC350 PUSH3 0x186A0 ADD DUP2 JUMP JUMPDEST PUSH1 0x0 DUP2 DUP1 PUSH1 0x0 ADD SWAP1 PUSH2 0x1100 SWAP2 SWAP1 PUSH2 0x259E JUMP JUMPDEST PUSH1 0x0 ADD PUSH1 0x20 DUP2 ADD SWAP1 PUSH2 0x1112 SWAP2 SWAP1 PUSH2 0x1803 JUMP JUMPDEST SWAP1 POP SWAP2 SWAP1 POP JUMP JUMPDEST PUSH1 0x60 PUSH1 0x0 PUSH2 0x1125 PUSH2 0xA39 JUMP JUMPDEST PUSH20 0xFFFFFFFFFFFFFFFFFFFFFFFFFFFFFFFFFFFFFFFF AND CALLER PUSH20 0xFFFFFFFFFFFFFFFFFFFFFFFFFFFFFFFFFFFFFFFF AND EQ PUSH2 0x1192 JUMPI PUSH1 0x40 MLOAD PUSH32 0x8C379A000000000000000000000000000000000000000000000000000000000 DUP2 MSTORE PUSH1 0x4 ADD PUSH2 0x1189 SWAP1 PUSH2 0x246A JUMP JUMPDEST PUSH1 0x40 MLOAD DUP1 SWAP2 SUB SWAP1 REVERT JUMPDEST PUSH1 0x0 DUP1 PUSH1 0x0 DUP1 PUSH1 0x0 DUP1 DUP11 DUP11 DUP2 ADD SWAP1 PUSH2 0x11AA SWAP2 SWAP1 PUSH2 0x182C JUMP JUMPDEST SWAP6 POP SWAP6 POP SWAP6 POP SWAP6 POP SWAP6 POP SWAP6 POP PUSH1 0x3 PUSH1 0x0 SWAP1 SLOAD SWAP1 PUSH2 0x100 EXP SWAP1 DIV PUSH20 0xFFFFFFFFFFFFFFFFFFFFFFFFFFFFFFFFFFFFFFFF AND PUSH20 0xFFFFFFFFFFFFFFFFFFFFFFFFFFFFFFFFFFFFFFFF AND PUSH4 0xD505ACCF DUP8 PUSH1 0x1 PUSH1 0x0 SWAP1 SLOAD SWAP1 PUSH2 0x100 EXP SWAP1 DIV PUSH20 0xFFFFFFFFFFFFFFFFFFFFFFFFFFFFFFFFFFFFFFFF AND DUP9 DUP9 DUP9 DUP9 DUP9 PUSH1 0x40 MLOAD DUP9 PUSH4 0xFFFFFFFF AND PUSH1 0xE0 SHL DUP2 MSTORE PUSH1 0x4 ADD PUSH2 0x123F SWAP8 SWAP7 SWAP6 SWAP5 SWAP4 SWAP3 SWAP2 SWAP1 PUSH2 0x226A JUMP JUMPDEST PUSH1 0x0 PUSH1 0x40 MLOAD DUP1 DUP4 SUB DUP2 PUSH1 0x0 DUP8 DUP1 EXTCODESIZE ISZERO DUP1 ISZERO PUSH2 0x1259 JUMPI PUSH1 0x0 DUP1 REVERT JUMPDEST POP GAS CALL ISZERO DUP1 ISZERO PUSH2 0x126D JUMPI RETURNDATASIZE PUSH1 0x0 DUP1 RETURNDATACOPY RETURNDATASIZE PUSH1 0x0 REVERT JUMPDEST POP POP POP POP DUP14 DUP14 DUP14 DUP14 DUP14 PUSH1 0x40 MLOAD PUSH1 0x20 ADD PUSH2 0x128A SWAP6 SWAP5 SWAP4 SWAP3 SWAP2 SWAP1 PUSH2 0x24C5 JUMP JUMPDEST PUSH1 0x40 MLOAD PUSH1 0x20 DUP2 DUP4 SUB SUB DUP2 MSTORE SWAP1 PUSH1 0x40 MSTORE PUSH1 0x0 SWAP8 POP SWAP8 POP POP POP POP POP POP POP SWAP7 POP SWAP7 SWAP5 POP POP POP POP POP JUMP JUMPDEST PUSH1 0x3 PUSH1 0x0 SWAP1 SLOAD SWAP1 PUSH2 0x100 EXP SWAP1 DIV PUSH20 0xFFFFFFFFFFFFFFFFFFFFFFFFFFFFFFFFFFFFFFFF AND DUP2 JUMP JUMPDEST PUSH2 0x12DE PUSH2 0x1486 JUMP JUMPDEST PUSH20 0xFFFFFFFFFFFFFFFFFFFFFFFFFFFFFFFFFFFFFFFF AND PUSH2 0x12FC PUSH2 0xBFB JUMP JUMPDEST PUSH20 0xFFFFFFFFFFFFFFFFFFFFFFFFFFFFFFFFFFFFFFFF AND EQ PUSH2 0x1352 JUMPI PUSH1 0x40 MLOAD PUSH32 0x8C379A000000000000000000000000000000000000000000000000000000000 DUP2 MSTORE PUSH1 0x4 ADD PUSH2 0x1349 SWAP1 PUSH2 0x248A JUMP JUMPDEST PUSH1 0x40 MLOAD DUP1 SWAP2 SUB SWAP1 REVERT JUMPDEST PUSH1 0x0 PUSH20 0xFFFFFFFFFFFFFFFFFFFFFFFFFFFFFFFFFFFFFFFF AND DUP2 PUSH20 0xFFFFFFFFFFFFFFFFFFFFFFFFFFFFFFFFFFFFFFFF AND EQ ISZERO PUSH2 0x13C2 JUMPI PUSH1 0x40 MLOAD PUSH32 0x8C379A000000000000000000000000000000000000000000000000000000000 DUP2 MSTORE PUSH1 0x4 ADD PUSH2 0x13B9 SWAP1 PUSH2 0x23AA JUMP JUMPDEST PUSH1 0x40 MLOAD DUP1 SWAP2 SUB SWAP1 REVERT JUMPDEST DUP1 PUSH20 0xFFFFFFFFFFFFFFFFFFFFFFFFFFFFFFFFFFFFFFFF AND PUSH1 0x0 DUP1 SLOAD SWAP1 PUSH2 0x100 EXP SWAP1 DIV PUSH20 0xFFFFFFFFFFFFFFFFFFFFFFFFFFFFFFFFFFFFFFFF AND PUSH20 0xFFFFFFFFFFFFFFFFFFFFFFFFFFFFFFFFFFFFFFFF AND PUSH32 0x8BE0079C531659141344CD1FD0A4F28419497F9722A3DAAFE3B4186F6B6457E0 PUSH1 0x40 MLOAD PUSH1 0x40 MLOAD DUP1 SWAP2 SUB SWAP1 LOG3 DUP1 PUSH1 0x0 DUP1 PUSH2 0x100 EXP DUP2 SLOAD DUP2 PUSH20 0xFFFFFFFFFFFFFFFFFFFFFFFFFFFFFFFFFFFFFFFF MUL NOT AND SWAP1 DUP4 PUSH20 0xFFFFFFFFFFFFFFFFFFFFFFFFFFFFFFFFFFFFFFFF AND MUL OR SWAP1 SSTORE POP POP JUMP JUMPDEST PUSH3 0x186A0 DUP2 JUMP JUMPDEST PUSH1 0x0 CALLER SWAP1 POP SWAP1 JUMP JUMPDEST PUSH1 0x0 PUSH1 0x60 DUP3 DUP1 PUSH1 0x0 ADD SWAP1 PUSH2 0x14A2 SWAP2 SWAP1 PUSH2 0x259E JUMP JUMPDEST PUSH1 0x20 ADD PUSH1 0x20 DUP2 ADD SWAP1 PUSH2 0x14B4 SWAP2 SWAP1 PUSH2 0x1803 JUMP JUMPDEST PUSH20 0xFFFFFFFFFFFFFFFFFFFFFFFFFFFFFFFFFFFFFFFF AND PUSH4 0x572B6C05 PUSH1 0xE0 SHL DUP5 DUP1 PUSH1 0x20 ADD SWAP1 PUSH2 0x14E2 SWAP2 SWAP1 PUSH2 0x25C2 JUMP JUMPDEST PUSH1 0xE0 ADD PUSH1 0x20 DUP2 ADD SWAP1 PUSH2 0x14F4 SWAP2 SWAP1 PUSH2 0x1803 JUMP JUMPDEST PUSH1 0x40 MLOAD PUSH1 0x24 ADD PUSH2 0x1504 SWAP2 SWAP1 PUSH2 0x2234 JUMP JUMPDEST PUSH1 0x40 MLOAD PUSH1 0x20 DUP2 DUP4 SUB SUB DUP2 MSTORE SWAP1 PUSH1 0x40 MSTORE SWAP1 PUSH28 0xFFFFFFFFFFFFFFFFFFFFFFFFFFFFFFFFFFFFFFFFFFFFFFFFFFFFFFFF NOT AND PUSH1 0x20 DUP3 ADD DUP1 MLOAD PUSH28 0xFFFFFFFFFFFFFFFFFFFFFFFFFFFFFFFFFFFFFFFFFFFFFFFFFFFFFFFF DUP4 DUP2 DUP4 AND OR DUP4 MSTORE POP POP POP POP PUSH1 0x40 MLOAD PUSH2 0x156E SWAP2 SWAP1 PUSH2 0x221D JUMP JUMPDEST PUSH1 0x0 PUSH1 0x40 MLOAD DUP1 DUP4 SUB DUP2 DUP6 GAS STATICCALL SWAP2 POP POP RETURNDATASIZE DUP1 PUSH1 0x0 DUP2 EQ PUSH2 0x15A9 JUMPI PUSH1 0x40 MLOAD SWAP2 POP PUSH1 0x1F NOT PUSH1 0x3F RETURNDATASIZE ADD AND DUP3 ADD PUSH1 0x40 MSTORE RETURNDATASIZE DUP3 MSTORE RETURNDATASIZE PUSH1 0x0 PUSH1 0x20 DUP5 ADD RETURNDATACOPY PUSH2 0x15AE JUMP JUMPDEST PUSH1 0x60 SWAP2 POP JUMPDEST POP SWAP2 POP SWAP2 POP DUP2 PUSH2 0x15F3 JUMPI PUSH1 0x40 MLOAD PUSH32 0x8C379A000000000000000000000000000000000000000000000000000000000 DUP2 MSTORE PUSH1 0x4 ADD PUSH2 0x15EA SWAP1 PUSH2 0x244A JUMP JUMPDEST PUSH1 0x40 MLOAD DUP1 SWAP2 SUB SWAP1 REVERT JUMPDEST PUSH1 0x20 DUP2 MLOAD EQ PUSH2 0x1637 JUMPI PUSH1 0x40 MLOAD PUSH32 0x8C379A000000000000000000000000000000000000000000000000000000000 DUP2 MSTORE PUSH1 0x4 ADD PUSH2 0x162E SWAP1 PUSH2 0x242A JUMP JUMPDEST PUSH1 0x40 MLOAD DUP1 SWAP2 SUB SWAP1 REVERT JUMPDEST DUP1 DUP1 PUSH1 0x20 ADD SWAP1 MLOAD DUP2 ADD SWAP1 PUSH2 0x164B SWAP2 SWAP1 PUSH2 0x18F1 JUMP JUMPDEST PUSH2 0x168A JUMPI PUSH1 0x40 MLOAD PUSH32 0x8C379A000000000000000000000000000000000000000000000000000000000 DUP2 MSTORE PUSH1 0x4 ADD PUSH2 0x1681 SWAP1 PUSH2 0x238A JUMP JUMPDEST PUSH1 0x40 MLOAD DUP1 SWAP2 SUB SWAP1 REVERT JUMPDEST POP POP POP JUMP JUMPDEST PUSH1 0x40 MLOAD DUP1 PUSH1 0x60 ADD PUSH1 0x40 MSTORE DUP1 PUSH1 0x0 DUP2 MSTORE PUSH1 0x20 ADD PUSH1 0x0 DUP2 MSTORE PUSH1 0x20 ADD PUSH1 0x0 DUP2 MSTORE POP SWAP1 JUMP JUMPDEST PUSH1 0x0 DUP2 CALLDATALOAD SWAP1 POP PUSH2 0x16BF DUP2 PUSH2 0x286F JUMP JUMPDEST SWAP3 SWAP2 POP POP JUMP JUMPDEST PUSH1 0x0 DUP2 CALLDATALOAD SWAP1 POP PUSH2 0x16D4 DUP2 PUSH2 0x2886 JUMP JUMPDEST SWAP3 SWAP2 POP POP JUMP JUMPDEST PUSH1 0x0 DUP2 CALLDATALOAD SWAP1 POP PUSH2 0x16E9 DUP2 PUSH2 0x289D JUMP JUMPDEST SWAP3 SWAP2 POP POP JUMP JUMPDEST PUSH1 0x0 DUP2 MLOAD SWAP1 POP PUSH2 0x16FE DUP2 PUSH2 0x289D JUMP JUMPDEST SWAP3 SWAP2 POP POP JUMP JUMPDEST PUSH1 0x0 DUP2 CALLDATALOAD SWAP1 POP PUSH2 0x1713 DUP2 PUSH2 0x28B4 JUMP JUMPDEST SWAP3 SWAP2 POP POP JUMP JUMPDEST PUSH1 0x0 DUP1 DUP4 PUSH1 0x1F DUP5 ADD SLT PUSH2 0x172B JUMPI PUSH1 0x0 DUP1 REVERT JUMPDEST DUP3 CALLDATALOAD SWAP1 POP PUSH8 0xFFFFFFFFFFFFFFFF DUP2 GT ISZERO PUSH2 0x1744 JUMPI PUSH1 0x0 DUP1 REVERT JUMPDEST PUSH1 0x20 DUP4 ADD SWAP2 POP DUP4 PUSH1 0x1 DUP3 MUL DUP4 ADD GT ISZERO PUSH2 0x175C JUMPI PUSH1 0x0 DUP1 REVERT JUMPDEST SWAP3 POP SWAP3 SWAP1 POP JUMP JUMPDEST PUSH1 0x0 DUP2 CALLDATALOAD SWAP1 POP PUSH2 0x1772 DUP2 PUSH2 0x28CB JUMP JUMPDEST SWAP3 SWAP2 POP POP JUMP JUMPDEST PUSH1 0x0 DUP2 CALLDATALOAD SWAP1 POP PUSH2 0x1787 DUP2 PUSH2 0x28E2 JUMP JUMPDEST SWAP3 SWAP2 POP POP JUMP JUMPDEST PUSH1 0x0 PUSH2 0x100 DUP3 DUP5 SUB SLT ISZERO PUSH2 0x17A0 JUMPI PUSH1 0x0 DUP1 REVERT JUMPDEST DUP2 SWAP1 POP SWAP3 SWAP2 POP POP JUMP JUMPDEST PUSH1 0x0 PUSH1 0x40 DUP3 DUP5 SUB SLT ISZERO PUSH2 0x17BB JUMPI PUSH1 0x0 DUP1 REVERT JUMPDEST DUP2 SWAP1 POP SWAP3 SWAP2 POP POP JUMP JUMPDEST PUSH1 0x0 DUP2 CALLDATALOAD SWAP1 POP PUSH2 0x17D3 DUP2 PUSH2 0x28F9 JUMP JUMPDEST SWAP3 SWAP2 POP POP JUMP JUMPDEST PUSH1 0x0 DUP2 MLOAD SWAP1 POP PUSH2 0x17E8 DUP2 PUSH2 0x28F9 JUMP JUMPDEST SWAP3 SWAP2 POP POP JUMP JUMPDEST PUSH1 0x0 DUP2 CALLDATALOAD SWAP1 POP PUSH2 0x17FD DUP2 PUSH2 0x2910 JUMP JUMPDEST SWAP3 SWAP2 POP POP JUMP JUMPDEST PUSH1 0x0 PUSH1 0x20 DUP3 DUP5 SUB SLT ISZERO PUSH2 0x1815 JUMPI PUSH1 0x0 DUP1 REVERT JUMPDEST PUSH1 0x0 PUSH2 0x1823 DUP5 DUP3 DUP6 ADD PUSH2 0x16B0 JUMP JUMPDEST SWAP2 POP POP SWAP3 SWAP2 POP POP JUMP JUMPDEST PUSH1 0x0 DUP1 PUSH1 0x0 DUP1 PUSH1 0x0 DUP1 PUSH1 0xC0 DUP8 DUP10 SUB SLT ISZERO PUSH2 0x1845 JUMPI PUSH1 0x0 DUP1 REVERT JUMPDEST PUSH1 0x0 PUSH2 0x1853 DUP10 DUP3 DUP11 ADD PUSH2 0x16C5 JUMP JUMPDEST SWAP7 POP POP PUSH1 0x20 PUSH2 0x1864 DUP10 DUP3 DUP11 ADD PUSH2 0x17C4 JUMP JUMPDEST SWAP6 POP POP PUSH1 0x40 PUSH2 0x1875 DUP10 DUP3 DUP11 ADD PUSH2 0x17C4 JUMP JUMPDEST SWAP5 POP POP PUSH1 0x60 PUSH2 0x1886 DUP10 DUP3 DUP11 ADD PUSH2 0x17EE JUMP JUMPDEST SWAP4 POP POP PUSH1 0x80 PUSH2 0x1897 DUP10 DUP3 DUP11 ADD PUSH2 0x1704 JUMP JUMPDEST SWAP3 POP POP PUSH1 0xA0 PUSH2 0x18A8 DUP10 DUP3 DUP11 ADD PUSH2 0x1704 JUMP JUMPDEST SWAP2 POP POP SWAP3 SWAP6 POP SWAP3 SWAP6 POP SWAP3 SWAP6 JUMP JUMPDEST PUSH1 0x0 DUP1 PUSH1 0x40 DUP4 DUP6 SUB SLT ISZERO PUSH2 0x18C8 JUMPI PUSH1 0x0 DUP1 REVERT JUMPDEST PUSH1 0x0 PUSH2 0x18D6 DUP6 DUP3 DUP7 ADD PUSH2 0x16B0 JUMP JUMPDEST SWAP3 POP POP PUSH1 0x20 PUSH2 0x18E7 DUP6 DUP3 DUP7 ADD PUSH2 0x17C4 JUMP JUMPDEST SWAP2 POP POP SWAP3 POP SWAP3 SWAP1 POP JUMP JUMPDEST PUSH1 0x0 PUSH1 0x20 DUP3 DUP5 SUB SLT ISZERO PUSH2 0x1903 JUMPI PUSH1 0x0 DUP1 REVERT JUMPDEST PUSH1 0x0 PUSH2 0x1911 DUP5 DUP3 DUP6 ADD PUSH2 0x16EF JUMP JUMPDEST SWAP2 POP POP SWAP3 SWAP2 POP POP JUMP JUMPDEST PUSH1 0x0 DUP1 PUSH1 0x0 DUP1 PUSH1 0x0 PUSH1 0x80 DUP7 DUP9 SUB SLT ISZERO PUSH2 0x1932 JUMPI PUSH1 0x0 DUP1 REVERT JUMPDEST PUSH1 0x0 DUP7 ADD CALLDATALOAD PUSH8 0xFFFFFFFFFFFFFFFF DUP2 GT ISZERO PUSH2 0x194C JUMPI PUSH1 0x0 DUP1 REVERT JUMPDEST PUSH2 0x1958 DUP9 DUP3 DUP10 ADD PUSH2 0x1719 JUMP JUMPDEST SWAP6 POP SWAP6 POP POP PUSH1 0x20 PUSH2 0x196B DUP9 DUP3 DUP10 ADD PUSH2 0x16DA JUMP JUMPDEST SWAP4 POP POP PUSH1 0x40 PUSH2 0x197C DUP9 DUP3 DUP10 ADD PUSH2 0x17C4 JUMP JUMPDEST SWAP3 POP POP PUSH1 0x60 DUP7 ADD CALLDATALOAD PUSH8 0xFFFFFFFFFFFFFFFF DUP2 GT ISZERO PUSH2 0x1999 JUMPI PUSH1 0x0 DUP1 REVERT JUMPDEST PUSH2 0x19A5 DUP9 DUP3 DUP10 ADD PUSH2 0x178D JUMP JUMPDEST SWAP2 POP POP SWAP3 SWAP6 POP SWAP3 SWAP6 SWAP1 SWAP4 POP JUMP JUMPDEST PUSH1 0x0 PUSH1 0x20 DUP3 DUP5 SUB SLT ISZERO PUSH2 0x19C4 JUMPI PUSH1 0x0 DUP1 REVERT JUMPDEST PUSH1 0x0 PUSH2 0x19D2 DUP5 DUP3 DUP6 ADD PUSH2 0x1763 JUMP JUMPDEST SWAP2 POP POP SWAP3 SWAP2 POP POP JUMP JUMPDEST PUSH1 0x0 PUSH1 0x20 DUP3 DUP5 SUB SLT ISZERO PUSH2 0x19ED JUMPI PUSH1 0x0 DUP1 REVERT JUMPDEST PUSH1 0x0 PUSH2 0x19FB DUP5 DUP3 DUP6 ADD PUSH2 0x1778 JUMP JUMPDEST SWAP2 POP POP SWAP3 SWAP2 POP POP JUMP JUMPDEST PUSH1 0x0 PUSH1 0x20 DUP3 DUP5 SUB SLT ISZERO PUSH2 0x1A16 JUMPI PUSH1 0x0 DUP1 REVERT JUMPDEST PUSH1 0x0 DUP3 ADD CALLDATALOAD PUSH8 0xFFFFFFFFFFFFFFFF DUP2 GT ISZERO PUSH2 0x1A30 JUMPI PUSH1 0x0 DUP1 REVERT JUMPDEST PUSH2 0x1A3C DUP5 DUP3 DUP6 ADD PUSH2 0x17A9 JUMP JUMPDEST SWAP2 POP POP SWAP3 SWAP2 POP POP JUMP JUMPDEST PUSH1 0x0 DUP1 PUSH1 0x0 DUP1 PUSH1 0x0 DUP1 PUSH1 0x80 DUP8 DUP10 SUB SLT ISZERO PUSH2 0x1A5E JUMPI PUSH1 0x0 DUP1 REVERT JUMPDEST PUSH1 0x0 DUP8 ADD CALLDATALOAD PUSH8 0xFFFFFFFFFFFFFFFF DUP2 GT ISZERO PUSH2 0x1A78 JUMPI PUSH1 0x0 DUP1 REVERT JUMPDEST PUSH2 0x1A84 DUP10 DUP3 DUP11 ADD PUSH2 0x17A9 JUMP JUMPDEST SWAP7 POP POP PUSH1 0x20 DUP8 ADD CALLDATALOAD PUSH8 0xFFFFFFFFFFFFFFFF DUP2 GT ISZERO PUSH2 0x1AA1 JUMPI PUSH1 0x0 DUP1 REVERT JUMPDEST PUSH2 0x1AAD DUP10 DUP3 DUP11 ADD PUSH2 0x1719 JUMP JUMPDEST SWAP6 POP SWAP6 POP POP PUSH1 0x40 DUP8 ADD CALLDATALOAD PUSH8 0xFFFFFFFFFFFFFFFF DUP2 GT ISZERO PUSH2 0x1ACC JUMPI PUSH1 0x0 DUP1 REVERT JUMPDEST PUSH2 0x1AD8 DUP10 DUP3 DUP11 ADD PUSH2 0x1719 JUMP JUMPDEST SWAP4 POP SWAP4 POP POP PUSH1 0x60 PUSH2 0x1AEB DUP10 DUP3 DUP11 ADD PUSH2 0x17C4 JUMP JUMPDEST SWAP2 POP POP SWAP3 SWAP6 POP SWAP3 SWAP6 POP SWAP3 SWAP6 JUMP JUMPDEST PUSH1 0x0 PUSH1 0x20 DUP3 DUP5 SUB SLT ISZERO PUSH2 0x1B0A JUMPI PUSH1 0x0 DUP1 REVERT JUMPDEST PUSH1 0x0 PUSH2 0x1B18 DUP5 DUP3 DUP6 ADD PUSH2 0x17C4 JUMP JUMPDEST SWAP2 POP POP SWAP3 SWAP2 POP POP JUMP JUMPDEST PUSH1 0x0 PUSH1 0x20 DUP3 DUP5 SUB SLT ISZERO PUSH2 0x1B33 JUMPI PUSH1 0x0 DUP1 REVERT JUMPDEST PUSH1 0x0 PUSH2 0x1B41 DUP5 DUP3 DUP6 ADD PUSH2 0x17D9 JUMP JUMPDEST SWAP2 POP POP SWAP3 SWAP2 POP POP JUMP JUMPDEST PUSH1 0x0 DUP1 PUSH1 0x40 DUP4 DUP6 SUB SLT ISZERO PUSH2 0x1B5D JUMPI PUSH1 0x0 DUP1 REVERT JUMPDEST PUSH1 0x0 PUSH2 0x1B6B DUP6 DUP3 DUP7 ADD PUSH2 0x17C4 JUMP JUMPDEST SWAP3 POP POP PUSH1 0x20 PUSH2 0x1B7C DUP6 DUP3 DUP7 ADD PUSH2 0x16C5 JUMP JUMPDEST SWAP2 POP POP SWAP3 POP SWAP3 SWAP1 POP JUMP JUMPDEST PUSH2 0x1B8F DUP2 PUSH2 0x279E JUMP JUMPDEST DUP3 MSTORE POP POP JUMP JUMPDEST PUSH2 0x1B9E DUP2 PUSH2 0x271B JUMP JUMPDEST DUP3 MSTORE POP POP JUMP JUMPDEST PUSH2 0x1BAD DUP2 PUSH2 0x2709 JUMP JUMPDEST DUP3 MSTORE POP POP JUMP JUMPDEST PUSH2 0x1BBC DUP2 PUSH2 0x2709 JUMP JUMPDEST DUP3 MSTORE POP POP JUMP JUMPDEST PUSH2 0x1BCB DUP2 PUSH2 0x272D JUMP JUMPDEST DUP3 MSTORE POP POP JUMP JUMPDEST PUSH2 0x1BDA DUP2 PUSH2 0x2739 JUMP JUMPDEST DUP3 MSTORE POP POP JUMP JUMPDEST PUSH1 0x0 PUSH2 0x1BEC DUP4 DUP6 PUSH2 0x25FD JUMP JUMPDEST SWAP4 POP PUSH2 0x1BF9 DUP4 DUP6 DUP5 PUSH2 0x281C JUMP JUMPDEST PUSH2 0x1C02 DUP4 PUSH2 0x285E JUMP JUMPDEST DUP5 ADD SWAP1 POP SWAP4 SWAP3 POP POP POP JUMP JUMPDEST PUSH1 0x0 PUSH2 0x1C19 DUP4 DUP6 PUSH2 0x260E JUMP JUMPDEST SWAP4 POP PUSH2 0x1C26 DUP4 DUP6 DUP5 PUSH2 0x281C JUMP JUMPDEST PUSH2 0x1C2F DUP4 PUSH2 0x285E JUMP JUMPDEST DUP5 ADD SWAP1 POP SWAP4 SWAP3 POP POP POP JUMP JUMPDEST PUSH1 0x0 PUSH2 0x1C45 DUP3 PUSH2 0x25E7 JUMP JUMPDEST PUSH2 0x1C4F DUP2 DUP6 PUSH2 0x260E JUMP JUMPDEST SWAP4 POP PUSH2 0x1C5F DUP2 DUP6 PUSH1 0x20 DUP7 ADD PUSH2 0x282B JUMP JUMPDEST PUSH2 0x1C68 DUP2 PUSH2 0x285E JUMP JUMPDEST DUP5 ADD SWAP2 POP POP SWAP3 SWAP2 POP POP JUMP JUMPDEST PUSH1 0x0 PUSH2 0x1C7E DUP3 PUSH2 0x25E7 JUMP JUMPDEST PUSH2 0x1C88 DUP2 DUP6 PUSH2 0x261F JUMP JUMPDEST SWAP4 POP PUSH2 0x1C98 DUP2 DUP6 PUSH1 0x20 DUP7 ADD PUSH2 0x282B JUMP JUMPDEST DUP1 DUP5 ADD SWAP2 POP POP SWAP3 SWAP2 POP POP JUMP JUMPDEST PUSH2 0x1CAD DUP2 PUSH2 0x27B0 JUMP JUMPDEST DUP3 MSTORE POP POP JUMP JUMPDEST PUSH2 0x1CBC DUP2 PUSH2 0x27D4 JUMP JUMPDEST DUP3 MSTORE POP POP JUMP JUMPDEST PUSH1 0x0 PUSH2 0x1CCD DUP3 PUSH2 0x25F2 JUMP JUMPDEST PUSH2 0x1CD7 DUP2 DUP6 PUSH2 0x262A JUMP JUMPDEST SWAP4 POP PUSH2 0x1CE7 DUP2 DUP6 PUSH1 0x20 DUP7 ADD PUSH2 0x282B JUMP JUMPDEST PUSH2 0x1CF0 DUP2 PUSH2 0x285E JUMP JUMPDEST DUP5 ADD SWAP2 POP POP SWAP3 SWAP2 POP POP JUMP JUMPDEST PUSH1 0x0 PUSH2 0x1D08 PUSH1 0x1F DUP4 PUSH2 0x262A JUMP JUMPDEST SWAP2 POP PUSH32 0x696E76616C696420666F7277617264657220666F7220726563697069656E7400 PUSH1 0x0 DUP4 ADD MSTORE PUSH1 0x20 DUP3 ADD SWAP1 POP SWAP2 SWAP1 POP JUMP JUMPDEST PUSH1 0x0 PUSH2 0x1D48 PUSH1 0x26 DUP4 PUSH2 0x262A JUMP JUMPDEST SWAP2 POP PUSH32 0x4F776E61626C653A206E6577206F776E657220697320746865207A65726F2061 PUSH1 0x0 DUP4 ADD MSTORE PUSH32 0x6464726573730000000000000000000000000000000000000000000000000000 PUSH1 0x20 DUP4 ADD MSTORE PUSH1 0x40 DUP3 ADD SWAP1 POP SWAP2 SWAP1 POP JUMP JUMPDEST PUSH1 0x0 PUSH2 0x1DAE PUSH1 0x1E DUP4 PUSH2 0x262A JUMP JUMPDEST SWAP2 POP PUSH32 0x546F6B656E5061796D61737465722F42616C616E636520746F206C6F772E0000 PUSH1 0x0 DUP4 ADD MSTORE PUSH1 0x20 DUP3 ADD SWAP1 POP SWAP2 SWAP1 POP JUMP JUMPDEST PUSH1 0x0 PUSH2 0x1DEE PUSH1 0x19 DUP4 PUSH2 0x262A JUMP JUMPDEST SWAP2 POP PUSH32 0x72656C6179206875622061646472657373206E6F742073657400000000000000 PUSH1 0x0 DUP4 ADD MSTORE PUSH1 0x20 DUP3 ADD SWAP1 POP SWAP2 SWAP1 POP JUMP JUMPDEST PUSH1 0x0 PUSH2 0x1E2E PUSH1 0x18 DUP4 PUSH2 0x262A JUMP JUMPDEST SWAP2 POP PUSH32 0x466F72776172646572206973206E6F7420747275737465640000000000000000 PUSH1 0x0 DUP4 ADD MSTORE PUSH1 0x20 DUP3 ADD SWAP1 POP SWAP2 SWAP1 POP JUMP JUMPDEST PUSH1 0x0 PUSH2 0x1E6E PUSH1 0x2C DUP4 PUSH2 0x262A JUMP JUMPDEST SWAP2 POP PUSH32 0x697354727573746564466F727761726465722072657475726E656420696E7661 PUSH1 0x0 DUP4 ADD MSTORE PUSH32 0x6C696420726573706F6E73650000000000000000000000000000000000000000 PUSH1 0x20 DUP4 ADD MSTORE PUSH1 0x40 DUP3 ADD SWAP1 POP SWAP2 SWAP1 POP JUMP JUMPDEST PUSH1 0x0 PUSH2 0x1ED4 PUSH1 0x1B DUP4 PUSH2 0x262A JUMP JUMPDEST SWAP2 POP PUSH32 0x697354727573746564466F727761726465722072657665727465640000000000 PUSH1 0x0 DUP4 ADD MSTORE PUSH1 0x20 DUP3 ADD SWAP1 POP SWAP2 SWAP1 POP JUMP JUMPDEST PUSH1 0x0 PUSH2 0x1F14 PUSH1 0x27 DUP4 PUSH2 0x262A JUMP JUMPDEST SWAP2 POP PUSH32 0x46756E6374696F6E2063616E206F6E6C792062652063616C6C65642062792052 PUSH1 0x0 DUP4 ADD MSTORE PUSH32 0x656C617948756200000000000000000000000000000000000000000000000000 PUSH1 0x20 DUP4 ADD MSTORE PUSH1 0x40 DUP3 ADD SWAP1 POP SWAP2 SWAP1 POP JUMP JUMPDEST PUSH1 0x0 PUSH2 0x1F7A PUSH1 0x20 DUP4 PUSH2 0x262A JUMP JUMPDEST SWAP2 POP PUSH32 0x4F776E61626C653A2063616C6C6572206973206E6F7420746865206F776E6572 PUSH1 0x0 DUP4 ADD MSTORE PUSH1 0x20 DUP3 ADD SWAP1 POP SWAP2 SWAP1 POP JUMP JUMPDEST PUSH1 0x0 PUSH1 0xC0 DUP4 ADD PUSH2 0x1FC0 PUSH1 0x0 DUP5 ADD DUP5 PUSH2 0x263B JUMP JUMPDEST PUSH2 0x1FCD PUSH1 0x0 DUP7 ADD DUP3 PUSH2 0x1BA4 JUMP JUMPDEST POP PUSH2 0x1FDB PUSH1 0x20 DUP5 ADD DUP5 PUSH2 0x263B JUMP JUMPDEST PUSH2 0x1FE8 PUSH1 0x20 DUP7 ADD DUP3 PUSH2 0x1BA4 JUMP JUMPDEST POP PUSH2 0x1FF6 PUSH1 0x40 DUP5 ADD DUP5 PUSH2 0x26F2 JUMP JUMPDEST PUSH2 0x2003 PUSH1 0x40 DUP7 ADD DUP3 PUSH2 0x21F0 JUMP JUMPDEST POP PUSH2 0x2011 PUSH1 0x60 DUP5 ADD DUP5 PUSH2 0x26F2 JUMP JUMPDEST PUSH2 0x201E PUSH1 0x60 DUP7 ADD DUP3 PUSH2 0x21F0 JUMP JUMPDEST POP PUSH2 0x202C PUSH1 0x80 DUP5 ADD DUP5 PUSH2 0x26F2 JUMP JUMPDEST PUSH2 0x2039 PUSH1 0x80 DUP7 ADD DUP3 PUSH2 0x21F0 JUMP JUMPDEST POP PUSH2 0x2047 PUSH1 0xA0 DUP5 ADD DUP5 PUSH2 0x2652 JUMP JUMPDEST DUP6 DUP4 SUB PUSH1 0xA0 DUP8 ADD MSTORE PUSH2 0x205A DUP4 DUP3 DUP5 PUSH2 0x1BE0 JUMP JUMPDEST SWAP3 POP POP POP DUP1 SWAP2 POP POP SWAP3 SWAP2 POP POP JUMP JUMPDEST PUSH1 0x60 DUP3 ADD PUSH1 0x0 DUP3 ADD MLOAD PUSH2 0x207E PUSH1 0x0 DUP6 ADD DUP3 PUSH2 0x21F0 JUMP JUMPDEST POP PUSH1 0x20 DUP3 ADD MLOAD PUSH2 0x2091 PUSH1 0x20 DUP6 ADD DUP3 PUSH2 0x21F0 JUMP JUMPDEST POP PUSH1 0x40 DUP3 ADD MLOAD PUSH2 0x20A4 PUSH1 0x40 DUP6 ADD DUP3 PUSH2 0x21F0 JUMP JUMPDEST POP POP POP POP JUMP JUMPDEST PUSH1 0x0 PUSH2 0x100 DUP4 ADD PUSH2 0x20BE PUSH1 0x0 DUP5 ADD DUP5 PUSH2 0x26F2 JUMP JUMPDEST PUSH2 0x20CB PUSH1 0x0 DUP7 ADD DUP3 PUSH2 0x21F0 JUMP JUMPDEST POP PUSH2 0x20D9 PUSH1 0x20 DUP5 ADD DUP5 PUSH2 0x26F2 JUMP JUMPDEST PUSH2 0x20E6 PUSH1 0x20 DUP7 ADD DUP3 PUSH2 0x21F0 JUMP JUMPDEST POP PUSH2 0x20F4 PUSH1 0x40 DUP5 ADD DUP5 PUSH2 0x26F2 JUMP JUMPDEST PUSH2 0x2101 PUSH1 0x40 DUP7 ADD DUP3 PUSH2 0x21F0 JUMP JUMPDEST POP PUSH2 0x210F PUSH1 0x60 DUP5 ADD DUP5 PUSH2 0x263B JUMP JUMPDEST PUSH2 0x211C PUSH1 0x60 DUP7 ADD DUP3 PUSH2 0x1BA4 JUMP JUMPDEST POP PUSH2 0x212A PUSH1 0x80 DUP5 ADD DUP5 PUSH2 0x263B JUMP JUMPDEST PUSH2 0x2137 PUSH1 0x80 DUP7 ADD DUP3 PUSH2 0x1BA4 JUMP JUMPDEST POP PUSH2 0x2145 PUSH1 0xA0 DUP5 ADD DUP5 PUSH2 0x2652 JUMP JUMPDEST DUP6 DUP4 SUB PUSH1 0xA0 DUP8 ADD MSTORE PUSH2 0x2158 DUP4 DUP3 DUP5 PUSH2 0x1BE0 JUMP JUMPDEST SWAP3 POP POP POP PUSH2 0x2169 PUSH1 0xC0 DUP5 ADD DUP5 PUSH2 0x26F2 JUMP JUMPDEST PUSH2 0x2176 PUSH1 0xC0 DUP7 ADD DUP3 PUSH2 0x21F0 JUMP JUMPDEST POP PUSH2 0x2184 PUSH1 0xE0 DUP5 ADD DUP5 PUSH2 0x263B JUMP JUMPDEST PUSH2 0x2191 PUSH1 0xE0 DUP7 ADD DUP3 PUSH2 0x1BA4 JUMP JUMPDEST POP DUP1 SWAP2 POP POP SWAP3 SWAP2 POP POP JUMP JUMPDEST PUSH1 0x0 PUSH1 0x40 DUP4 ADD PUSH2 0x21AF PUSH1 0x0 DUP5 ADD DUP5 PUSH2 0x26A9 JUMP JUMPDEST DUP5 DUP3 SUB PUSH1 0x0 DUP7 ADD MSTORE PUSH2 0x21C1 DUP3 DUP3 PUSH2 0x1FAD JUMP JUMPDEST SWAP2 POP POP PUSH2 0x21D1 PUSH1 0x20 DUP5 ADD DUP5 PUSH2 0x26CD JUMP JUMPDEST DUP5 DUP3 SUB PUSH1 0x20 DUP7 ADD MSTORE PUSH2 0x21E3 DUP3 DUP3 PUSH2 0x20AA JUMP JUMPDEST SWAP2 POP POP DUP1 SWAP2 POP POP SWAP3 SWAP2 POP POP JUMP JUMPDEST PUSH2 0x21F9 DUP2 PUSH2 0x2787 JUMP JUMPDEST DUP3 MSTORE POP POP JUMP JUMPDEST PUSH2 0x2208 DUP2 PUSH2 0x2787 JUMP JUMPDEST DUP3 MSTORE POP POP JUMP JUMPDEST PUSH2 0x2217 DUP2 PUSH2 0x2791 JUMP JUMPDEST DUP3 MSTORE POP POP JUMP JUMPDEST PUSH1 0x0 PUSH2 0x2229 DUP3 DUP5 PUSH2 0x1C73 JUMP JUMPDEST SWAP2 POP DUP2 SWAP1 POP SWAP3 SWAP2 POP POP JUMP JUMPDEST PUSH1 0x0 PUSH1 0x20 DUP3 ADD SWAP1 POP PUSH2 0x2249 PUSH1 0x0 DUP4 ADD DUP5 PUSH2 0x1BB3 JUMP JUMPDEST SWAP3 SWAP2 POP POP JUMP JUMPDEST PUSH1 0x0 PUSH1 0x20 DUP3 ADD SWAP1 POP PUSH2 0x2264 PUSH1 0x0 DUP4 ADD DUP5 PUSH2 0x1B86 JUMP JUMPDEST SWAP3 SWAP2 POP POP JUMP JUMPDEST PUSH1 0x0 PUSH1 0xE0 DUP3 ADD SWAP1 POP PUSH2 0x227F PUSH1 0x0 DUP4 ADD DUP11 PUSH2 0x1BB3 JUMP JUMPDEST PUSH2 0x228C PUSH1 0x20 DUP4 ADD DUP10 PUSH2 0x1BB3 JUMP JUMPDEST PUSH2 0x2299 PUSH1 0x40 DUP4 ADD DUP9 PUSH2 0x21FF JUMP JUMPDEST PUSH2 0x22A6 PUSH1 0x60 DUP4 ADD DUP8 PUSH2 0x21FF JUMP JUMPDEST PUSH2 0x22B3 PUSH1 0x80 DUP4 ADD DUP7 PUSH2 0x220E JUMP JUMPDEST PUSH2 0x22C0 PUSH1 0xA0 DUP4 ADD DUP6 PUSH2 0x1BD1 JUMP JUMPDEST PUSH2 0x22CD PUSH1 0xC0 DUP4 ADD DUP5 PUSH2 0x1BD1 JUMP JUMPDEST SWAP9 SWAP8 POP POP POP POP POP POP POP POP JUMP JUMPDEST PUSH1 0x0 PUSH1 0x40 DUP3 ADD SWAP1 POP PUSH2 0x22EE PUSH1 0x0 DUP4 ADD DUP6 PUSH2 0x1BB3 JUMP JUMPDEST PUSH2 0x22FB PUSH1 0x20 DUP4 ADD DUP5 PUSH2 0x21FF JUMP JUMPDEST SWAP4 SWAP3 POP POP POP JUMP JUMPDEST PUSH1 0x0 PUSH1 0x40 DUP3 ADD SWAP1 POP DUP2 DUP2 SUB PUSH1 0x0 DUP4 ADD MSTORE PUSH2 0x231C DUP2 DUP6 PUSH2 0x1C3A JUMP JUMPDEST SWAP1 POP PUSH2 0x232B PUSH1 0x20 DUP4 ADD DUP5 PUSH2 0x1BC2 JUMP JUMPDEST SWAP4 SWAP3 POP POP POP JUMP JUMPDEST PUSH1 0x0 PUSH1 0x20 DUP3 ADD SWAP1 POP PUSH2 0x2347 PUSH1 0x0 DUP4 ADD DUP5 PUSH2 0x1CA4 JUMP JUMPDEST SWAP3 SWAP2 POP POP JUMP JUMPDEST PUSH1 0x0 PUSH1 0x20 DUP3 ADD SWAP1 POP PUSH2 0x2362 PUSH1 0x0 DUP4 ADD DUP5 PUSH2 0x1CB3 JUMP JUMPDEST SWAP3 SWAP2 POP POP JUMP JUMPDEST PUSH1 0x0 PUSH1 0x20 DUP3 ADD SWAP1 POP DUP2 DUP2 SUB PUSH1 0x0 DUP4 ADD MSTORE PUSH2 0x2382 DUP2 DUP5 PUSH2 0x1CC2 JUMP JUMPDEST SWAP1 POP SWAP3 SWAP2 POP POP JUMP JUMPDEST PUSH1 0x0 PUSH1 0x20 DUP3 ADD SWAP1 POP DUP2 DUP2 SUB PUSH1 0x0 DUP4 ADD MSTORE PUSH2 0x23A3 DUP2 PUSH2 0x1CFB JUMP JUMPDEST SWAP1 POP SWAP2 SWAP1 POP JUMP JUMPDEST PUSH1 0x0 PUSH1 0x20 DUP3 ADD SWAP1 POP DUP2 DUP2 SUB PUSH1 0x0 DUP4 ADD MSTORE PUSH2 0x23C3 DUP2 PUSH2 0x1D3B JUMP JUMPDEST SWAP1 POP SWAP2 SWAP1 POP JUMP JUMPDEST PUSH1 0x0 PUSH1 0x20 DUP3 ADD SWAP1 POP DUP2 DUP2 SUB PUSH1 0x0 DUP4 ADD MSTORE PUSH2 0x23E3 DUP2 PUSH2 0x1DA1 JUMP JUMPDEST SWAP1 POP SWAP2 SWAP1 POP JUMP JUMPDEST PUSH1 0x0 PUSH1 0x20 DUP3 ADD SWAP1 POP DUP2 DUP2 SUB PUSH1 0x0 DUP4 ADD MSTORE PUSH2 0x2403 DUP2 PUSH2 0x1DE1 JUMP JUMPDEST SWAP1 POP SWAP2 SWAP1 POP JUMP JUMPDEST PUSH1 0x0 PUSH1 0x20 DUP3 ADD SWAP1 POP DUP2 DUP2 SUB PUSH1 0x0 DUP4 ADD MSTORE PUSH2 0x2423 DUP2 PUSH2 0x1E21 JUMP JUMPDEST SWAP1 POP SWAP2 SWAP1 POP JUMP JUMPDEST PUSH1 0x0 PUSH1 0x20 DUP3 ADD SWAP1 POP DUP2 DUP2 SUB PUSH1 0x0 DUP4 ADD MSTORE PUSH2 0x2443 DUP2 PUSH2 0x1E61 JUMP JUMPDEST SWAP1 POP SWAP2 SWAP1 POP JUMP JUMPDEST PUSH1 0x0 PUSH1 0x20 DUP3 ADD SWAP1 POP DUP2 DUP2 SUB PUSH1 0x0 DUP4 ADD MSTORE PUSH2 0x2463 DUP2 PUSH2 0x1EC7 JUMP JUMPDEST SWAP1 POP SWAP2 SWAP1 POP JUMP JUMPDEST PUSH1 0x0 PUSH1 0x20 DUP3 ADD SWAP1 POP DUP2 DUP2 SUB PUSH1 0x0 DUP4 ADD MSTORE PUSH2 0x2483 DUP2 PUSH2 0x1F07 JUMP JUMPDEST SWAP1 POP SWAP2 SWAP1 POP JUMP JUMPDEST PUSH1 0x0 PUSH1 0x20 DUP3 ADD SWAP1 POP DUP2 DUP2 SUB PUSH1 0x0 DUP4 ADD MSTORE PUSH2 0x24A3 DUP2 PUSH2 0x1F6D JUMP JUMPDEST SWAP1 POP SWAP2 SWAP1 POP JUMP JUMPDEST PUSH1 0x0 PUSH1 0x60 DUP3 ADD SWAP1 POP PUSH2 0x24BF PUSH1 0x0 DUP4 ADD DUP5 PUSH2 0x2068 JUMP JUMPDEST SWAP3 SWAP2 POP POP JUMP JUMPDEST PUSH1 0x0 PUSH1 0x60 DUP3 ADD SWAP1 POP DUP2 DUP2 SUB PUSH1 0x0 DUP4 ADD MSTORE PUSH2 0x24DF DUP2 DUP9 PUSH2 0x219C JUMP JUMPDEST SWAP1 POP DUP2 DUP2 SUB PUSH1 0x20 DUP4 ADD MSTORE PUSH2 0x24F4 DUP2 DUP7 DUP9 PUSH2 0x1C0D JUMP JUMPDEST SWAP1 POP DUP2 DUP2 SUB PUSH1 0x40 DUP4 ADD MSTORE PUSH2 0x2509 DUP2 DUP5 DUP7 PUSH2 0x1C0D JUMP JUMPDEST SWAP1 POP SWAP7 SWAP6 POP POP POP POP POP POP JUMP JUMPDEST PUSH1 0x0 PUSH1 0x20 DUP3 ADD SWAP1 POP PUSH2 0x252A PUSH1 0x0 DUP4 ADD DUP5 PUSH2 0x21FF JUMP JUMPDEST SWAP3 SWAP2 POP POP JUMP JUMPDEST PUSH1 0x0 PUSH1 0x40 DUP3 ADD SWAP1 POP PUSH2 0x2545 PUSH1 0x0 DUP4 ADD DUP6 PUSH2 0x21FF JUMP JUMPDEST PUSH2 0x2552 PUSH1 0x20 DUP4 ADD DUP5 PUSH2 0x1B95 JUMP JUMPDEST SWAP4 SWAP3 POP POP POP JUMP JUMPDEST PUSH1 0x0 PUSH1 0x80 DUP3 ADD SWAP1 POP PUSH2 0x256E PUSH1 0x0 DUP4 ADD DUP8 PUSH2 0x21FF JUMP JUMPDEST PUSH2 0x257B PUSH1 0x20 DUP4 ADD DUP7 PUSH2 0x21FF JUMP JUMPDEST PUSH2 0x2588 PUSH1 0x40 DUP4 ADD DUP6 PUSH2 0x21FF JUMP JUMPDEST PUSH2 0x2595 PUSH1 0x60 DUP4 ADD DUP5 PUSH2 0x21FF JUMP JUMPDEST SWAP6 SWAP5 POP POP POP POP POP JUMP JUMPDEST PUSH1 0x0 DUP3 CALLDATALOAD PUSH1 0x1 PUSH1 0xC0 SUB DUP4 CALLDATASIZE SUB SUB DUP2 SLT PUSH2 0x25B6 JUMPI PUSH1 0x0 DUP1 REVERT JUMPDEST DUP1 DUP4 ADD SWAP2 POP POP SWAP3 SWAP2 POP POP JUMP JUMPDEST PUSH1 0x0 DUP3 CALLDATALOAD PUSH1 0x1 PUSH2 0x100 SUB DUP4 CALLDATASIZE SUB SUB DUP2 SLT PUSH2 0x25DB JUMPI PUSH1 0x0 DUP1 REVERT JUMPDEST DUP1 DUP4 ADD SWAP2 POP POP SWAP3 SWAP2 POP POP JUMP JUMPDEST PUSH1 0x0 DUP2 MLOAD SWAP1 POP SWAP2 SWAP1 POP JUMP JUMPDEST PUSH1 0x0 DUP2 MLOAD SWAP1 POP SWAP2 SWAP1 POP JUMP JUMPDEST PUSH1 0x0 DUP3 DUP3 MSTORE PUSH1 0x20 DUP3 ADD SWAP1 POP SWAP3 SWAP2 POP POP JUMP JUMPDEST PUSH1 0x0 DUP3 DUP3 MSTORE PUSH1 0x20 DUP3 ADD SWAP1 POP SWAP3 SWAP2 POP POP JUMP JUMPDEST PUSH1 0x0 DUP2 SWAP1 POP SWAP3 SWAP2 POP POP JUMP JUMPDEST PUSH1 0x0 DUP3 DUP3 MSTORE PUSH1 0x20 DUP3 ADD SWAP1 POP SWAP3 SWAP2 POP POP JUMP JUMPDEST PUSH1 0x0 PUSH2 0x264A PUSH1 0x20 DUP5 ADD DUP5 PUSH2 0x16B0 JUMP JUMPDEST SWAP1 POP SWAP3 SWAP2 POP POP JUMP JUMPDEST PUSH1 0x0 DUP1 DUP4 CALLDATALOAD PUSH1 0x1 PUSH1 0x20 SUB DUP5 CALLDATASIZE SUB SUB DUP2 SLT PUSH2 0x266B JUMPI PUSH1 0x0 DUP1 REVERT JUMPDEST DUP4 DUP2 ADD SWAP3 POP DUP3 CALLDATALOAD SWAP2 POP PUSH1 0x20 DUP4 ADD SWAP3 POP PUSH8 0xFFFFFFFFFFFFFFFF DUP3 GT ISZERO PUSH2 0x268F JUMPI PUSH1 0x0 DUP1 REVERT JUMPDEST PUSH1 0x1 DUP3 MUL CALLDATASIZE SUB DUP5 SGT ISZERO PUSH2 0x26A1 JUMPI PUSH1 0x0 DUP1 REVERT JUMPDEST POP SWAP3 POP SWAP3 SWAP1 POP JUMP JUMPDEST PUSH1 0x0 DUP3 CALLDATALOAD PUSH1 0x1 PUSH1 0xC0 SUB DUP4 CALLDATASIZE SUB SUB DUP2 SLT PUSH2 0x26C1 JUMPI PUSH1 0x0 DUP1 REVERT JUMPDEST DUP3 DUP2 ADD SWAP2 POP POP SWAP3 SWAP2 POP POP JUMP JUMPDEST PUSH1 0x0 DUP3 CALLDATALOAD PUSH1 0x1 PUSH2 0x100 SUB DUP4 CALLDATASIZE SUB SUB DUP2 SLT PUSH2 0x26E6 JUMPI PUSH1 0x0 DUP1 REVERT JUMPDEST DUP3 DUP2 ADD SWAP2 POP POP SWAP3 SWAP2 POP POP JUMP JUMPDEST PUSH1 0x0 PUSH2 0x2701 PUSH1 0x20 DUP5 ADD DUP5 PUSH2 0x17C4 JUMP JUMPDEST SWAP1 POP SWAP3 SWAP2 POP POP JUMP JUMPDEST PUSH1 0x0 PUSH2 0x2714 DUP3 PUSH2 0x2767 JUMP JUMPDEST SWAP1 POP SWAP2 SWAP1 POP JUMP JUMPDEST PUSH1 0x0 PUSH2 0x2726 DUP3 PUSH2 0x2767 JUMP JUMPDEST SWAP1 POP SWAP2 SWAP1 POP JUMP JUMPDEST PUSH1 0x0 DUP2 ISZERO ISZERO SWAP1 POP SWAP2 SWAP1 POP JUMP JUMPDEST PUSH1 0x0 DUP2 SWAP1 POP SWAP2 SWAP1 POP JUMP JUMPDEST PUSH1 0x0 PUSH2 0x274E DUP3 PUSH2 0x2709 JUMP JUMPDEST SWAP1 POP SWAP2 SWAP1 POP JUMP JUMPDEST PUSH1 0x0 PUSH2 0x2760 DUP3 PUSH2 0x2709 JUMP JUMPDEST SWAP1 POP SWAP2 SWAP1 POP JUMP JUMPDEST PUSH1 0x0 PUSH20 0xFFFFFFFFFFFFFFFFFFFFFFFFFFFFFFFFFFFFFFFF DUP3 AND SWAP1 POP SWAP2 SWAP1 POP JUMP JUMPDEST PUSH1 0x0 DUP2 SWAP1 POP SWAP2 SWAP1 POP JUMP JUMPDEST PUSH1 0x0 PUSH1 0xFF DUP3 AND SWAP1 POP SWAP2 SWAP1 POP JUMP JUMPDEST PUSH1 0x0 PUSH2 0x27A9 DUP3 PUSH2 0x27F8 JUMP JUMPDEST SWAP1 POP SWAP2 SWAP1 POP JUMP JUMPDEST PUSH1 0x0 PUSH2 0x27BB DUP3 PUSH2 0x27C2 JUMP JUMPDEST SWAP1 POP SWAP2 SWAP1 POP JUMP JUMPDEST PUSH1 0x0 PUSH2 0x27CD DUP3 PUSH2 0x2767 JUMP JUMPDEST SWAP1 POP SWAP2 SWAP1 POP JUMP JUMPDEST PUSH1 0x0 PUSH2 0x27DF DUP3 PUSH2 0x27E6 JUMP JUMPDEST SWAP1 POP SWAP2 SWAP1 POP JUMP JUMPDEST PUSH1 0x0 PUSH2 0x27F1 DUP3 PUSH2 0x2767 JUMP JUMPDEST SWAP1 POP SWAP2 SWAP1 POP JUMP JUMPDEST PUSH1 0x0 PUSH2 0x2803 DUP3 PUSH2 0x280A JUMP JUMPDEST SWAP1 POP SWAP2 SWAP1 POP JUMP JUMPDEST PUSH1 0x0 PUSH2 0x2815 DUP3 PUSH2 0x2767 JUMP JUMPDEST SWAP1 POP SWAP2 SWAP1 POP JUMP JUMPDEST DUP3 DUP2 DUP4 CALLDATACOPY PUSH1 0x0 DUP4 DUP4 ADD MSTORE POP POP POP JUMP JUMPDEST PUSH1 0x0 JUMPDEST DUP4 DUP2 LT ISZERO PUSH2 0x2849 JUMPI DUP1 DUP3 ADD MLOAD DUP2 DUP5 ADD MSTORE PUSH1 0x20 DUP2 ADD SWAP1 POP PUSH2 0x282E JUMP JUMPDEST DUP4 DUP2 GT ISZERO PUSH2 0x2858 JUMPI PUSH1 0x0 DUP5 DUP5 ADD MSTORE JUMPDEST POP POP POP POP JUMP JUMPDEST PUSH1 0x0 PUSH1 0x1F NOT PUSH1 0x1F DUP4 ADD AND SWAP1 POP SWAP2 SWAP1 POP JUMP JUMPDEST PUSH2 0x2878 DUP2 PUSH2 0x2709 JUMP JUMPDEST DUP2 EQ PUSH2 0x2883 JUMPI PUSH1 0x0 DUP1 REVERT JUMPDEST POP JUMP JUMPDEST PUSH2 0x288F DUP2 PUSH2 0x271B JUMP JUMPDEST DUP2 EQ PUSH2 0x289A JUMPI PUSH1 0x0 DUP1 REVERT JUMPDEST POP JUMP JUMPDEST PUSH2 0x28A6 DUP2 PUSH2 0x272D JUMP JUMPDEST DUP2 EQ PUSH2 0x28B1 JUMPI PUSH1 0x0 DUP1 REVERT JUMPDEST POP JUMP JUMPDEST PUSH2 0x28BD DUP2 PUSH2 0x2739 JUMP JUMPDEST DUP2 EQ PUSH2 0x28C8 JUMPI PUSH1 0x0 DUP1 REVERT JUMPDEST POP JUMP JUMPDEST PUSH2 0x28D4 DUP2 PUSH2 0x2743 JUMP JUMPDEST DUP2 EQ PUSH2 0x28DF JUMPI PUSH1 0x0 DUP1 REVERT JUMPDEST POP JUMP JUMPDEST PUSH2 0x28EB DUP2 PUSH2 0x2755 JUMP JUMPDEST DUP2 EQ PUSH2 0x28F6 JUMPI PUSH1 0x0 DUP1 REVERT JUMPDEST POP JUMP JUMPDEST PUSH2 0x2902 DUP2 PUSH2 0x2787 JUMP JUMPDEST DUP2 EQ PUSH2 0x290D JUMPI PUSH1 0x0 DUP1 REVERT JUMPDEST POP JUMP JUMPDEST PUSH2 0x2919 DUP2 PUSH2 0x2791 JUMP JUMPDEST DUP2 EQ PUSH2 0x2924 JUMPI PUSH1 0x0 DUP1 REVERT JUMPDEST POP JUMP INVALID LOG2 PUSH5 0x6970667358 0x22 SLT KECCAK256 SWAP8 SDIV CALLDATALOAD CALL SWAP13 SELFBALANCE RETURN STOP DUP15 0xD2 0xF7 PUSH17 0x7A0399B8F9CC200A37531EE9C12D1F9143 0xB5 GASPRICE 0xE7 PUSH5 0x736F6C6343 STOP MOD 0xC STOP CALLER "
		},
		"gasEstimates": {
			"creation": {
				"codeDepositCost": "2117800",
				"executionCost": "infinite",
				"totalCost": "infinite"
			},
			"external": {
				"FORWARDER_HUB_OVERHEAD()": "418",
				"PAYMASTER_ACCEPTANCE_BUDGET()": "357",
				"POST_RELAYED_CALL_GAS_LIMIT()": "440",
				"PRE_RELAYED_CALL_GAS_LIMIT()": "461",
				"_token()": "1345",
				"_verifyForwarder(((address,address,uint256,uint256,uint256,bytes),(uint256,uint256,uint256,address,address,bytes,uint256,address)))": "infinite",
				"gasUsedByPost()": "1196",
				"getGasLimits()": "infinite",
				"getHubAddr()": "1356",
				"getPayer(((address,address,uint256,uint256,uint256,bytes),(uint256,uint256,uint256,address,address,bytes,uint256,address)))": "infinite",
				"getRelayHubDeposit()": "infinite",
				"getTokenBalance()": "infinite",
				"owner()": "1311",
				"postRelayedCall(bytes,bool,uint256,(uint256,uint256,uint256,address,address,bytes,uint256,address))": "infinite",
				"preRelayedCall(((address,address,uint256,uint256,uint256,bytes),(uint256,uint256,uint256,address,address,bytes,uint256,address)),bytes,bytes,uint256)": "infinite",
				"renounceOwnership()": "24441",
				"setPostGasUsage(uint256)": "21450",
				"setRelayHub(address)": "22328",
				"setTrustedForwarder(address)": "22438",
				"transferOwnership(address)": "24788",
				"trustedForwarder()": "1302",
				"versionPaymaster()": "infinite",
				"withdrawRelayHubDepositTo(uint256,address)": "infinite",
				"withdrawToken(address,uint256)": "infinite"
			},
			"internal": {
				"_calculatePreCharge(contract IERC20Permit,struct GsnTypes.RelayRequest calldata,uint256)": "infinite"
			}
		},
		"methodIdentifiers": {
			"FORWARDER_HUB_OVERHEAD()": "b90b41cf",
			"PAYMASTER_ACCEPTANCE_BUDGET()": "df463a66",
			"POST_RELAYED_CALL_GAS_LIMIT()": "bbdaa3c9",
			"PRE_RELAYED_CALL_GAS_LIMIT()": "f9c002f7",
			"_token()": "ecd0c0c3",
			"_verifyForwarder(((address,address,uint256,uint256,uint256,bytes),(uint256,uint256,uint256,address,address,bytes,uint256,address)))": "9ea09211",
			"gasUsedByPost()": "ad12e50e",
			"getGasLimits()": "5ea54eee",
			"getHubAddr()": "74e861d6",
			"getPayer(((address,address,uint256,uint256,uint256,bytes),(uint256,uint256,uint256,address,address,bytes,uint256,address)))": "e3712d66",
			"getRelayHubDeposit()": "2afe31c1",
			"getTokenBalance()": "82b2e257",
			"owner()": "8da5cb5b",
			"postRelayedCall(bytes,bool,uint256,(uint256,uint256,uint256,address,address,bytes,uint256,address))": "8e9483b0",
			"preRelayedCall(((address,address,uint256,uint256,uint256,bytes),(uint256,uint256,uint256,address,address,bytes,uint256,address)),bytes,bytes,uint256)": "e5c12446",
			"renounceOwnership()": "715018a6",
			"setPostGasUsage(uint256)": "6d7c3e2b",
			"setRelayHub(address)": "7bb05264",
			"setTrustedForwarder(address)": "da742228",
			"transferOwnership(address)": "f2fde38b",
			"trustedForwarder()": "7da0a877",
			"versionPaymaster()": "921276ea",
			"withdrawRelayHubDepositTo(uint256,address)": "2d14c4b7",
			"withdrawToken(address,uint256)": "9e281a98"
		}
	},
	"abi": [
		{
			"inputs": [
				{
					"internalType": "address",
					"name": "_uniswapAddress",
					"type": "address"
				},
				{
					"internalType": "address",
					"name": "_tokenAddress",
					"type": "address"
				}
			],
			"stateMutability": "nonpayable",
			"type": "constructor"
		},
		{
			"anonymous": false,
			"inputs": [
				{
					"indexed": true,
					"internalType": "address",
					"name": "previousOwner",
					"type": "address"
				},
				{
					"indexed": true,
					"internalType": "address",
					"name": "newOwner",
					"type": "address"
				}
			],
			"name": "OwnershipTransferred",
			"type": "event"
		},
		{
			"anonymous": false,
			"inputs": [
				{
					"indexed": false,
					"internalType": "address",
					"name": "payer",
					"type": "address"
				},
				{
					"indexed": false,
					"internalType": "uint256",
					"name": "tokenPreCharge",
					"type": "uint256"
				}
			],
			"name": "PreCall",
			"type": "event"
		},
		{
			"anonymous": false,
			"inputs": [
				{
					"indexed": false,
					"internalType": "uint256",
					"name": "gasUseWithoutPost",
					"type": "uint256"
				},
				{
					"indexed": false,
					"internalType": "uint256",
					"name": "gasJustPost",
					"type": "uint256"
				},
				{
					"indexed": false,
					"internalType": "uint256",
					"name": "ethActualCharge",
					"type": "uint256"
				},
				{
					"indexed": false,
					"internalType": "uint256",
					"name": "tokenActualCharge",
					"type": "uint256"
				}
			],
			"name": "TokensCharged",
			"type": "event"
		},
		{
			"inputs": [],
			"name": "FORWARDER_HUB_OVERHEAD",
			"outputs": [
				{
					"internalType": "uint256",
					"name": "",
					"type": "uint256"
				}
			],
			"stateMutability": "view",
			"type": "function"
		},
		{
			"inputs": [],
			"name": "PAYMASTER_ACCEPTANCE_BUDGET",
			"outputs": [
				{
					"internalType": "uint256",
					"name": "",
					"type": "uint256"
				}
			],
			"stateMutability": "view",
			"type": "function"
		},
		{
			"inputs": [],
			"name": "POST_RELAYED_CALL_GAS_LIMIT",
			"outputs": [
				{
					"internalType": "uint256",
					"name": "",
					"type": "uint256"
				}
			],
			"stateMutability": "view",
			"type": "function"
		},
		{
			"inputs": [],
			"name": "PRE_RELAYED_CALL_GAS_LIMIT",
			"outputs": [
				{
					"internalType": "uint256",
					"name": "",
					"type": "uint256"
				}
			],
			"stateMutability": "view",
			"type": "function"
		},
		{
			"inputs": [],
			"name": "_token",
			"outputs": [
				{
					"internalType": "contract IERC20Permit",
					"name": "",
					"type": "address"
				}
			],
			"stateMutability": "view",
			"type": "function"
		},
		{
			"inputs": [
				{
					"components": [
						{
							"components": [
								{
									"internalType": "address",
									"name": "from",
									"type": "address"
								},
								{
									"internalType": "address",
									"name": "to",
									"type": "address"
								},
								{
									"internalType": "uint256",
									"name": "value",
									"type": "uint256"
								},
								{
									"internalType": "uint256",
									"name": "gas",
									"type": "uint256"
								},
								{
									"internalType": "uint256",
									"name": "nonce",
									"type": "uint256"
								},
								{
									"internalType": "bytes",
									"name": "data",
									"type": "bytes"
								}
							],
							"internalType": "struct IForwarder.ForwardRequest",
							"name": "request",
							"type": "tuple"
						},
						{
							"components": [
								{
									"internalType": "uint256",
									"name": "gasPrice",
									"type": "uint256"
								},
								{
									"internalType": "uint256",
									"name": "pctRelayFee",
									"type": "uint256"
								},
								{
									"internalType": "uint256",
									"name": "baseRelayFee",
									"type": "uint256"
								},
								{
									"internalType": "address",
									"name": "relayWorker",
									"type": "address"
								},
								{
									"internalType": "address",
									"name": "paymaster",
									"type": "address"
								},
								{
									"internalType": "bytes",
									"name": "paymasterData",
									"type": "bytes"
								},
								{
									"internalType": "uint256",
									"name": "clientId",
									"type": "uint256"
								},
								{
									"internalType": "address",
									"name": "forwarder",
									"type": "address"
								}
							],
							"internalType": "struct GsnTypes.RelayData",
							"name": "relayData",
							"type": "tuple"
						}
					],
					"internalType": "struct GsnTypes.RelayRequest",
					"name": "relayRequest",
					"type": "tuple"
				}
			],
			"name": "_verifyForwarder",
			"outputs": [],
			"stateMutability": "view",
			"type": "function"
		},
		{
			"inputs": [],
			"name": "gasUsedByPost",
			"outputs": [
				{
					"internalType": "uint256",
					"name": "",
					"type": "uint256"
				}
			],
			"stateMutability": "view",
			"type": "function"
		},
		{
			"inputs": [],
			"name": "getGasLimits",
			"outputs": [
				{
					"components": [
						{
							"internalType": "uint256",
							"name": "acceptanceBudget",
							"type": "uint256"
						},
						{
							"internalType": "uint256",
							"name": "preRelayedCallGasLimit",
							"type": "uint256"
						},
						{
							"internalType": "uint256",
							"name": "postRelayedCallGasLimit",
							"type": "uint256"
						}
					],
					"internalType": "struct IPaymaster.GasLimits",
					"name": "limits",
					"type": "tuple"
				}
			],
			"stateMutability": "view",
			"type": "function"
		},
		{
			"inputs": [],
			"name": "getHubAddr",
			"outputs": [
				{
					"internalType": "address",
					"name": "",
					"type": "address"
				}
			],
			"stateMutability": "view",
			"type": "function"
		},
		{
			"inputs": [
				{
					"components": [
						{
							"components": [
								{
									"internalType": "address",
									"name": "from",
									"type": "address"
								},
								{
									"internalType": "address",
									"name": "to",
									"type": "address"
								},
								{
									"internalType": "uint256",
									"name": "value",
									"type": "uint256"
								},
								{
									"internalType": "uint256",
									"name": "gas",
									"type": "uint256"
								},
								{
									"internalType": "uint256",
									"name": "nonce",
									"type": "uint256"
								},
								{
									"internalType": "bytes",
									"name": "data",
									"type": "bytes"
								}
							],
							"internalType": "struct IForwarder.ForwardRequest",
							"name": "request",
							"type": "tuple"
						},
						{
							"components": [
								{
									"internalType": "uint256",
									"name": "gasPrice",
									"type": "uint256"
								},
								{
									"internalType": "uint256",
									"name": "pctRelayFee",
									"type": "uint256"
								},
								{
									"internalType": "uint256",
									"name": "baseRelayFee",
									"type": "uint256"
								},
								{
									"internalType": "address",
									"name": "relayWorker",
									"type": "address"
								},
								{
									"internalType": "address",
									"name": "paymaster",
									"type": "address"
								},
								{
									"internalType": "bytes",
									"name": "paymasterData",
									"type": "bytes"
								},
								{
									"internalType": "uint256",
									"name": "clientId",
									"type": "uint256"
								},
								{
									"internalType": "address",
									"name": "forwarder",
									"type": "address"
								}
							],
							"internalType": "struct GsnTypes.RelayData",
							"name": "relayData",
							"type": "tuple"
						}
					],
					"internalType": "struct GsnTypes.RelayRequest",
					"name": "relayRequest",
					"type": "tuple"
				}
			],
			"name": "getPayer",
			"outputs": [
				{
					"internalType": "address",
					"name": "",
					"type": "address"
				}
			],
			"stateMutability": "view",
			"type": "function"
		},
		{
			"inputs": [],
			"name": "getRelayHubDeposit",
			"outputs": [
				{
					"internalType": "uint256",
					"name": "",
					"type": "uint256"
				}
			],
			"stateMutability": "view",
			"type": "function"
		},
		{
			"inputs": [],
			"name": "getTokenBalance",
			"outputs": [
				{
					"internalType": "uint256",
					"name": "",
					"type": "uint256"
				}
			],
			"stateMutability": "view",
			"type": "function"
		},
		{
			"inputs": [],
			"name": "owner",
			"outputs": [
				{
					"internalType": "address",
					"name": "",
					"type": "address"
				}
			],
			"stateMutability": "view",
			"type": "function"
		},
		{
			"inputs": [
				{
					"internalType": "bytes",
					"name": "context",
					"type": "bytes"
				},
				{
					"internalType": "bool",
					"name": "success",
					"type": "bool"
				},
				{
					"internalType": "uint256",
					"name": "gasUseWithoutPost",
					"type": "uint256"
				},
				{
					"components": [
						{
							"internalType": "uint256",
							"name": "gasPrice",
							"type": "uint256"
						},
						{
							"internalType": "uint256",
							"name": "pctRelayFee",
							"type": "uint256"
						},
						{
							"internalType": "uint256",
							"name": "baseRelayFee",
							"type": "uint256"
						},
						{
							"internalType": "address",
							"name": "relayWorker",
							"type": "address"
						},
						{
							"internalType": "address",
							"name": "paymaster",
							"type": "address"
						},
						{
							"internalType": "bytes",
							"name": "paymasterData",
							"type": "bytes"
						},
						{
							"internalType": "uint256",
							"name": "clientId",
							"type": "uint256"
						},
						{
							"internalType": "address",
							"name": "forwarder",
							"type": "address"
						}
					],
					"internalType": "struct GsnTypes.RelayData",
					"name": "relayData",
					"type": "tuple"
				}
			],
			"name": "postRelayedCall",
			"outputs": [],
			"stateMutability": "nonpayable",
			"type": "function"
		},
		{
			"inputs": [
				{
					"components": [
						{
							"components": [
								{
									"internalType": "address",
									"name": "from",
									"type": "address"
								},
								{
									"internalType": "address",
									"name": "to",
									"type": "address"
								},
								{
									"internalType": "uint256",
									"name": "value",
									"type": "uint256"
								},
								{
									"internalType": "uint256",
									"name": "gas",
									"type": "uint256"
								},
								{
									"internalType": "uint256",
									"name": "nonce",
									"type": "uint256"
								},
								{
									"internalType": "bytes",
									"name": "data",
									"type": "bytes"
								}
							],
							"internalType": "struct IForwarder.ForwardRequest",
							"name": "request",
							"type": "tuple"
						},
						{
							"components": [
								{
									"internalType": "uint256",
									"name": "gasPrice",
									"type": "uint256"
								},
								{
									"internalType": "uint256",
									"name": "pctRelayFee",
									"type": "uint256"
								},
								{
									"internalType": "uint256",
									"name": "baseRelayFee",
									"type": "uint256"
								},
								{
									"internalType": "address",
									"name": "relayWorker",
									"type": "address"
								},
								{
									"internalType": "address",
									"name": "paymaster",
									"type": "address"
								},
								{
									"internalType": "bytes",
									"name": "paymasterData",
									"type": "bytes"
								},
								{
									"internalType": "uint256",
									"name": "clientId",
									"type": "uint256"
								},
								{
									"internalType": "address",
									"name": "forwarder",
									"type": "address"
								}
							],
							"internalType": "struct GsnTypes.RelayData",
							"name": "relayData",
							"type": "tuple"
						}
					],
					"internalType": "struct GsnTypes.RelayRequest",
					"name": "relayRequest",
					"type": "tuple"
				},
				{
					"internalType": "bytes",
					"name": "signature",
					"type": "bytes"
				},
				{
					"internalType": "bytes",
					"name": "approvalData",
					"type": "bytes"
				},
				{
					"internalType": "uint256",
					"name": "maxPossibleGas",
					"type": "uint256"
				}
			],
			"name": "preRelayedCall",
			"outputs": [
				{
					"internalType": "bytes",
					"name": "context",
					"type": "bytes"
				},
				{
					"internalType": "bool",
					"name": "revertOnRecipientRevert",
					"type": "bool"
				}
			],
			"stateMutability": "nonpayable",
			"type": "function"
		},
		{
			"inputs": [],
			"name": "renounceOwnership",
			"outputs": [],
			"stateMutability": "nonpayable",
			"type": "function"
		},
		{
			"inputs": [
				{
					"internalType": "uint256",
					"name": "_gasUsedByPost",
					"type": "uint256"
				}
			],
			"name": "setPostGasUsage",
			"outputs": [],
			"stateMutability": "nonpayable",
			"type": "function"
		},
		{
			"inputs": [
				{
					"internalType": "contract IRelayHub",
					"name": "hub",
					"type": "address"
				}
			],
			"name": "setRelayHub",
			"outputs": [],
			"stateMutability": "nonpayable",
			"type": "function"
		},
		{
			"inputs": [
				{
					"internalType": "contract IForwarder",
					"name": "forwarder",
					"type": "address"
				}
			],
			"name": "setTrustedForwarder",
			"outputs": [],
			"stateMutability": "nonpayable",
			"type": "function"
		},
		{
			"inputs": [
				{
					"internalType": "address",
					"name": "newOwner",
					"type": "address"
				}
			],
			"name": "transferOwnership",
			"outputs": [],
			"stateMutability": "nonpayable",
			"type": "function"
		},
		{
			"inputs": [],
			"name": "trustedForwarder",
			"outputs": [
				{
					"internalType": "contract IForwarder",
					"name": "",
					"type": "address"
				}
			],
			"stateMutability": "view",
			"type": "function"
		},
		{
			"inputs": [],
			"name": "versionPaymaster",
			"outputs": [
				{
					"internalType": "string",
					"name": "",
					"type": "string"
				}
			],
			"stateMutability": "view",
			"type": "function"
		},
		{
			"inputs": [
				{
					"internalType": "uint256",
					"name": "amount",
					"type": "uint256"
				},
				{
					"internalType": "address payable",
					"name": "target",
					"type": "address"
				}
			],
			"name": "withdrawRelayHubDepositTo",
			"outputs": [],
			"stateMutability": "nonpayable",
			"type": "function"
		},
		{
			"inputs": [
				{
					"internalType": "address",
					"name": "account",
					"type": "address"
				},
				{
					"internalType": "uint256",
					"name": "amount",
					"type": "uint256"
				}
			],
			"name": "withdrawToken",
			"outputs": [],
			"stateMutability": "nonpayable",
			"type": "function"
		},
		{
			"stateMutability": "payable",
			"type": "receive"
		}
	]
}