{
  "_format": "hh-sol-artifact-1",
  "contractName": "TokenPaymasterPermitPaymaster",
  "sourceName": "contracts/gsn/TokenPaymasterPermitPaymaster.sol",
  "abi": [
    {
      "inputs": [],
      "stateMutability": "nonpayable",
      "type": "constructor"
    },
    {
      "anonymous": false,
      "inputs": [
        {
          "indexed": true,
          "internalType": "address",
          "name": "previousOwner",
          "type": "address"
        },
        {
          "indexed": true,
          "internalType": "address",
          "name": "newOwner",
          "type": "address"
        }
      ],
      "name": "OwnershipTransferred",
      "type": "event"
    },
    {
      "anonymous": false,
      "inputs": [
        {
          "indexed": false,
          "internalType": "uint256",
          "name": "eth",
          "type": "uint256"
        }
      ],
      "name": "Received",
      "type": "event"
    },
    {
      "anonymous": false,
      "inputs": [
        {
          "indexed": false,
          "internalType": "uint256",
          "name": "gasUseWithoutPost",
          "type": "uint256"
        },
        {
          "indexed": false,
          "internalType": "uint256",
          "name": "gasUsedByPost",
          "type": "uint256"
        },
        {
          "indexed": false,
          "internalType": "uint256",
          "name": "ethActualCharge",
          "type": "uint256"
        },
        {
          "indexed": false,
          "internalType": "uint256",
          "name": "tokenActualCharge",
          "type": "uint256"
        }
      ],
      "name": "TokensCharged",
      "type": "event"
    },
    {
      "anonymous": false,
      "inputs": [
        {
          "indexed": false,
          "internalType": "address",
          "name": "token",
          "type": "address"
        },
        {
          "indexed": false,
          "internalType": "address",
          "name": "router",
          "type": "address"
        },
        {
          "indexed": false,
          "internalType": "uint256",
          "name": "tokenPrecharge",
          "type": "uint256"
        }
      ],
      "name": "TokensPrecharged",
      "type": "event"
    },
    {
      "inputs": [],
      "name": "CALLDATA_SIZE_LIMIT",
      "outputs": [
        {
          "internalType": "uint256",
          "name": "",
          "type": "uint256"
        }
      ],
      "stateMutability": "view",
      "type": "function"
    },
    {
      "inputs": [],
      "name": "FORWARDER_HUB_OVERHEAD",
      "outputs": [
        {
          "internalType": "uint256",
          "name": "",
          "type": "uint256"
        }
      ],
      "stateMutability": "view",
      "type": "function"
    },
    {
      "inputs": [],
      "name": "PAYMASTER_ACCEPTANCE_BUDGET",
      "outputs": [
        {
          "internalType": "uint256",
          "name": "",
          "type": "uint256"
        }
      ],
      "stateMutability": "view",
      "type": "function"
    },
    {
      "inputs": [],
      "name": "POST_RELAYED_CALL_GAS_LIMIT",
      "outputs": [
        {
          "internalType": "uint256",
          "name": "",
          "type": "uint256"
        }
      ],
      "stateMutability": "view",
      "type": "function"
    },
    {
      "inputs": [],
      "name": "PRE_RELAYED_CALL_GAS_LIMIT",
      "outputs": [
        {
          "internalType": "uint256",
          "name": "",
          "type": "uint256"
        }
      ],
      "stateMutability": "view",
      "type": "function"
    },
    {
      "inputs": [
        {
          "internalType": "bytes",
          "name": "paymasterData",
          "type": "bytes"
        }
      ],
      "name": "_getToken",
      "outputs": [
        {
          "internalType": "contract IERC20",
          "name": "",
          "type": "address"
        },
        {
          "internalType": "contract IUniswap",
          "name": "",
          "type": "address"
        }
      ],
      "stateMutability": "view",
      "type": "function"
    },
    {
      "inputs": [
        {
          "components": [
            {
              "components": [
                {
                  "internalType": "address",
                  "name": "from",
                  "type": "address"
                },
                {
                  "internalType": "address",
                  "name": "to",
                  "type": "address"
                },
                {
                  "internalType": "uint256",
                  "name": "value",
                  "type": "uint256"
                },
                {
                  "internalType": "uint256",
                  "name": "gas",
                  "type": "uint256"
                },
                {
                  "internalType": "uint256",
                  "name": "nonce",
                  "type": "uint256"
                },
                {
                  "internalType": "bytes",
                  "name": "data",
                  "type": "bytes"
                },
                {
                  "internalType": "uint256",
                  "name": "validUntil",
                  "type": "uint256"
                }
              ],
              "internalType": "struct IForwarder.ForwardRequest",
              "name": "request",
              "type": "tuple"
            },
            {
              "components": [
                {
                  "internalType": "uint256",
                  "name": "gasPrice",
                  "type": "uint256"
                },
                {
                  "internalType": "uint256",
                  "name": "pctRelayFee",
                  "type": "uint256"
                },
                {
                  "internalType": "uint256",
                  "name": "baseRelayFee",
                  "type": "uint256"
                },
                {
                  "internalType": "address",
                  "name": "relayWorker",
                  "type": "address"
                },
                {
                  "internalType": "address",
                  "name": "paymaster",
                  "type": "address"
                },
                {
                  "internalType": "address",
                  "name": "forwarder",
                  "type": "address"
                },
                {
                  "internalType": "bytes",
                  "name": "paymasterData",
                  "type": "bytes"
                },
                {
                  "internalType": "uint256",
                  "name": "clientId",
                  "type": "uint256"
                }
              ],
              "internalType": "struct GsnTypes.RelayData",
              "name": "relayData",
              "type": "tuple"
            }
          ],
          "internalType": "struct GsnTypes.RelayRequest",
          "name": "relayRequest",
          "type": "tuple"
        }
      ],
      "name": "_verifyForwarder",
      "outputs": [],
      "stateMutability": "view",
      "type": "function"
    },
    {
      "inputs": [
        {
          "internalType": "address[]",
          "name": "tokens",
          "type": "address[]"
        },
        {
          "internalType": "address[]",
          "name": "routers",
          "type": "address[]"
        }
      ],
      "name": "addBatchTokens",
      "outputs": [],
      "stateMutability": "nonpayable",
      "type": "function"
    },
    {
      "inputs": [
        {
          "internalType": "address",
          "name": "token",
          "type": "address"
        },
        {
          "internalType": "address",
          "name": "router",
          "type": "address"
        }
      ],
      "name": "addToken",
      "outputs": [],
      "stateMutability": "nonpayable",
      "type": "function"
    },
    {
      "inputs": [
        {
          "internalType": "contract IERC20",
          "name": "token",
          "type": "address"
        },
        {
          "internalType": "contract IUniswap",
          "name": "router",
          "type": "address"
        },
        {
          "components": [
            {
              "components": [
                {
                  "internalType": "address",
                  "name": "from",
                  "type": "address"
                },
                {
                  "internalType": "address",
                  "name": "to",
                  "type": "address"
                },
                {
                  "internalType": "uint256",
                  "name": "value",
                  "type": "uint256"
                },
                {
                  "internalType": "uint256",
                  "name": "gas",
                  "type": "uint256"
                },
                {
                  "internalType": "uint256",
                  "name": "nonce",
                  "type": "uint256"
                },
                {
                  "internalType": "bytes",
                  "name": "data",
                  "type": "bytes"
                },
                {
                  "internalType": "uint256",
                  "name": "validUntil",
                  "type": "uint256"
                }
              ],
              "internalType": "struct IForwarder.ForwardRequest",
              "name": "request",
              "type": "tuple"
            },
            {
              "components": [
                {
                  "internalType": "uint256",
                  "name": "gasPrice",
                  "type": "uint256"
                },
                {
                  "internalType": "uint256",
                  "name": "pctRelayFee",
                  "type": "uint256"
                },
                {
                  "internalType": "uint256",
                  "name": "baseRelayFee",
                  "type": "uint256"
                },
                {
                  "internalType": "address",
                  "name": "relayWorker",
                  "type": "address"
                },
                {
                  "internalType": "address",
                  "name": "paymaster",
                  "type": "address"
                },
                {
                  "internalType": "address",
                  "name": "forwarder",
                  "type": "address"
                },
                {
                  "internalType": "bytes",
                  "name": "paymasterData",
                  "type": "bytes"
                },
                {
                  "internalType": "uint256",
                  "name": "clientId",
                  "type": "uint256"
                }
              ],
              "internalType": "struct GsnTypes.RelayData",
              "name": "relayData",
              "type": "tuple"
            }
          ],
          "internalType": "struct GsnTypes.RelayRequest",
          "name": "relayRequest",
          "type": "tuple"
        },
        {
          "internalType": "uint256",
          "name": "maxPossibleGas",
          "type": "uint256"
        }
      ],
      "name": "calculatePreCharge",
      "outputs": [
        {
          "internalType": "address",
          "name": "payer",
          "type": "address"
        },
        {
          "internalType": "uint256",
          "name": "tokenPreCharge",
          "type": "uint256"
        }
      ],
      "stateMutability": "view",
      "type": "function"
    },
    {
      "inputs": [],
      "name": "gasUsedByPost",
      "outputs": [
        {
          "internalType": "uint256",
          "name": "",
          "type": "uint256"
        }
      ],
      "stateMutability": "view",
      "type": "function"
    },
    {
      "inputs": [],
      "name": "getGasAndDataLimits",
      "outputs": [
        {
          "components": [
            {
              "internalType": "uint256",
              "name": "acceptanceBudget",
              "type": "uint256"
            },
            {
              "internalType": "uint256",
              "name": "preRelayedCallGasLimit",
              "type": "uint256"
            },
            {
              "internalType": "uint256",
              "name": "postRelayedCallGasLimit",
              "type": "uint256"
            },
            {
              "internalType": "uint256",
              "name": "calldataSizeLimit",
              "type": "uint256"
            }
          ],
          "internalType": "struct IPaymaster.GasAndDataLimits",
          "name": "limits",
          "type": "tuple"
        }
      ],
      "stateMutability": "view",
      "type": "function"
    },
    {
      "inputs": [],
      "name": "getHubAddr",
      "outputs": [
        {
          "internalType": "address",
          "name": "",
          "type": "address"
        }
      ],
      "stateMutability": "view",
      "type": "function"
    },
    {
      "inputs": [
        {
          "components": [
            {
              "components": [
                {
                  "internalType": "address",
                  "name": "from",
                  "type": "address"
                },
                {
                  "internalType": "address",
                  "name": "to",
                  "type": "address"
                },
                {
                  "internalType": "uint256",
                  "name": "value",
                  "type": "uint256"
                },
                {
                  "internalType": "uint256",
                  "name": "gas",
                  "type": "uint256"
                },
                {
                  "internalType": "uint256",
                  "name": "nonce",
                  "type": "uint256"
                },
                {
                  "internalType": "bytes",
                  "name": "data",
                  "type": "bytes"
                },
                {
                  "internalType": "uint256",
                  "name": "validUntil",
                  "type": "uint256"
                }
              ],
              "internalType": "struct IForwarder.ForwardRequest",
              "name": "request",
              "type": "tuple"
            },
            {
              "components": [
                {
                  "internalType": "uint256",
                  "name": "gasPrice",
                  "type": "uint256"
                },
                {
                  "internalType": "uint256",
                  "name": "pctRelayFee",
                  "type": "uint256"
                },
                {
                  "internalType": "uint256",
                  "name": "baseRelayFee",
                  "type": "uint256"
                },
                {
                  "internalType": "address",
                  "name": "relayWorker",
                  "type": "address"
                },
                {
                  "internalType": "address",
                  "name": "paymaster",
                  "type": "address"
                },
                {
                  "internalType": "address",
                  "name": "forwarder",
                  "type": "address"
                },
                {
                  "internalType": "bytes",
                  "name": "paymasterData",
                  "type": "bytes"
                },
                {
                  "internalType": "uint256",
                  "name": "clientId",
                  "type": "uint256"
                }
              ],
              "internalType": "struct GsnTypes.RelayData",
              "name": "relayData",
              "type": "tuple"
            }
          ],
          "internalType": "struct GsnTypes.RelayRequest",
          "name": "relayRequest",
          "type": "tuple"
        }
      ],
      "name": "getPayer",
      "outputs": [
        {
          "internalType": "address",
          "name": "",
          "type": "address"
        }
      ],
      "stateMutability": "view",
      "type": "function"
    },
    {
      "inputs": [],
      "name": "getRelayHubDeposit",
      "outputs": [
        {
          "internalType": "uint256",
          "name": "",
          "type": "uint256"
        }
      ],
      "stateMutability": "view",
      "type": "function"
    },
    {
      "inputs": [
        {
          "internalType": "contract IERC20",
          "name": "token",
          "type": "address"
        }
      ],
      "name": "getTokenBalance",
      "outputs": [
        {
          "internalType": "uint256",
          "name": "",
          "type": "uint256"
        }
      ],
      "stateMutability": "view",
      "type": "function"
    },
    {
      "inputs": [],
      "name": "owner",
      "outputs": [
        {
          "internalType": "address",
          "name": "",
          "type": "address"
        }
      ],
      "stateMutability": "view",
      "type": "function"
    },
    {
      "inputs": [
        {
          "internalType": "bytes",
          "name": "context",
          "type": "bytes"
        },
        {
          "internalType": "bool",
          "name": "success",
          "type": "bool"
        },
        {
          "internalType": "uint256",
          "name": "gasUseWithoutPost",
          "type": "uint256"
        },
        {
          "components": [
            {
              "internalType": "uint256",
              "name": "gasPrice",
              "type": "uint256"
            },
            {
              "internalType": "uint256",
              "name": "pctRelayFee",
              "type": "uint256"
            },
            {
              "internalType": "uint256",
              "name": "baseRelayFee",
              "type": "uint256"
            },
            {
              "internalType": "address",
              "name": "relayWorker",
              "type": "address"
            },
            {
              "internalType": "address",
              "name": "paymaster",
              "type": "address"
            },
            {
              "internalType": "address",
              "name": "forwarder",
              "type": "address"
            },
            {
              "internalType": "bytes",
              "name": "paymasterData",
              "type": "bytes"
            },
            {
              "internalType": "uint256",
              "name": "clientId",
              "type": "uint256"
            }
          ],
          "internalType": "struct GsnTypes.RelayData",
          "name": "relayData",
          "type": "tuple"
        }
      ],
      "name": "postRelayedCall",
      "outputs": [],
      "stateMutability": "nonpayable",
      "type": "function"
    },
    {
      "inputs": [
        {
          "components": [
            {
              "components": [
                {
                  "internalType": "address",
                  "name": "from",
                  "type": "address"
                },
                {
                  "internalType": "address",
                  "name": "to",
                  "type": "address"
                },
                {
                  "internalType": "uint256",
                  "name": "value",
                  "type": "uint256"
                },
                {
                  "internalType": "uint256",
                  "name": "gas",
                  "type": "uint256"
                },
                {
                  "internalType": "uint256",
                  "name": "nonce",
                  "type": "uint256"
                },
                {
                  "internalType": "bytes",
                  "name": "data",
                  "type": "bytes"
                },
                {
                  "internalType": "uint256",
                  "name": "validUntil",
                  "type": "uint256"
                }
              ],
              "internalType": "struct IForwarder.ForwardRequest",
              "name": "request",
              "type": "tuple"
            },
            {
              "components": [
                {
                  "internalType": "uint256",
                  "name": "gasPrice",
                  "type": "uint256"
                },
                {
                  "internalType": "uint256",
                  "name": "pctRelayFee",
                  "type": "uint256"
                },
                {
                  "internalType": "uint256",
                  "name": "baseRelayFee",
                  "type": "uint256"
                },
                {
                  "internalType": "address",
                  "name": "relayWorker",
                  "type": "address"
                },
                {
                  "internalType": "address",
                  "name": "paymaster",
                  "type": "address"
                },
                {
                  "internalType": "address",
                  "name": "forwarder",
                  "type": "address"
                },
                {
                  "internalType": "bytes",
                  "name": "paymasterData",
                  "type": "bytes"
                },
                {
                  "internalType": "uint256",
                  "name": "clientId",
                  "type": "uint256"
                }
              ],
              "internalType": "struct GsnTypes.RelayData",
              "name": "relayData",
              "type": "tuple"
            }
          ],
          "internalType": "struct GsnTypes.RelayRequest",
          "name": "relayRequest",
          "type": "tuple"
        },
        {
          "internalType": "bytes",
          "name": "signature",
          "type": "bytes"
        },
        {
          "internalType": "bytes",
          "name": "approvalData",
          "type": "bytes"
        },
        {
          "internalType": "uint256",
          "name": "maxPossibleGas",
          "type": "uint256"
        }
      ],
      "name": "preRelayedCall",
      "outputs": [
        {
          "internalType": "bytes",
          "name": "context",
          "type": "bytes"
        },
        {
          "internalType": "bool",
          "name": "revertOnRecipientRevert",
          "type": "bool"
        }
      ],
      "stateMutability": "nonpayable",
      "type": "function"
    },
    {
      "inputs": [],
      "name": "renounceOwnership",
      "outputs": [],
      "stateMutability": "nonpayable",
      "type": "function"
    },
    {
      "inputs": [
        {
          "internalType": "address",
          "name": "",
          "type": "address"
        }
      ],
      "name": "routersMap",
      "outputs": [
        {
          "internalType": "address",
          "name": "",
          "type": "address"
        }
      ],
      "stateMutability": "view",
      "type": "function"
    },
    {
      "inputs": [
        {
          "internalType": "uint256",
          "name": "_gasUsedByPost",
          "type": "uint256"
        }
      ],
      "name": "setPostGasUsage",
      "outputs": [],
      "stateMutability": "nonpayable",
      "type": "function"
    },
    {
      "inputs": [
        {
          "internalType": "contract IRelayHub",
          "name": "hub",
          "type": "address"
        }
      ],
      "name": "setRelayHub",
      "outputs": [],
      "stateMutability": "nonpayable",
      "type": "function"
    },
    {
      "inputs": [
        {
          "internalType": "contract IForwarder",
          "name": "forwarder",
          "type": "address"
        }
      ],
      "name": "setTrustedForwarder",
      "outputs": [],
      "stateMutability": "nonpayable",
      "type": "function"
    },
    {
      "inputs": [
        {
          "internalType": "address",
          "name": "newOwner",
          "type": "address"
        }
      ],
      "name": "transferOwnership",
      "outputs": [],
      "stateMutability": "nonpayable",
      "type": "function"
    },
    {
      "inputs": [],
      "name": "trustedForwarder",
      "outputs": [
        {
          "internalType": "contract IForwarder",
          "name": "",
          "type": "address"
        }
      ],
      "stateMutability": "view",
      "type": "function"
    },
    {
      "inputs": [],
      "name": "versionPaymaster",
      "outputs": [
        {
          "internalType": "string",
          "name": "",
          "type": "string"
        }
      ],
      "stateMutability": "view",
      "type": "function"
    },
    {
      "inputs": [
        {
          "internalType": "uint256",
          "name": "amount",
          "type": "uint256"
        },
        {
          "internalType": "address payable",
          "name": "target",
          "type": "address"
        }
      ],
      "name": "withdrawRelayHubDepositTo",
      "outputs": [],
      "stateMutability": "nonpayable",
      "type": "function"
    },
    {
      "inputs": [
        {
          "internalType": "contract IERC20",
          "name": "token",
          "type": "address"
        },
        {
          "internalType": "address",
          "name": "account",
          "type": "address"
        },
        {
          "internalType": "uint256",
          "name": "amount",
          "type": "uint256"
        }
      ],
      "name": "withdrawToken",
      "outputs": [],
      "stateMutability": "nonpayable",
      "type": "function"
    },
    {
      "stateMutability": "payable",
      "type": "receive"
    }
  ],
  "bytecode": "0x60806040523480156200001157600080fd5b50600062000024620000c860201b60201c565b9050806000806101000a81548173ffffffffffffffffffffffffffffffffffffffff021916908373ffffffffffffffffffffffffffffffffffffffff1602179055508073ffffffffffffffffffffffffffffffffffffffff16600073ffffffffffffffffffffffffffffffffffffffff167f8be0079c531659141344cd1fd0a4f28419497f9722a3daafe3b4186f6b6457e060405160405180910390a350620000d0565b600033905090565b61434780620000e06000396000f3fe6080604052600436106101c55760003560e01c80637bb05264116100f7578063b90b41cf11610095578063df463a6611610064578063df463a6614610672578063ef1a830e1461069d578063f2fde38b146106da578063f9c002f71461070357610203565b8063b90b41cf146105ca578063bbdaa3c9146105f5578063da74222814610620578063db3f831e1461064957610203565b8063921276ea116100d1578063921276ea14610520578063a5dcd07b1461054b578063ad12e50e14610574578063b039a88f1461059f57610203565b80637bb05264146104a15780637da0a877146104ca5780638da5cb5b146104f557610203565b80635476bd72116101645780636d7c3e2b1161013e5780636d7c3e2b1461040d578063715018a61461043657806374e861d61461044d57806376fa01c31461047857610203565b80635476bd721461037b57806359d3901f146103a45780635c5e3db1146103e257610203565b80632d14c4b7116101a05780632d14c4b71461029a5780632f4b3c5c146102c35780633aecd0e31461030157806341bbb7ca1461033e57610203565b8062be5dd41461020857806301e33667146102465780632afe31c11461026f57610203565b36610203577fa8142743f8f70a4c26f3691cf4ed59718381fb2f18070ec52be1f1022d855557346040516101f99190613c5e565b60405180910390a1005b600080fd5b34801561021457600080fd5b5061022f600480360381019061022a9190612ff5565b61072e565b60405161023d929190613a6b565b60405180910390f35b34801561025257600080fd5b5061026d60048036038101906102689190612e98565b6109d2565b005b34801561027b57600080fd5b50610284610be5565b6040516102919190613c5e565b60405180910390f35b3480156102a657600080fd5b506102c160048036038101906102bc91906130fa565b610c97565b005b3480156102cf57600080fd5b506102ea60048036038101906102e59190612e2e565b610dd8565b6040516102f8929190613a9b565b60405180910390f35b34801561030d57600080fd5b5061032860048036038101906103239190612e6f565b610ed4565b6040516103359190613c5e565b60405180910390f35b34801561034a57600080fd5b5061036560048036038101906103609190612fb4565b610f66565b60405161037291906138ea565b60405180910390f35b34801561038757600080fd5b506103a2600480360381019061039d9190612c84565b610f91565b005b3480156103b057600080fd5b506103cb60048036038101906103c69190612ee7565b6110c2565b6040516103d99291906139fd565b60405180910390f35b3480156103ee57600080fd5b506103f761130a565b6040516104049190613c5e565b60405180910390f35b34801561041957600080fd5b50610434600480360381019061042f91906130a8565b611310565b005b34801561044257600080fd5b5061044b6113c9565b005b34801561045957600080fd5b50610462611536565b60405161046f91906138ea565b60405180910390f35b34801561048457600080fd5b5061049f600480360381019061049a9190612d96565b611560565b005b3480156104ad57600080fd5b506104c860048036038101906104c39190612f8b565b61160d565b005b3480156104d657600080fd5b506104df611700565b6040516104ec9190613ac4565b60405180910390f35b34801561050157600080fd5b5061050a611726565b60405161051791906138ea565b60405180910390f35b34801561052c57600080fd5b5061053561174f565b6040516105429190613adf565b60405180910390f35b34801561055757600080fd5b50610572600480360381019061056d9190612fb4565b61178c565b005b34801561058057600080fd5b50610589611849565b6040516105969190613c5e565b60405180910390f35b3480156105ab57600080fd5b506105b461184f565b6040516105c19190613c21565b60405180910390f35b3480156105d657600080fd5b506105df611888565b6040516105ec9190613c5e565b60405180910390f35b34801561060157600080fd5b5061060a61188e565b6040516106179190613c5e565b60405180910390f35b34801561062c57600080fd5b5061064760048036038101906106429190612f62565b611895565b005b34801561065557600080fd5b50610670600480360381019061066b9190612cc0565b611988565b005b34801561067e57600080fd5b50610687611af9565b6040516106949190613c5e565b60405180910390f35b3480156106a957600080fd5b506106c460048036038101906106bf9190612b1d565b611b04565b6040516106d191906138ea565b60405180910390f35b3480156106e657600080fd5b5061070160048036038101906106fc9190612b1d565b611b37565b005b34801561070f57600080fd5b50610718611d29565b6040516107259190613c5e565b60405180910390f35b6060600061073a611536565b73ffffffffffffffffffffffffffffffffffffffff163373ffffffffffffffffffffffffffffffffffffffff16146107a7576040517f08c379a000000000000000000000000000000000000000000000000000000000815260040161079e90613c01565b60405180910390fd5b6000806108148a80602001906107bd9190613e1c565b8060c001906107cc9190613da1565b8080601f016020809104026020016040519081016040528093929190818152602001838380828437600081840152601f19601f82011690508083019250505050505050610dd8565b9150915060008061082784848e8a6110c2565b915091506000806000806000808e8e8101906108439190612bfb565b9550955095509550955095508973ffffffffffffffffffffffffffffffffffffffff1663d505accf873088888888886040518863ffffffff1660e01b81526004016108949796959493929190613957565b600060405180830381600087803b1580156108ae57600080fd5b505af11580156108c2573d6000803e3d6000fd5b505050508973ffffffffffffffffffffffffffffffffffffffff166323b872dd89308a6040518463ffffffff1660e01b815260040161090393929190613920565b602060405180830381600087803b15801561091d57600080fd5b505af1158015610931573d6000803e3d6000fd5b505050506040513d601f19601f820116820180604052508101906109559190612d6d565b507fe9731c78e6c09448d873967301d14a46ffe6276ae410c52ad99f5c8b1b47faf08a8a89604051610989939291906139c6565b60405180910390a187878b8b6040516020016109a89493929190613a26565b60405160208183030381529060405260009b509b5050505050505050505050965096945050505050565b6109da611d30565b73ffffffffffffffffffffffffffffffffffffffff166109f8611726565b73ffffffffffffffffffffffffffffffffffffffff1614610a81576040517f08c379a00000000000000000000000000000000000000000000000000000000081526004018080602001828103825260208152602001807f4f776e61626c653a2063616c6c6572206973206e6f7420746865206f776e657281525060200191505060405180910390fd5b60008373ffffffffffffffffffffffffffffffffffffffff166370a08231306040518263ffffffff1660e01b8152600401610abc9190613905565b60206040518083038186803b158015610ad457600080fd5b505afa158015610ae8573d6000803e3d6000fd5b505050506040513d601f19601f82011682018060405250810190610b0c91906130d1565b905080821115610b51576040517f08c379a0000000000000000000000000000000000000000000000000000000008152600401610b4890613b61565b60405180910390fd5b8373ffffffffffffffffffffffffffffffffffffffff1663a9059cbb84846040518363ffffffff1660e01b8152600401610b8c9291906139fd565b602060405180830381600087803b158015610ba657600080fd5b505af1158015610bba573d6000803e3d6000fd5b505050506040513d601f19601f82011682018060405250810190610bde9190612d6d565b5050505050565b6000600160009054906101000a900473ffffffffffffffffffffffffffffffffffffffff1673ffffffffffffffffffffffffffffffffffffffff166370a08231306040518263ffffffff1660e01b8152600401610c429190613905565b60206040518083038186803b158015610c5a57600080fd5b505afa158015610c6e573d6000803e3d6000fd5b505050506040513d601f19601f82011682018060405250810190610c9291906130d1565b905090565b610c9f611d30565b73ffffffffffffffffffffffffffffffffffffffff16610cbd611726565b73ffffffffffffffffffffffffffffffffffffffff1614610d46576040517f08c379a00000000000000000000000000000000000000000000000000000000081526004018080602001828103825260208152602001807f4f776e61626c653a2063616c6c6572206973206e6f7420746865206f776e657281525060200191505060405180910390fd5b600160009054906101000a900473ffffffffffffffffffffffffffffffffffffffff1673ffffffffffffffffffffffffffffffffffffffff1662f714ce83836040518363ffffffff1660e01b8152600401610da2929190613c79565b600060405180830381600087803b158015610dbc57600080fd5b505af1158015610dd0573d6000803e3d6000fd5b505050505050565b600080600083806020019051810190610df19190612b6f565b90506000600360008373ffffffffffffffffffffffffffffffffffffffff1673ffffffffffffffffffffffffffffffffffffffff16815260200190815260200160002060009054906101000a900473ffffffffffffffffffffffffffffffffffffffff169050600073ffffffffffffffffffffffffffffffffffffffff168273ffffffffffffffffffffffffffffffffffffffff161415610ec7576040517f08c379a0000000000000000000000000000000000000000000000000000000008152600401610ebe90613b21565b60405180910390fd5b8181935093505050915091565b60008173ffffffffffffffffffffffffffffffffffffffff166370a08231306040518263ffffffff1660e01b8152600401610f0f9190613905565b60206040518083038186803b158015610f2757600080fd5b505afa158015610f3b573d6000803e3d6000fd5b505050506040513d601f19601f82011682018060405250810190610f5f91906130d1565b9050919050565b6000818060000190610f789190613df8565b6000016020810190610f8a9190612b1d565b9050919050565b610f99611d30565b73ffffffffffffffffffffffffffffffffffffffff16610fb7611726565b73ffffffffffffffffffffffffffffffffffffffff1614611040576040517f08c379a00000000000000000000000000000000000000000000000000000000081526004018080602001828103825260208152602001807f4f776e61626c653a2063616c6c6572206973206e6f7420746865206f776e657281525060200191505060405180910390fd5b80600360008473ffffffffffffffffffffffffffffffffffffffff1673ffffffffffffffffffffffffffffffffffffffff16815260200190815260200160002060006101000a81548173ffffffffffffffffffffffffffffffffffffffff021916908373ffffffffffffffffffffffffffffffffffffffff1602179055505050565b6000803073ffffffffffffffffffffffffffffffffffffffff166341bbb7ca856040518263ffffffff1660e01b81526004016110fe9190613c3c565b60206040518083038186803b15801561111657600080fd5b505afa15801561112a573d6000803e3d6000fd5b505050506040513d601f19601f8201168201806040525081019061114e9190612b46565b91506000600160009054906101000a900473ffffffffffffffffffffffffffffffffffffffff1673ffffffffffffffffffffffffffffffffffffffff16638e53548b858780602001906111a19190613e1c565b6040518363ffffffff1660e01b81526004016111be929190613cd2565b60206040518083038186803b1580156111d657600080fd5b505afa1580156111ea573d6000803e3d6000fd5b505050506040513d601f19601f8201168201806040525081019061120e91906130d1565b90508480600001906112209190613df8565b6040013581019050611233818888611d38565b91508673ffffffffffffffffffffffffffffffffffffffff166370a08231846040518263ffffffff1660e01b815260040161126e91906138ea565b60206040518083038186803b15801561128657600080fd5b505afa15801561129a573d6000803e3d6000fd5b505050506040513d601f19601f820116820180604052508101906112be91906130d1565b821115611300576040517f08c379a00000000000000000000000000000000000000000000000000000000081526004016112f790613be1565b60405180910390fd5b5094509492505050565b61290481565b611318611d30565b73ffffffffffffffffffffffffffffffffffffffff16611336611726565b73ffffffffffffffffffffffffffffffffffffffff16146113bf576040517f08c379a00000000000000000000000000000000000000000000000000000000081526004018080602001828103825260208152602001807f4f776e61626c653a2063616c6c6572206973206e6f7420746865206f776e657281525060200191505060405180910390fd5b8060048190555050565b6113d1611d30565b73ffffffffffffffffffffffffffffffffffffffff166113ef611726565b73ffffffffffffffffffffffffffffffffffffffff1614611478576040517f08c379a00000000000000000000000000000000000000000000000000000000081526004018080602001828103825260208152602001807f4f776e61626c653a2063616c6c6572206973206e6f7420746865206f776e657281525060200191505060405180910390fd5b600073ffffffffffffffffffffffffffffffffffffffff1660008054906101000a900473ffffffffffffffffffffffffffffffffffffffff1673ffffffffffffffffffffffffffffffffffffffff167f8be0079c531659141344cd1fd0a4f28419497f9722a3daafe3b4186f6b6457e060405160405180910390a360008060006101000a81548173ffffffffffffffffffffffffffffffffffffffff021916908373ffffffffffffffffffffffffffffffffffffffff160217905550565b6000600160009054906101000a900473ffffffffffffffffffffffffffffffffffffffff16905090565b611568611536565b73ffffffffffffffffffffffffffffffffffffffff163373ffffffffffffffffffffffffffffffffffffffff16146115d5576040517f08c379a00000000000000000000000000000000000000000000000000000000081526004016115cc90613c01565b60405180910390fd5b60008060008088888101906115ea9190612b98565b93509350935093506116028484600089898787611f46565b505050505050505050565b611615611d30565b73ffffffffffffffffffffffffffffffffffffffff16611633611726565b73ffffffffffffffffffffffffffffffffffffffff16146116bc576040517f08c379a00000000000000000000000000000000000000000000000000000000081526004018080602001828103825260208152602001807f4f776e61626c653a2063616c6c6572206973206e6f7420746865206f776e657281525060200191505060405180910390fd5b80600160006101000a81548173ffffffffffffffffffffffffffffffffffffffff021916908373ffffffffffffffffffffffffffffffffffffffff16021790555050565b600260009054906101000a900473ffffffffffffffffffffffffffffffffffffffff1681565b60008060009054906101000a900473ffffffffffffffffffffffffffffffffffffffff16905090565b60606040518060400160405280600581526020017f322e322e30000000000000000000000000000000000000000000000000000000815250905090565b80806020019061179c9190613e1c565b60a00160208101906117ae9190612b1d565b73ffffffffffffffffffffffffffffffffffffffff16600260009054906101000a900473ffffffffffffffffffffffffffffffffffffffff1673ffffffffffffffffffffffffffffffffffffffff161461183d576040517f08c379a000000000000000000000000000000000000000000000000000000000815260040161183490613ba1565b60405180910390fd5b611846816120a5565b50565b60045481565b6118576127ba565b60405180608001604052806203d090815260200162030d408152602001620334508152602001612904815250905090565b61c35081565b6201adb081565b61189d611d30565b73ffffffffffffffffffffffffffffffffffffffff166118bb611726565b73ffffffffffffffffffffffffffffffffffffffff1614611944576040517f08c379a00000000000000000000000000000000000000000000000000000000081526004018080602001828103825260208152602001807f4f776e61626c653a2063616c6c6572206973206e6f7420746865206f776e657281525060200191505060405180910390fd5b80600260006101000a81548173ffffffffffffffffffffffffffffffffffffffff021916908373ffffffffffffffffffffffffffffffffffffffff16021790555050565b611990611d30565b73ffffffffffffffffffffffffffffffffffffffff166119ae611726565b73ffffffffffffffffffffffffffffffffffffffff1614611a37576040517f08c379a00000000000000000000000000000000000000000000000000000000081526004018080602001828103825260208152602001807f4f776e61626c653a2063616c6c6572206973206e6f7420746865206f776e657281525060200191505060405180910390fd5b60005b8251811015611af457818181518110611a4f57fe5b602002602001015160036000858481518110611a6757fe5b602002602001015173ffffffffffffffffffffffffffffffffffffffff1673ffffffffffffffffffffffffffffffffffffffff16815260200190815260200160002060006101000a81548173ffffffffffffffffffffffffffffffffffffffff021916908373ffffffffffffffffffffffffffffffffffffffff1602179055508080600101915050611a3a565b505050565b61c350620186a00181565b60036020528060005260406000206000915054906101000a900473ffffffffffffffffffffffffffffffffffffffff1681565b611b3f611d30565b73ffffffffffffffffffffffffffffffffffffffff16611b5d611726565b73ffffffffffffffffffffffffffffffffffffffff1614611be6576040517f08c379a00000000000000000000000000000000000000000000000000000000081526004018080602001828103825260208152602001807f4f776e61626c653a2063616c6c6572206973206e6f7420746865206f776e657281525060200191505060405180910390fd5b600073ffffffffffffffffffffffffffffffffffffffff168173ffffffffffffffffffffffffffffffffffffffff161415611c6c576040517f08c379a00000000000000000000000000000000000000000000000000000000081526004018080602001828103825260268152602001806142ec6026913960400191505060405180910390fd5b8073ffffffffffffffffffffffffffffffffffffffff1660008054906101000a900473ffffffffffffffffffffffffffffffffffffffff1673ffffffffffffffffffffffffffffffffffffffff167f8be0079c531659141344cd1fd0a4f28419497f9722a3daafe3b4186f6b6457e060405160405180910390a3806000806101000a81548173ffffffffffffffffffffffffffffffffffffffff021916908373ffffffffffffffffffffffffffffffffffffffff16021790555050565b620186a081565b600033905090565b600080600267ffffffffffffffff81118015611d5357600080fd5b50604051908082528060200260200182016040528015611d825781602001602082028036833780820191505090505b5090508381600081518110611d9357fe5b602002602001019073ffffffffffffffffffffffffffffffffffffffff16908173ffffffffffffffffffffffffffffffffffffffff16815250508273ffffffffffffffffffffffffffffffffffffffff1663ad5c46486040518163ffffffff1660e01b815260040160206040518083038186803b158015611e1357600080fd5b505afa158015611e27573d6000803e3d6000fd5b505050506040513d601f19601f82011682018060405250810190611e4b9190612b46565b81600181518110611e5857fe5b602002602001019073ffffffffffffffffffffffffffffffffffffffff16908173ffffffffffffffffffffffffffffffffffffffff168152505060008373ffffffffffffffffffffffffffffffffffffffff16631f00ca7487846040518363ffffffff1660e01b8152600401611ecf929190613ca2565b60006040518083038186803b158015611ee757600080fd5b505afa158015611efb573d6000803e3d6000fd5b505050506040513d6000823e3d601f19601f82011682018060405250810190611f249190612d2c565b905080600081518110611f3357fe5b6020026020010151925050509392505050565b6000600160009054906101000a900473ffffffffffffffffffffffffffffffffffffffff1673ffffffffffffffffffffffffffffffffffffffff16638e53548b611f9b600454886122a590919063ffffffff16565b866040518363ffffffff1660e01b8152600401611fb9929190613cd2565b60206040518083038186803b158015611fd157600080fd5b505afa158015611fe5573d6000803e3d6000fd5b505050506040513d601f19601f8201168201806040525081019061200991906130d1565b9050600061202a61202383896122a590919063ffffffff16565b8585611d38565b90506000612041828a61232d90919063ffffffff16565b905061204e8a86836123b0565b61205a83838787612481565b7fb3d69ff8981e297b4ab7fb9ba8e8a080ffebbee9f273bfa2d10116a8236830458760045485856040516120919493929190613d5c565b60405180910390a150505050505050505050565b6000808280600001906120b89190613df8565b60200160208101906120ca9190612b1d565b73ffffffffffffffffffffffffffffffffffffffff1663572b6c0560e01b8480602001906120f89190613e1c565b60a001602081019061210a9190612b1d565b60405160240161211a91906138ea565b604051602081830303815290604052907bffffffffffffffffffffffffffffffffffffffffffffffffffffffff19166020820180517bffffffffffffffffffffffffffffffffffffffffffffffffffffffff838183161783525050505060405161218491906138d3565b600060405180830381855afa9150503d80600081146121bf576040519150601f19603f3d011682016040523d82523d6000602084013e6121c4565b606091505b509150915081612209576040517f08c379a000000000000000000000000000000000000000000000000000000000815260040161220090613b41565b60405180910390fd5b602081511461224d576040517f08c379a000000000000000000000000000000000000000000000000000000000815260040161224490613bc1565b60405180910390fd5b808060200190518101906122619190612d6d565b6122a0576040517f08c379a000000000000000000000000000000000000000000000000000000000815260040161229790613b01565b60405180910390fd5b505050565b600080828401905083811015612323576040517f08c379a000000000000000000000000000000000000000000000000000000000815260040180806020018281038252601b8152602001807f536166654d6174683a206164646974696f6e206f766572666c6f77000000000081525060200191505060405180910390fd5b8091505092915050565b6000828211156123a5576040517f08c379a000000000000000000000000000000000000000000000000000000000815260040180806020018281038252601e8152602001807f536166654d6174683a207375627472616374696f6e206f766572666c6f77000081525060200191505060405180910390fd5b818303905092915050565b8173ffffffffffffffffffffffffffffffffffffffff1663a9059cbb84836040518363ffffffff1660e01b81526004016123eb9291906139fd565b602060405180830381600087803b15801561240557600080fd5b505af1158015612419573d6000803e3d6000fd5b505050506040513d601f19601f8201168201806040525081019061243d9190612d6d565b61247c576040517f08c379a000000000000000000000000000000000000000000000000000000000815260040161247390613b81565b60405180910390fd5b505050565b6000600267ffffffffffffffff8111801561249b57600080fd5b506040519080825280602002602001820160405280156124ca5781602001602082028036833780820191505090505b50905082816000815181106124db57fe5b602002602001019073ffffffffffffffffffffffffffffffffffffffff16908173ffffffffffffffffffffffffffffffffffffffff16815250508173ffffffffffffffffffffffffffffffffffffffff1663ad5c46486040518163ffffffff1660e01b815260040160206040518083038186803b15801561255b57600080fd5b505afa15801561256f573d6000803e3d6000fd5b505050506040513d601f19601f820116820180604052508101906125939190612b46565b816001815181106125a057fe5b602002602001019073ffffffffffffffffffffffffffffffffffffffff16908173ffffffffffffffffffffffffffffffffffffffff16815250508273ffffffffffffffffffffffffffffffffffffffff1663095ea7b3837fffffffffffffffffffffffffffffffffffffffffffffffffffffffffffffffff6040518363ffffffff1660e01b81526004016126359291906139fd565b602060405180830381600087803b15801561264f57600080fd5b505af1158015612663573d6000803e3d6000fd5b505050506040513d601f19601f820116820180604052508101906126879190612d6d565b508173ffffffffffffffffffffffffffffffffffffffff166318cbafe58587843061038442016040518663ffffffff1660e01b81526004016126cd959493929190613d02565b600060405180830381600087803b1580156126e757600080fd5b505af11580156126fb573d6000803e3d6000fd5b505050506040513d6000823e3d601f19601f820116820180604052508101906127249190612d2c565b50600160009054906101000a900473ffffffffffffffffffffffffffffffffffffffff1673ffffffffffffffffffffffffffffffffffffffff1663aa67c91986306040518363ffffffff1660e01b81526004016127819190613905565b6000604051808303818588803b15801561279a57600080fd5b505af11580156127ae573d6000803e3d6000fd5b50505050505050505050565b6040518060800160405280600081526020016000815260200160008152602001600081525090565b60006127f56127f084613e72565b613e41565b9050808382526020820190508285602086028201111561281457600080fd5b60005b85811015612844578161282a88826128f8565b845260208401935060208301925050600181019050612817565b5050509392505050565b600061286161285c84613e9e565b613e41565b9050808382526020820190508285602086028201111561288057600080fd5b60005b858110156128b057816128968882612af3565b845260208401935060208301925050600181019050612883565b5050509392505050565b60006128cd6128c884613eca565b613e41565b9050828152602081018484840111156128e557600080fd5b6128f08482856141b0565b509392505050565b60008135905061290781614205565b92915050565b60008151905061291c81614205565b92915050565b6000813590506129318161421c565b92915050565b6000815190506129468161421c565b92915050565b600082601f83011261295d57600080fd5b813561296d8482602086016127e2565b91505092915050565b600082601f83011261298757600080fd5b815161299784826020860161284e565b91505092915050565b6000813590506129af81614233565b92915050565b6000815190506129c481614233565b92915050565b6000813590506129d98161424a565b92915050565b60008083601f8401126129f157600080fd5b8235905067ffffffffffffffff811115612a0a57600080fd5b602083019150836001820283011115612a2257600080fd5b9250929050565b600082601f830112612a3a57600080fd5b8135612a4a8482602086016128ba565b91505092915050565b600081359050612a6281614261565b92915050565b600081359050612a7781614278565b92915050565b600081359050612a8c8161428f565b92915050565b600081359050612aa1816142a6565b92915050565b60006101008284031215612aba57600080fd5b81905092915050565b600060408284031215612ad557600080fd5b81905092915050565b600081359050612aed816142bd565b92915050565b600081519050612b02816142bd565b92915050565b600081359050612b17816142d4565b92915050565b600060208284031215612b2f57600080fd5b6000612b3d848285016128f8565b91505092915050565b600060208284031215612b5857600080fd5b6000612b668482850161290d565b91505092915050565b600060208284031215612b8157600080fd5b6000612b8f84828501612937565b91505092915050565b60008060008060808587031215612bae57600080fd5b6000612bbc87828801612922565b9450506020612bcd87828801612ade565b9350506040612bde87828801612a53565b9250506060612bef87828801612a92565b91505092959194509250565b60008060008060008060c08789031215612c1457600080fd5b6000612c2289828a01612922565b9650506020612c3389828a01612ade565b9550506040612c4489828a01612ade565b9450506060612c5589828a01612b08565b9350506080612c6689828a016129ca565b92505060a0612c7789828a016129ca565b9150509295509295509295565b60008060408385031215612c9757600080fd5b6000612ca5858286016128f8565b9250506020612cb6858286016128f8565b9150509250929050565b60008060408385031215612cd357600080fd5b600083013567ffffffffffffffff811115612ced57600080fd5b612cf98582860161294c565b925050602083013567ffffffffffffffff811115612d1657600080fd5b612d228582860161294c565b9150509250929050565b600060208284031215612d3e57600080fd5b600082015167ffffffffffffffff811115612d5857600080fd5b612d6484828501612976565b91505092915050565b600060208284031215612d7f57600080fd5b6000612d8d848285016129b5565b91505092915050565b600080600080600060808688031215612dae57600080fd5b600086013567ffffffffffffffff811115612dc857600080fd5b612dd4888289016129df565b95509550506020612de7888289016129a0565b9350506040612df888828901612ade565b925050606086013567ffffffffffffffff811115612e1557600080fd5b612e2188828901612aa7565b9150509295509295909350565b600060208284031215612e4057600080fd5b600082013567ffffffffffffffff811115612e5a57600080fd5b612e6684828501612a29565b91505092915050565b600060208284031215612e8157600080fd5b6000612e8f84828501612a53565b91505092915050565b600080600060608486031215612ead57600080fd5b6000612ebb86828701612a53565b9350506020612ecc868287016128f8565b9250506040612edd86828701612ade565b9150509250925092565b60008060008060808587031215612efd57600080fd5b6000612f0b87828801612a53565b9450506020612f1c87828801612a92565b935050604085013567ffffffffffffffff811115612f3957600080fd5b612f4587828801612ac3565b9250506060612f5687828801612ade565b91505092959194509250565b600060208284031215612f7457600080fd5b6000612f8284828501612a68565b91505092915050565b600060208284031215612f9d57600080fd5b6000612fab84828501612a7d565b91505092915050565b600060208284031215612fc657600080fd5b600082013567ffffffffffffffff811115612fe057600080fd5b612fec84828501612ac3565b91505092915050565b6000806000806000806080878903121561300e57600080fd5b600087013567ffffffffffffffff81111561302857600080fd5b61303489828a01612ac3565b965050602087013567ffffffffffffffff81111561305157600080fd5b61305d89828a016129df565b9550955050604087013567ffffffffffffffff81111561307c57600080fd5b61308889828a016129df565b9350935050606061309b89828a01612ade565b9150509295509295509295565b6000602082840312156130ba57600080fd5b60006130c884828501612ade565b91505092915050565b6000602082840312156130e357600080fd5b60006130f184828501612af3565b91505092915050565b6000806040838503121561310d57600080fd5b600061311b85828601612ade565b925050602061312c85828601612922565b9150509250929050565b6000613142838361316c565b60208301905092915050565b6131578161410e565b82525050565b61316681614067565b82525050565b61317581614055565b82525050565b61318481614055565b82525050565b600061319582613f0a565b61319f8185613f38565b93506131aa83613efa565b8060005b838110156131db5781516131c28882613136565b97506131cd83613f2b565b9250506001810190506131ae565b5085935050505092915050565b6131f181614079565b82525050565b61320081614085565b82525050565b60006132128385613f49565b935061321f8385846141b0565b613228836141f4565b840190509392505050565b600061323e82613f15565b6132488185613f5a565b93506132588185602086016141bf565b613261816141f4565b840191505092915050565b600061327782613f15565b6132818185613f6b565b93506132918185602086016141bf565b80840191505092915050565b6132a681614120565b82525050565b6132b581614144565b82525050565b6132c481614168565b82525050565b60006132d582613f20565b6132df8185613f76565b93506132ef8185602086016141bf565b6132f8816141f4565b840191505092915050565b6000613310601f83613f76565b91507f696e76616c696420666f7277617264657220666f7220726563697069656e74006000830152602082019050919050565b6000613350601f83613f76565b91507f5468697320746f6b656e206e6f7420737570706f7274656420617320666565006000830152602082019050919050565b6000613390601c83613f76565b91507f697354727573746564466f727761726465723a207265766572746564000000006000830152602082019050919050565b60006133d0601e83613f76565b91507f546f6b656e5061796d61737465722f42616c616e636520746f206c6f772e00006000830152602082019050919050565b6000613410600d83613f76565b91507f6661696c656420726566756e64000000000000000000000000000000000000006000830152602082019050919050565b6000613450601883613f76565b91507f466f72776172646572206973206e6f74207472757374656400000000000000006000830152602082019050919050565b6000613490602083613f76565b91507f697354727573746564466f727761726465723a2062616420726573706f6e73656000830152602082019050919050565b60006134d0601583613f76565b91507f746f6b656e2062616c616e636520746f6f206c6f7700000000000000000000006000830152602082019050919050565b6000613510601e83613f76565b91507f63616e206f6e6c792062652063616c6c65642062792052656c617948756200006000830152602082019050919050565b600060e083016135566000840184613f87565b613563600086018261316c565b506135716020840184613f87565b61357e602086018261316c565b5061358c604084018461403e565b61359960408601826138a6565b506135a7606084018461403e565b6135b460608601826138a6565b506135c2608084018461403e565b6135cf60808601826138a6565b506135dd60a0840184613f9e565b85830360a08701526135f0838284613206565b9250505061360160c084018461403e565b61360e60c08601826138a6565b508091505092915050565b60808201600082015161362f60008501826138a6565b50602082015161364260208501826138a6565b50604082015161365560408501826138a6565b50606082015161366860608501826138a6565b50505050565b60006101008301613682600084018461403e565b61368f60008601826138a6565b5061369d602084018461403e565b6136aa60208601826138a6565b506136b8604084018461403e565b6136c560408601826138a6565b506136d36060840184613f87565b6136e0606086018261316c565b506136ee6080840184613f87565b6136fb608086018261316c565b5061370960a0840184613f87565b61371660a086018261316c565b5061372460c0840184613f9e565b85830360c0870152613737838284613206565b9250505061374860e084018461403e565b61375560e08601826138a6565b508091505092915050565b60006101008301613774600084018461403e565b61378160008601826138a6565b5061378f602084018461403e565b61379c60208601826138a6565b506137aa604084018461403e565b6137b760408601826138a6565b506137c56060840184613f87565b6137d2606086018261316c565b506137e06080840184613f87565b6137ed608086018261316c565b506137fb60a0840184613f87565b61380860a086018261316c565b5061381660c0840184613f9e565b85830360c0870152613829838284613206565b9250505061383a60e084018461403e565b61384760e08601826138a6565b508091505092915050565b6000604083016138656000840184613ff5565b84820360008601526138778282613543565b9150506138876020840184614019565b8482036020860152613899828261366e565b9150508091505092915050565b6138af816140f7565b82525050565b6138be816140f7565b82525050565b6138cd81614101565b82525050565b60006138df828461326c565b915081905092915050565b60006020820190506138ff600083018461317b565b92915050565b600060208201905061391a600083018461314e565b92915050565b6000606082019050613935600083018661317b565b613942602083018561314e565b61394f60408301846138b5565b949350505050565b600060e08201905061396c600083018a61317b565b613979602083018961314e565b61398660408301886138b5565b61399360608301876138b5565b6139a060808301866138c4565b6139ad60a08301856131f7565b6139ba60c08301846131f7565b98975050505050505050565b60006060820190506139db600083018661317b565b6139e8602083018561317b565b6139f560408301846138b5565b949350505050565b6000604082019050613a12600083018561317b565b613a1f60208301846138b5565b9392505050565b6000608082019050613a3b600083018761317b565b613a4860208301866138b5565b613a55604083018561329d565b613a6260608301846132bb565b95945050505050565b60006040820190508181036000830152613a858185613233565b9050613a9460208301846131e8565b9392505050565b6000604082019050613ab0600083018561329d565b613abd60208301846132bb565b9392505050565b6000602082019050613ad960008301846132ac565b92915050565b60006020820190508181036000830152613af981846132ca565b905092915050565b60006020820190508181036000830152613b1a81613303565b9050919050565b60006020820190508181036000830152613b3a81613343565b9050919050565b60006020820190508181036000830152613b5a81613383565b9050919050565b60006020820190508181036000830152613b7a816133c3565b9050919050565b60006020820190508181036000830152613b9a81613403565b9050919050565b60006020820190508181036000830152613bba81613443565b9050919050565b60006020820190508181036000830152613bda81613483565b9050919050565b60006020820190508181036000830152613bfa816134c3565b9050919050565b60006020820190508181036000830152613c1a81613503565b9050919050565b6000608082019050613c366000830184613619565b92915050565b60006020820190508181036000830152613c568184613852565b905092915050565b6000602082019050613c7360008301846138b5565b92915050565b6000604082019050613c8e60008301856138b5565b613c9b602083018461315d565b9392505050565b6000604082019050613cb760008301856138b5565b8181036020830152613cc9818461318a565b90509392505050565b6000604082019050613ce760008301856138b5565b8181036020830152613cf98184613760565b90509392505050565b600060a082019050613d1760008301886138b5565b613d2460208301876138b5565b8181036040830152613d36818661318a565b9050613d45606083018561314e565b613d5260808301846138b5565b9695505050505050565b6000608082019050613d7160008301876138b5565b613d7e60208301866138b5565b613d8b60408301856138b5565b613d9860608301846138b5565b95945050505050565b60008083356001602003843603038112613dba57600080fd5b80840192508235915067ffffffffffffffff821115613dd857600080fd5b602083019250600182023603831315613df057600080fd5b509250929050565b60008235600160e003833603038112613e1057600080fd5b80830191505092915050565b60008235600161010003833603038112613e3557600080fd5b80830191505092915050565b6000604051905081810181811067ffffffffffffffff82111715613e6857613e676141f2565b5b8060405250919050565b600067ffffffffffffffff821115613e8d57613e8c6141f2565b5b602082029050602081019050919050565b600067ffffffffffffffff821115613eb957613eb86141f2565b5b602082029050602081019050919050565b600067ffffffffffffffff821115613ee557613ee46141f2565b5b601f19601f8301169050602081019050919050565b6000819050602082019050919050565b600081519050919050565b600081519050919050565b600081519050919050565b6000602082019050919050565b600082825260208201905092915050565b600082825260208201905092915050565b600082825260208201905092915050565b600081905092915050565b600082825260208201905092915050565b6000613f9660208401846128f8565b905092915050565b60008083356001602003843603038112613fb757600080fd5b83810192508235915060208301925067ffffffffffffffff821115613fdb57600080fd5b600182023603841315613fed57600080fd5b509250929050565b60008235600160e00383360303811261400d57600080fd5b82810191505092915050565b6000823560016101000383360303811261403257600080fd5b82810191505092915050565b600061404d6020840184612ade565b905092915050565b6000614060826140d7565b9050919050565b6000614072826140d7565b9050919050565b60008115159050919050565b6000819050919050565b600061409a82614055565b9050919050565b60006140ac82614055565b9050919050565b60006140be82614055565b9050919050565b60006140d082614055565b9050919050565b600073ffffffffffffffffffffffffffffffffffffffff82169050919050565b6000819050919050565b600060ff82169050919050565b60006141198261418c565b9050919050565b600061412b82614132565b9050919050565b600061413d826140d7565b9050919050565b600061414f82614156565b9050919050565b6000614161826140d7565b9050919050565b60006141738261417a565b9050919050565b6000614185826140d7565b9050919050565b60006141978261419e565b9050919050565b60006141a9826140d7565b9050919050565b82818337600083830152505050565b60005b838110156141dd5780820151818401526020810190506141c2565b838111156141ec576000848401525b50505050565bfe5b6000601f19601f8301169050919050565b61420e81614055565b811461421957600080fd5b50565b61422581614067565b811461423057600080fd5b50565b61423c81614079565b811461424757600080fd5b50565b61425381614085565b811461425e57600080fd5b50565b61426a8161408f565b811461427557600080fd5b50565b614281816140a1565b811461428c57600080fd5b50565b614298816140b3565b81146142a357600080fd5b50565b6142af816140c5565b81146142ba57600080fd5b50565b6142c6816140f7565b81146142d157600080fd5b50565b6142dd81614101565b81146142e857600080fd5b5056fe4f776e61626c653a206e6577206f776e657220697320746865207a65726f2061646472657373a2646970667358221220577ea31b146a947456167f832097e860663adf5f25fca588d7279c4a648f176464736f6c63430007060033",
  "linkReferences": {},
  "deployedLinkReferences": {}
}